{"abi":[{"type":"constructor","inputs":[{"name":"_baseFee","type":"uint96","internalType":"uint96"},{"name":"_gasPrice","type":"uint96","internalType":"uint96"},{"name":"_weiPerUnitLink","type":"int256","internalType":"int256"}],"stateMutability":"nonpayable"},{"type":"function","name":"LINK","inputs":[],"outputs":[{"name":"","type":"address","internalType":"contract LinkTokenInterface"}],"stateMutability":"view"},{"type":"function","name":"LINK_NATIVE_FEED","inputs":[],"outputs":[{"name":"","type":"address","internalType":"contract AggregatorV3Interface"}],"stateMutability":"view"},{"type":"function","name":"MAX_CONSUMERS","inputs":[],"outputs":[{"name":"","type":"uint16","internalType":"uint16"}],"stateMutability":"view"},{"type":"function","name":"acceptOwnership","inputs":[],"outputs":[],"stateMutability":"nonpayable"},{"type":"function","name":"acceptSubscriptionOwnerTransfer","inputs":[{"name":"subId","type":"uint256","internalType":"uint256"}],"outputs":[],"stateMutability":"nonpayable"},{"type":"function","name":"addConsumer","inputs":[{"name":"subId","type":"uint256","internalType":"uint256"},{"name":"consumer","type":"address","internalType":"address"}],"outputs":[],"stateMutability":"nonpayable"},{"type":"function","name":"cancelSubscription","inputs":[{"name":"_subId","type":"uint256","internalType":"uint256"},{"name":"_to","type":"address","internalType":"address"}],"outputs":[],"stateMutability":"nonpayable"},{"type":"function","name":"consumerIsAdded","inputs":[{"name":"_subId","type":"uint256","internalType":"uint256"},{"name":"_consumer","type":"address","internalType":"address"}],"outputs":[{"name":"","type":"bool","internalType":"bool"}],"stateMutability":"view"},{"type":"function","name":"createSubscription","inputs":[],"outputs":[{"name":"subId","type":"uint256","internalType":"uint256"}],"stateMutability":"nonpayable"},{"type":"function","name":"fulfillRandomWords","inputs":[{"name":"_requestId","type":"uint256","internalType":"uint256"},{"name":"_consumer","type":"address","internalType":"address"}],"outputs":[],"stateMutability":"nonpayable"},{"type":"function","name":"fulfillRandomWordsWithOverride","inputs":[{"name":"_requestId","type":"uint256","internalType":"uint256"},{"name":"_consumer","type":"address","internalType":"address"},{"name":"_words","type":"uint256[]","internalType":"uint256[]"}],"outputs":[],"stateMutability":"nonpayable"},{"type":"function","name":"fundSubscription","inputs":[{"name":"_subId","type":"uint256","internalType":"uint256"},{"name":"_amount","type":"uint256","internalType":"uint256"}],"outputs":[],"stateMutability":"nonpayable"},{"type":"function","name":"fundSubscriptionWithNative","inputs":[{"name":"subId","type":"uint256","internalType":"uint256"}],"outputs":[],"stateMutability":"payable"},{"type":"function","name":"getActiveSubscriptionIds","inputs":[{"name":"startIndex","type":"uint256","internalType":"uint256"},{"name":"maxCount","type":"uint256","internalType":"uint256"}],"outputs":[{"name":"ids","type":"uint256[]","internalType":"uint256[]"}],"stateMutability":"view"},{"type":"function","name":"getSubscription","inputs":[{"name":"subId","type":"uint256","internalType":"uint256"}],"outputs":[{"name":"balance","type":"uint96","internalType":"uint96"},{"name":"nativeBalance","type":"uint96","internalType":"uint96"},{"name":"reqCount","type":"uint64","internalType":"uint64"},{"name":"subOwner","type":"address","internalType":"address"},{"name":"consumers","type":"address[]","internalType":"address[]"}],"stateMutability":"view"},{"type":"function","name":"i_base_fee","inputs":[],"outputs":[{"name":"","type":"uint96","internalType":"uint96"}],"stateMutability":"view"},{"type":"function","name":"i_gas_price","inputs":[],"outputs":[{"name":"","type":"uint96","internalType":"uint96"}],"stateMutability":"view"},{"type":"function","name":"i_wei_per_unit_link","inputs":[],"outputs":[{"name":"","type":"int256","internalType":"int256"}],"stateMutability":"view"},{"type":"function","name":"onTokenTransfer","inputs":[{"name":"","type":"address","internalType":"address"},{"name":"amount","type":"uint256","internalType":"uint256"},{"name":"data","type":"bytes","internalType":"bytes"}],"outputs":[],"stateMutability":"nonpayable"},{"type":"function","name":"owner","inputs":[],"outputs":[{"name":"","type":"address","internalType":"address"}],"stateMutability":"view"},{"type":"function","name":"ownerCancelSubscription","inputs":[{"name":"subId","type":"uint256","internalType":"uint256"}],"outputs":[],"stateMutability":"nonpayable"},{"type":"function","name":"pendingRequestExists","inputs":[{"name":"","type":"uint256","internalType":"uint256"}],"outputs":[{"name":"","type":"bool","internalType":"bool"}],"stateMutability":"pure"},{"type":"function","name":"recoverFunds","inputs":[{"name":"to","type":"address","internalType":"address"}],"outputs":[],"stateMutability":"nonpayable"},{"type":"function","name":"recoverNativeFunds","inputs":[{"name":"to","type":"address","internalType":"address payable"}],"outputs":[],"stateMutability":"nonpayable"},{"type":"function","name":"removeConsumer","inputs":[{"name":"_subId","type":"uint256","internalType":"uint256"},{"name":"_consumer","type":"address","internalType":"address"}],"outputs":[],"stateMutability":"nonpayable"},{"type":"function","name":"requestRandomWords","inputs":[{"name":"_req","type":"tuple","internalType":"struct VRFV2PlusClient.RandomWordsRequest","components":[{"name":"keyHash","type":"bytes32","internalType":"bytes32"},{"name":"subId","type":"uint256","internalType":"uint256"},{"name":"requestConfirmations","type":"uint16","internalType":"uint16"},{"name":"callbackGasLimit","type":"uint32","internalType":"uint32"},{"name":"numWords","type":"uint32","internalType":"uint32"},{"name":"extraArgs","type":"bytes","internalType":"bytes"}]}],"outputs":[{"name":"","type":"uint256","internalType":"uint256"}],"stateMutability":"nonpayable"},{"type":"function","name":"requestSubscriptionOwnerTransfer","inputs":[{"name":"subId","type":"uint256","internalType":"uint256"},{"name":"newOwner","type":"address","internalType":"address"}],"outputs":[],"stateMutability":"nonpayable"},{"type":"function","name":"s_config","inputs":[],"outputs":[{"name":"minimumRequestConfirmations","type":"uint16","internalType":"uint16"},{"name":"maxGasLimit","type":"uint32","internalType":"uint32"},{"name":"reentrancyLock","type":"bool","internalType":"bool"},{"name":"stalenessSeconds","type":"uint32","internalType":"uint32"},{"name":"gasAfterPaymentCalculation","type":"uint32","internalType":"uint32"},{"name":"fulfillmentFlatFeeNativePPM","type":"uint32","internalType":"uint32"},{"name":"fulfillmentFlatFeeLinkDiscountPPM","type":"uint32","internalType":"uint32"},{"name":"nativePremiumPercentage","type":"uint8","internalType":"uint8"},{"name":"linkPremiumPercentage","type":"uint8","internalType":"uint8"}],"stateMutability":"view"},{"type":"function","name":"s_currentSubNonce","inputs":[],"outputs":[{"name":"","type":"uint64","internalType":"uint64"}],"stateMutability":"view"},{"type":"function","name":"s_totalBalance","inputs":[],"outputs":[{"name":"","type":"uint96","internalType":"uint96"}],"stateMutability":"view"},{"type":"function","name":"s_totalNativeBalance","inputs":[],"outputs":[{"name":"","type":"uint96","internalType":"uint96"}],"stateMutability":"view"},{"type":"function","name":"setConfig","inputs":[],"outputs":[],"stateMutability":"nonpayable"},{"type":"function","name":"setLINKAndLINKNativeFeed","inputs":[{"name":"link","type":"address","internalType":"address"},{"name":"linkNativeFeed","type":"address","internalType":"address"}],"outputs":[],"stateMutability":"nonpayable"},{"type":"function","name":"transferOwnership","inputs":[{"name":"to","type":"address","internalType":"address"}],"outputs":[],"stateMutability":"nonpayable"},{"type":"function","name":"withdraw","inputs":[{"name":"recipient","type":"address","internalType":"address"}],"outputs":[],"stateMutability":"nonpayable"},{"type":"function","name":"withdrawNative","inputs":[{"name":"recipient","type":"address","internalType":"address payable"}],"outputs":[],"stateMutability":"nonpayable"},{"type":"event","name":"ConfigSet","inputs":[],"anonymous":false},{"type":"event","name":"FundsRecovered","inputs":[{"name":"to","type":"address","indexed":false,"internalType":"address"},{"name":"amount","type":"uint256","indexed":false,"internalType":"uint256"}],"anonymous":false},{"type":"event","name":"NativeFundsRecovered","inputs":[{"name":"to","type":"address","indexed":false,"internalType":"address"},{"name":"amount","type":"uint256","indexed":false,"internalType":"uint256"}],"anonymous":false},{"type":"event","name":"OwnershipTransferRequested","inputs":[{"name":"from","type":"address","indexed":true,"internalType":"address"},{"name":"to","type":"address","indexed":true,"internalType":"address"}],"anonymous":false},{"type":"event","name":"OwnershipTransferred","inputs":[{"name":"from","type":"address","indexed":true,"internalType":"address"},{"name":"to","type":"address","indexed":true,"internalType":"address"}],"anonymous":false},{"type":"event","name":"RandomWordsFulfilled","inputs":[{"name":"requestId","type":"uint256","indexed":true,"internalType":"uint256"},{"name":"outputSeed","type":"uint256","indexed":false,"internalType":"uint256"},{"name":"subId","type":"uint256","indexed":true,"internalType":"uint256"},{"name":"payment","type":"uint96","indexed":false,"internalType":"uint96"},{"name":"nativePayment","type":"bool","indexed":false,"internalType":"bool"},{"name":"success","type":"bool","indexed":false,"internalType":"bool"},{"name":"onlyPremium","type":"bool","indexed":false,"internalType":"bool"}],"anonymous":false},{"type":"event","name":"RandomWordsRequested","inputs":[{"name":"keyHash","type":"bytes32","indexed":true,"internalType":"bytes32"},{"name":"requestId","type":"uint256","indexed":false,"internalType":"uint256"},{"name":"preSeed","type":"uint256","indexed":false,"internalType":"uint256"},{"name":"subId","type":"uint256","indexed":true,"internalType":"uint256"},{"name":"minimumRequestConfirmations","type":"uint16","indexed":false,"internalType":"uint16"},{"name":"callbackGasLimit","type":"uint32","indexed":false,"internalType":"uint32"},{"name":"numWords","type":"uint32","indexed":false,"internalType":"uint32"},{"name":"extraArgs","type":"bytes","indexed":false,"internalType":"bytes"},{"name":"sender","type":"address","indexed":true,"internalType":"address"}],"anonymous":false},{"type":"event","name":"SubscriptionCanceled","inputs":[{"name":"subId","type":"uint256","indexed":true,"internalType":"uint256"},{"name":"to","type":"address","indexed":false,"internalType":"address"},{"name":"amountLink","type":"uint256","indexed":false,"internalType":"uint256"},{"name":"amountNative","type":"uint256","indexed":false,"internalType":"uint256"}],"anonymous":false},{"type":"event","name":"SubscriptionConsumerAdded","inputs":[{"name":"subId","type":"uint256","indexed":true,"internalType":"uint256"},{"name":"consumer","type":"address","indexed":false,"internalType":"address"}],"anonymous":false},{"type":"event","name":"SubscriptionConsumerRemoved","inputs":[{"name":"subId","type":"uint256","indexed":true,"internalType":"uint256"},{"name":"consumer","type":"address","indexed":false,"internalType":"address"}],"anonymous":false},{"type":"event","name":"SubscriptionCreated","inputs":[{"name":"subId","type":"uint256","indexed":true,"internalType":"uint256"},{"name":"owner","type":"address","indexed":false,"internalType":"address"}],"anonymous":false},{"type":"event","name":"SubscriptionFunded","inputs":[{"name":"subId","type":"uint256","indexed":true,"internalType":"uint256"},{"name":"oldBalance","type":"uint256","indexed":false,"internalType":"uint256"},{"name":"newBalance","type":"uint256","indexed":false,"internalType":"uint256"}],"anonymous":false},{"type":"event","name":"SubscriptionFundedWithNative","inputs":[{"name":"subId","type":"uint256","indexed":true,"internalType":"uint256"},{"name":"oldNativeBalance","type":"uint256","indexed":false,"internalType":"uint256"},{"name":"newNativeBalance","type":"uint256","indexed":false,"internalType":"uint256"}],"anonymous":false},{"type":"event","name":"SubscriptionOwnerTransferRequested","inputs":[{"name":"subId","type":"uint256","indexed":true,"internalType":"uint256"},{"name":"from","type":"address","indexed":false,"internalType":"address"},{"name":"to","type":"address","indexed":false,"internalType":"address"}],"anonymous":false},{"type":"event","name":"SubscriptionOwnerTransferred","inputs":[{"name":"subId","type":"uint256","indexed":true,"internalType":"uint256"},{"name":"from","type":"address","indexed":false,"internalType":"address"},{"name":"to","type":"address","indexed":false,"internalType":"address"}],"anonymous":false},{"type":"error","name":"BalanceInvariantViolated","inputs":[{"name":"internalBalance","type":"uint256","internalType":"uint256"},{"name":"externalBalance","type":"uint256","internalType":"uint256"}]},{"type":"error","name":"FailedToSendNative","inputs":[]},{"type":"error","name":"FailedToTransferLink","inputs":[]},{"type":"error","name":"IndexOutOfRange","inputs":[]},{"type":"error","name":"InsufficientBalance","inputs":[]},{"type":"error","name":"InvalidCalldata","inputs":[]},{"type":"error","name":"InvalidConsumer","inputs":[{"name":"subId","type":"uint256","internalType":"uint256"},{"name":"consumer","type":"address","internalType":"address"}]},{"type":"error","name":"InvalidExtraArgsTag","inputs":[]},{"type":"error","name":"InvalidRandomWords","inputs":[]},{"type":"error","name":"InvalidRequest","inputs":[]},{"type":"error","name":"InvalidSubscription","inputs":[]},{"type":"error","name":"LinkAlreadySet","inputs":[]},{"type":"error","name":"LinkNotSet","inputs":[]},{"type":"error","name":"MustBeRequestedOwner","inputs":[{"name":"proposedOwner","type":"address","internalType":"address"}]},{"type":"error","name":"MustBeSubOwner","inputs":[{"name":"owner","type":"address","internalType":"address"}]},{"type":"error","name":"NotImplemented","inputs":[]},{"type":"error","name":"OnlyCallableFromLink","inputs":[]},{"type":"error","name":"PendingRequestExists","inputs":[]},{"type":"error","name":"Reentrant","inputs":[]},{"type":"error","name":"TooManyConsumers","inputs":[]}],"bytecode":{"object":"0x60e06040526001600e556064600f55348015610019575f5ffd5b5060405161369f38038061369f8339810160408190526100389161028d565b33805f8161008d5760405162461bcd60e51b815260206004820152601860248201527f43616e6e6f7420736574206f776e657220746f207a65726f000000000000000060448201526064015b60405180910390fd5b5f80546001600160a01b0319166001600160a01b03848116919091179091558116156100bc576100bc816100e7565b5050506001600160601b03808416608052821660a05260c08190526100df61018f565b5050506102c6565b336001600160a01b0382160361013f5760405162461bcd60e51b815260206004820152601760248201527f43616e6e6f74207472616e7366657220746f2073656c660000000000000000006044820152606401610084565b600180546001600160a01b0319166001600160a01b038381169182179092555f8054604051929316917fed8889f560326eb138920d842192f0eb3dd22b4f139c87a2c57538e05bae12789190a350565b610197610217565b60408051610120810182525f80825260208201819052818301819052606082018190526080820181905260a0820181905260c0820181905260e08201819052610100909101819052600c80546001600160c81b031916905590517f4b2974a542484cba2783812ff8033f7fc682cac2fe0905c28c5e27869b3155be9190a1565b5f546001600160a01b031633146102705760405162461bcd60e51b815260206004820152601660248201527f4f6e6c792063616c6c61626c65206279206f776e6572000000000000000000006044820152606401610084565b565b80516001600160601b0381168114610288575f5ffd5b919050565b5f5f5f6060848603121561029f575f5ffd5b6102a884610272565b92506102b660208501610272565b9150604084015190509250925092565b60805160a05160c05161339a6103055f395f81816103510152610b4801525f818161075f0152610acf01525f81816104070152610b1a015261339a5ff3fe608060405260043610610207575f3560e01c80638b673e7a11610113578063aefb212f1161009d578063dac83d291161006d578063dac83d29146106ff578063dc311dd31461071e578063dcab3dcf1461074e578063e72f6e3014610781578063f2fde38b146107a0575f5ffd5b8063aefb212f14610676578063b2a7cac5146106a2578063bec4c08c146106c1578063cb631797146106e0575f5ffd5b80639b1c385e116100e35780639b1c385e146105ce5780639d40a6fd146105ed578063a21a23e414610624578063a4c0ed3614610638578063aa433aff14610657575f5ffd5b80638b673e7a1461056c5780638da5cb5b14610580578063953e9c751461059c57806395b55cfc146105bb575f5ffd5b806341af6c871161019457806372e9d5651161016457806372e9d565146104dc57806379ba5097146104fb578063808974ff1461050f5780638402595e1461052e57806386fe91c71461054d575f5ffd5b806341af6c871461044857806351cff8d91461047757806364d51a2a1461049657806365982744146104bd575f5ffd5b806313478329116101da578063134783291461034057806318e3dd27146103815780631b6b6d23146103bf5780631eebc117146103f65780632f622e6b14610429575f5ffd5b8063088070f51461020b57806308e3898e146102e15780630ae0954014610302578063115e3c0d14610321575b5f5ffd5b348015610216575f5ffd5b50600c5461027f9061ffff81169063ffffffff62010000820481169160ff600160301b82048116926701000000000000008304811692600160581b8104821692600160781b8204831692600160981b83041691600160b81b8104821691600160c01b9091041689565b6040805161ffff909a168a5263ffffffff98891660208b01529615159689019690965293861660608801529185166080870152841660a08601529290921660c084015260ff91821660e084015216610100820152610120015b60405180910390f35b3480156102ec575f5ffd5b506103006102fb366004612c07565b6107bf565b005b34801561030d575f5ffd5b5061030061031c366004612cce565b610c33565b34801561032c575f5ffd5b5061030061033b366004612cfc565b610d2e565b34801561034b575f5ffd5b506103737f000000000000000000000000000000000000000000000000000000000000000081565b6040519081526020016102d8565b34801561038c575f5ffd5b50600a546103a790600160601b90046001600160601b031681565b6040516001600160601b0390911681526020016102d8565b3480156103ca575f5ffd5b506002546103de906001600160a01b031681565b6040516001600160a01b0390911681526020016102d8565b348015610401575f5ffd5b506103a77f000000000000000000000000000000000000000000000000000000000000000081565b348015610434575f5ffd5b50610300610443366004612d1c565b610e3f565b348015610453575f5ffd5b50610467610462366004612d37565b610ee5565b60405190151581526020016102d8565b348015610482575f5ffd5b50610300610491366004612d1c565b610eff565b3480156104a1575f5ffd5b506104aa606481565b60405161ffff90911681526020016102d8565b3480156104c8575f5ffd5b506103006104d7366004612d4e565b61101b565b3480156104e7575f5ffd5b506003546103de906001600160a01b031681565b348015610506575f5ffd5b5061030061107b565b34801561051a575f5ffd5b50610300610529366004612cce565b611129565b348015610539575f5ffd5b50610300610548366004612d1c565b61114c565b348015610558575f5ffd5b50600a546103a7906001600160601b031681565b348015610577575f5ffd5b50610300611263565b34801561058b575f5ffd5b505f546001600160a01b03166103de565b3480156105a7575f5ffd5b506104676105b6366004612cce565b6112eb565b6103006105c9366004612d37565b611318565b3480156105d9575f5ffd5b506103736105e8366004612d7a565b611426565b3480156105f8575f5ffd5b5060075461060c906001600160401b031681565b6040516001600160401b0390911681526020016102d8565b34801561062f575f5ffd5b50610373611683565b348015610643575f5ffd5b50610300610652366004612db0565b611849565b348015610662575f5ffd5b50610300610671366004612d37565b6119a2565b348015610681575f5ffd5b50610695610690366004612cfc565b6119d4565b6040516102d89190612e6d565b3480156106ad575f5ffd5b506103006106bc366004612d37565b611ac9565b3480156106cc575f5ffd5b506103006106db366004612cce565b611bb4565b3480156106eb575f5ffd5b506103006106fa366004612cce565b611ca3565b34801561070a575f5ffd5b50610300610719366004612cce565b611f1c565b348015610729575f5ffd5b5061073d610738366004612d37565b611fb6565b6040516102d8959493929190612e7f565b348015610759575f5ffd5b506103a77f000000000000000000000000000000000000000000000000000000000000000081565b34801561078c575f5ffd5b5061030061079b366004612d1c565b61208b565b3480156107ab575f5ffd5b506103006107ba366004612d1c565b61224e565b5f5a5f85815260106020526040812054919250036107f0576040516341abc80160e01b815260040160405180910390fd5b5f848152601060209081526040808320815160808101835281548152600182015463ffffffff8082169583019590955264010000000090049093169183019190915260028101805460608401919061084790612f08565b80601f016020809104026020016040519081016040528092919081815260200182805461087390612f08565b80156108be5780601f10610895576101008083540402835291602001916108be565b820191905f5260205f20905b8154815290600101906020018083116108a157829003601f168201915b505050505081525050905082515f0361098a57806040015163ffffffff166001600160401b038111156108f3576108f3612bc3565b60405190808252806020026020018201604052801561091c578160200160208202803683370190505b5092505f5b816040015163ffffffff16811015610984576040805160208101889052908101829052606001604051602081830303815290604052805190602001205f1c84828151811061097157610971612f40565b6020908102919091010152600101610921565b506109b5565b806040015163ffffffff168351146109b557604051631f9efadb60e11b815260040160405180910390fd5b5f5f631fe543e360e01b87866040516024016109d2929190612f54565b60408051601f19818403018152918152602080830180516001600160e01b03166001600160e01b031990951694909417909352600c805466ff0000000000001916600160301b1790559185015191519092505f916001600160a01b0389169163ffffffff90911690610a45908590612f74565b5f604051808303815f8787f1925050503d805f8114610a7f576040519150601f19603f3d011682016040523d82523d5f602084013e610a84565b606091505b5050600c805466ff00000000000019169055606085015180519192505f91610aae90600190612f9e565b81518110610abe57610abe612f40565b60209101015160f81c60011490505f7f00000000000000000000000000000000000000000000000000000000000000006001600160601b03165a610b029089612f9e565b610b0c9190612fb1565b610b3f906001600160601b037f000000000000000000000000000000000000000000000000000000000000000016612fc8565b905081610b86577f0000000000000000000000000000000000000000000000000000000000000000610b7982670de0b6b3a7640000612fb1565b610b839190612fdb565b90505b85518190610b979082908590612262565b5f8b815260106020526040812081815560018101805467ffffffffffffffff1916905590610bc86002830182612aea565b50508651604080518d81526001600160601b03841660208201528515158183015286151560608201525f608082015290518d917faeb4b4786571e184246d39587f659abf0e26f41f6a3358692250382c0cdb47b7919081900360a00190a35050505050505050505050565b81610c3d816123b8565b610c4561240c565b5f5f610c5085612439565b915091505f846001600160a01b0316826001600160601b03166040515f6040518083038185875af1925050503d805f8114610ca6576040519150601f19603f3d011682016040523d82523d5f602084013e610cab565b606091505b5050905080610ccd5760405163950b247960e01b815260040160405180910390fd5b604080516001600160a01b03871681526001600160601b03808616602083015284169181019190915286907f8c74ce8b8cf87f5eb001275c8be27eb34ea2b62bfab6814fcc62192bb63e81c4906060015b60405180910390a2505050505050565b5f828152600560205260409020546001600160a01b0316610d6257604051630fb532db60e11b815260040160405180910390fd5b5f82815260066020526040812080546001600160601b031691839190610d888385612ffa565b92506101000a8154816001600160601b0302191690836001600160601b0316021790555081600a5f8282829054906101000a90046001600160601b0316610dcf9190612ffa565b92506101000a8154816001600160601b0302191690836001600160601b03160217905550827f1ced9348ff549fceab2ac57cd3a9de38edaaab274b725ee82c23e8fc8c4eec7a828484610e229190612fc8565b6040805192835260208301919091520160405180910390a2505050565b610e4761240c565b610e4f6125dd565b600b54600160601b90046001600160601b0316610e6d81151561262f565b600b80546bffffffffffffffffffffffff60601b19169055600a8054829190600c90610eaa908490600160601b90046001600160601b0316613019565b92506101000a8154816001600160601b0302191690836001600160601b03160217905550610ee182826001600160601b031661264d565b5050565b5f60405163d623472560e01b815260040160405180910390fd5b610f0761240c565b610f0f6125dd565b6002546001600160a01b0316610f385760405163c1f0c0a160e01b815260040160405180910390fd5b600b546001600160601b0316610f4f81151561262f565b600b80546001600160601b0319169055600a80548291905f90610f7c9084906001600160601b0316613019565b82546101009290920a6001600160601b0381810219909316918316021790915560025460405163a9059cbb60e01b81526001600160a01b0386811660048301529285166024820152610ee1935091169063a9059cbb906044015b6020604051808303815f875af1158015610ff2573d5f5f3e3d5ffd5b505050506040513d601f19601f820116820180604052508101906110169190613045565b61262f565b6110236125dd565b6002546001600160a01b03161561104d57604051631688c53760e11b815260040160405180910390fd5b600280546001600160a01b039384166001600160a01b03199182161790915560038054929093169116179055565b6001546001600160a01b031633146110d35760405162461bcd60e51b815260206004820152601660248201527526bab9ba10313290383937b837b9b2b21037bbb732b960511b60448201526064015b60405180910390fd5b5f8054336001600160a01b0319808316821784556001805490911690556040516001600160a01b0390921692909183917f8be0079c531659141344cd1fd0a4f28419497f9722a3daafe3b4186f6b6457e091a350565b61113161240c565b604080515f815260208101909152610ee190839083906107bf565b6111546125dd565b600a544790600160601b90046001600160601b031681811115611194576040516354ced18160e11b815260048101829052602481018390526044016110ca565b8181101561125e575f6111a78284612f9e565b90505f846001600160a01b0316826040515f6040518083038185875af1925050503d805f81146111f2576040519150601f19603f3d011682016040523d82523d5f602084013e6111f7565b606091505b50509050806112195760405163950b247960e01b815260040160405180910390fd5b604080516001600160a01b0387168152602081018490527f4aed7c8eed0496c8c19ea2681fcca25741c1602342e38b045d9f1e8e905d2e9c910160405180910390a150505b505050565b61126b6125dd565b60408051610120810182525f80825260208201819052818301819052606082018190526080820181905260a0820181905260c0820181905260e08201819052610100909101819052600c80546001600160c81b031916905590517f4b2974a542484cba2783812ff8033f7fc682cac2fe0905c28c5e27869b3155be9190a1565b6001600160a01b0381165f90815260046020908152604080832085845290915290205460ff165b92915050565b61132061240c565b5f81815260056020526040902054611340906001600160a01b03166126bd565b5f8181526006602052604090208054600160601b90046001600160601b0316903490600c61136e8385612ffa565b92506101000a8154816001600160601b0302191690836001600160601b0316021790555034600a600c8282829054906101000a90046001600160601b03166113b69190612ffa565b92506101000a8154816001600160601b0302191690836001600160601b03160217905550817f7603b205d03651ee812f803fccde89f1012e545a9c99f0abfea9cedd0fd8e9028234846114099190612fc8565b604080519283526020830191909152015b60405180910390a25050565b5f61142f61240c565b81602001353361143f82826112eb565b61146e576040516379bfd40160e01b8152600481018390526001600160a01b03821660248201526044016110ca565b6020808501355f81815260059092526040909120546001600160a01b03166114a957604051630fb532db60e11b815260040160405180910390fd5b600e80545f91826114b983613060565b90915550600f80549192505f9190826114d183613060565b9091555090505f6114f56114f06114eb60a08b018b613078565b6126e4565b612769565b905060405180608001604052808960200135815260200189606001602081019061151f91906130c1565b63ffffffff16815260200161153a60a08b0160808c016130c1565b63ffffffff16815260200161155260a08b018b613078565b8080601f0160208091040260200160405190810160405280939291908181526020018383808284375f9201829052509390945250508581526010602090815260409182902084518155908401516001820180549386015163ffffffff9081166401000000000267ffffffffffffffff1990951692169190911792909217909155606083015190915060028201906115e9908261312f565b50905050336001600160a01b03168860200135895f01357feb0e3652e0f44f417695e6e90f2f42c99b65cd7169074c5a654b16b9748c3a4e86868d604001602081019061163691906131e9565b8e606001602081019061164991906130c1565b8f608001602081019061165c91906130c1565b8960405161166f9695949392919061320a565b60405180910390a450909695505050505050565b5f61168c61240c565b6007546040516001600160601b031933606090811b821660208401524340603484015230901b1660548201526001600160c01b031960c083901b1660688201526001600160401b039091169060700160408051601f1981840301815291905280516020909101209150611700816001613272565b6007805467ffffffffffffffff19166001600160401b03928316179055604080515f808252608082018352602080830182815283850183815260608086018581528a86526006855287862093518454935191516001600160601b039182166001600160c01b031990951694909417600160601b9190921602176001600160c01b0316600160c01b9290981691909102969096179055835194850184523385528481018281528585018481528884526005835294909220855181546001600160a01b03199081166001600160a01b0392831617835593516001830180549095169116179092559251805192949391926117fe9260028501920190612b21565b5061180e915060089050846127da565b5060405133815283907f1d3015d7ba850fa198dc7b1a3f5d42779313a681035f77c8c03764c61005518d9060200160405180910390a2505090565b61185161240c565b6002546001600160a01b0316331461187c576040516344b0e3c360e01b815260040160405180910390fd5b6020811461189d57604051638129bbcd60e01b815260040160405180910390fd5b5f6118aa82840184612d37565b5f818152600560205260409020549091506118cd906001600160a01b03166126bd565b5f81815260066020526040812080546001600160601b0316918691906118f38385612ffa565b92506101000a8154816001600160601b0302191690836001600160601b0316021790555084600a5f8282829054906101000a90046001600160601b031661193a9190612ffa565b92506101000a8154816001600160601b0302191690836001600160601b03160217905550817f1ced9348ff549fceab2ac57cd3a9de38edaaab274b725ee82c23e8fc8c4eec7a82878461198d9190612fc8565b60408051928352602083019190915201610d1e565b6119aa6125dd565b5f818152600560205260409020546001600160a01b03166119ca816126bd565b610ee182826127e5565b60605f6119e160086128c7565b9050808410611a0357604051631390f2a160e01b815260040160405180910390fd5b5f611a0e8486612fc8565b905081811180611a1c575083155b611a265780611a28565b815b90505f611a358683612f9e565b9050806001600160401b03811115611a4f57611a4f612bc3565b604051908082528060200260200182016040528015611a78578160200160208202803683370190505b5093505f5b81811015611abf57611a9a611a928883612fc8565b6008906128d0565b858281518110611aac57611aac612f40565b6020908102919091010152600101611a7d565b5050505092915050565b611ad161240c565b5f818152600560205260409020546001600160a01b0316611af1816126bd565b5f828152600560205260409020600101546001600160a01b03163314611b48575f828152600560205260409081902060010154905163d084e97560e01b81526001600160a01b0390911660048201526024016110ca565b5f828152600560209081526040918290208054336001600160a01b03199182168117835560019092018054909116905582516001600160a01b03851681529182015283917fd4114ab6e9af9f597c52041f32d62dc57c5c4e4c0d4427006069635e216c9386910161141a565b81611bbe816123b8565b611bc661240c565b6001600160a01b0382165f9081526004602090815260408083208684529091529020805460ff1615611bf85750505050565b5f848152600560205260409020600201805460631901611c2b576040516305a48e0f60e01b815260040160405180910390fd5b8154600160ff1990911681178355815490810182555f82815260209081902090910180546001600160a01b0319166001600160a01b03871690811790915560405190815286917f1e980d04aa7648e205713e5e8ea3808672ac163d10936d36f91b2c88ac1575e1910160405180910390a25050505050565b81611cad816123b8565b8282611cb982826112eb565b611ce8576040516379bfd40160e01b8152600481018390526001600160a01b03821660248201526044016110ca565b611cf061240c565b6001600160a01b0384165f90815260046020908152604080832088845290915290205460ff16611d45576040516379bfd40160e01b8152600481018690526001600160a01b03851660248201526044016110ca565b5f85815260056020908152604080832060020180548251818502810185019093528083529192909190830182828015611da557602002820191905f5260205f20905b81546001600160a01b03168152600190910190602001808311611d87575b505050505090505f60018251611dbb9190612f9e565b90505f5b8251811015611eb557866001600160a01b0316838281518110611de457611de4612f40565b60200260200101516001600160a01b031603611ead575f838381518110611e0d57611e0d612f40565b602002602001015190508060055f8b81526020019081526020015f206002018381548110611e3d57611e3d612f40565b5f91825260208083209190910180546001600160a01b0319166001600160a01b0394909416939093179092558a8152600590915260409020600201805480611e8757611e87613291565b5f8281526020902081015f1990810180546001600160a01b031916905501905550611eb5565b600101611dbf565b506001600160a01b0386165f8181526004602090815260408083208b8452825291829020805460ff19169055905191825288917f32158c6058347c1601b2d12bc696ac6901d8a9a9aa3ba10c27ab0a983e8425a7910160405180910390a250505050505050565b81611f26816123b8565b611f2e61240c565b5f83815260056020526040902060018101546001600160a01b03848116911614611fb0576001810180546001600160a01b0319166001600160a01b03851690811790915560408051338152602081019290925285917f21a4dad170a6bf476c31bbcf4a16628295b0e450672eec25d7c93308e05344a191015b60405180910390a25b50505050565b5f81815260056020526040812054819081906001600160a01b03166060611fdc826126bd565b5f86815260066020908152604080832054600583529281902060020180548251818502810185019093528083526001600160601b0380861695600160601b810490911694600160c01b9091046001600160401b031693889392909183919083018282801561207157602002820191905f5260205f20905b81546001600160a01b03168152600190910190602001808311612053575b505050505090509450945094509450945091939590929450565b6120936125dd565b6002546001600160a01b03166120bc5760405163c1f0c0a160e01b815260040160405180910390fd5b6002546040516370a0823160e01b81523060048201525f916001600160a01b0316906370a0823190602401602060405180830381865afa158015612102573d5f5f3e3d5ffd5b505050506040513d601f19601f8201168201806040525081019061212691906132a5565b600a549091506001600160601b031681811115612160576040516354ced18160e11b815260048101829052602481018390526044016110ca565b8181101561125e575f6121738284612f9e565b60025460405163a9059cbb60e01b81526001600160a01b0387811660048301526024820184905292935091169063a9059cbb906044016020604051808303815f875af11580156121c5573d5f5f3e3d5ffd5b505050506040513d601f19601f820116820180604052508101906121e99190613045565b61220657604051631f01ff1360e21b815260040160405180910390fd5b604080516001600160a01b0386168152602081018390527f59bfc682b673f8cbf945f1e454df9334834abf7dfe7f92237ca29ecb9b436600910160405180910390a150505050565b6122566125dd565b61225f816128db565b50565b5f81815260066020526040902082156123255780546001600160601b03600160601b90910481169085168110156122ac57604051631e9acf1760e31b815260040160405180910390fd5b6122b68582613019565b82546bffffffffffffffffffffffff60601b1916600160601b6001600160601b039283168102919091178455600b805488939192600c926122fb928692900416612ffa565b92506101000a8154816001600160601b0302191690836001600160601b0316021790555050611fb0565b80546001600160601b0390811690851681101561235557604051631e9acf1760e31b815260040160405180910390fd5b61235f8582613019565b82546001600160601b0319166001600160601b03918216178355600b805487925f9161238d91859116612ffa565b92506101000a8154816001600160601b0302191690836001600160601b031602179055505050505050565b5f818152600560205260409020546001600160a01b03166123d8816126bd565b336001600160a01b03821614610ee157604051636c51fda960e11b81526001600160a01b03821660048201526024016110ca565b600c54600160301b900460ff16156124375760405163769dd35360e11b815260040160405180910390fd5b565b5f8181526005602090815260408083206006909252822054600290910180546001600160601b0380841694600160601b90940416925b818110156124da5760045f84838154811061248c5761248c612f40565b5f9182526020808320909101546001600160a01b0316835282810193909352604091820181208982529092529020805470ffffffffffffffffffffffffffffffffff1916905560010161246f565b505f85815260056020526040812080546001600160a01b031990811682556001820180549091169055906125116002830182612b84565b50505f8581526006602052604081205561252c600886612983565b506001600160601b0384161561257e57600a80548591905f906125599084906001600160601b0316613019565b92506101000a8154816001600160601b0302191690836001600160601b031602179055505b6001600160601b038316156125d65782600a600c8282829054906101000a90046001600160601b03166125b19190613019565b92506101000a8154816001600160601b0302191690836001600160601b031602179055505b5050915091565b5f546001600160a01b031633146124375760405162461bcd60e51b815260206004820152601660248201527527b7363c9031b0b63630b1363290313c9037bbb732b960511b60448201526064016110ca565b8061225f57604051631e9acf1760e31b815260040160405180910390fd5b5f826001600160a01b0316826040515f6040518083038185875af1925050503d805f8114612696576040519150601f19603f3d011682016040523d82523d5f602084013e61269b565b606091505b505090508061125e5760405163950b247960e01b815260040160405180910390fd5b6001600160a01b03811661225f57604051630fb532db60e11b815260040160405180910390fd5b60408051602081019091525f81525f82900361270e575060408051602081019091525f8152611312565b63125fa26760e31b61272083856132bc565b6001600160e01b0319161461274857604051632923fee760e11b815260040160405180910390fd5b61275582600481866132f2565b8101906127629190613319565b9392505050565b60607f92fd13387c7fe7befbc38d303d6468778fb9731bc4583f17d92989c6fcfdeaaa826040516024016127a291511515815260200190565b60408051601f198184030181529190526020810180516001600160e01b03166001600160e01b03199093169290921790915292915050565b5f612762838361298e565b5f5f6127f084612439565b60025491935091506001600160a01b03161580159061281757506001600160601b03821615155b1561285f5760025460405163a9059cbb60e01b81526001600160a01b0385811660048301526001600160601b038516602483015261285f92169063a9059cbb90604401610fd6565b61287283826001600160601b031661264d565b604080516001600160a01b03851681526001600160601b03808516602083015283169181019190915284907f8c74ce8b8cf87f5eb001275c8be27eb34ea2b62bfab6814fcc62192bb63e81c490606001611fa7565b5f611312825490565b5f61276283836129da565b336001600160a01b038216036129335760405162461bcd60e51b815260206004820152601760248201527f43616e6e6f74207472616e7366657220746f2073656c6600000000000000000060448201526064016110ca565b600180546001600160a01b0319166001600160a01b038381169182179092555f8054604051929316917fed8889f560326eb138920d842192f0eb3dd22b4f139c87a2c57538e05bae12789190a350565b5f6127628383612a00565b5f8181526001830160205260408120546129d357508154600181810184555f848152602080822090930184905584548482528286019093526040902091909155611312565b505f611312565b5f825f0182815481106129ef576129ef612f40565b905f5260205f200154905092915050565b5f8181526001830160205260408120548015612ada575f612a22600183612f9e565b85549091505f90612a3590600190612f9e565b9050818114612a94575f865f018281548110612a5357612a53612f40565b905f5260205f200154905080875f018481548110612a7357612a73612f40565b5f918252602080832090910192909255918252600188019052604090208390555b8554869080612aa557612aa5613291565b600190038181905f5260205f20015f90559055856001015f8681526020019081526020015f205f905560019350505050611312565b5f915050611312565b5092915050565b508054612af690612f08565b5f825580601f10612b05575050565b601f0160209004905f5260205f209081019061225f9190612b9b565b828054828255905f5260205f20908101928215612b74579160200282015b82811115612b7457825182546001600160a01b0319166001600160a01b03909116178255602090920191600190910190612b3f565b50612b80929150612b9b565b5090565b5080545f8255905f5260205f209081019061225f91905b5b80821115612b80575f8155600101612b9c565b6001600160a01b038116811461225f575f5ffd5b634e487b7160e01b5f52604160045260245ffd5b604051601f8201601f191681016001600160401b0381118282101715612bff57612bff612bc3565b604052919050565b5f5f5f60608486031215612c19575f5ffd5b833592506020840135612c2b81612baf565b915060408401356001600160401b03811115612c45575f5ffd5b8401601f81018613612c55575f5ffd5b80356001600160401b03811115612c6e57612c6e612bc3565b8060051b612c7e60208201612bd7565b91825260208184018101929081019089841115612c99575f5ffd5b6020850194505b83851015612cbf57843580835260209586019590935090910190612ca0565b80955050505050509250925092565b5f5f60408385031215612cdf575f5ffd5b823591506020830135612cf181612baf565b809150509250929050565b5f5f60408385031215612d0d575f5ffd5b50508035926020909101359150565b5f60208284031215612d2c575f5ffd5b813561276281612baf565b5f60208284031215612d47575f5ffd5b5035919050565b5f5f60408385031215612d5f575f5ffd5b8235612d6a81612baf565b91506020830135612cf181612baf565b5f60208284031215612d8a575f5ffd5b81356001600160401b03811115612d9f575f5ffd5b820160c08185031215612762575f5ffd5b5f5f5f5f60608587031215612dc3575f5ffd5b8435612dce81612baf565b93506020850135925060408501356001600160401b03811115612def575f5ffd5b8501601f81018713612dff575f5ffd5b80356001600160401b03811115612e14575f5ffd5b876020828401011115612e25575f5ffd5b949793965060200194505050565b5f8151808452602084019350602083015f5b82811015612e63578151865260209586019590910190600101612e45565b5093949350505050565b602081525f6127626020830184612e33565b6001600160601b03868116825285166020808301919091526001600160401b03851660408301526001600160a01b038416606083015260a06080830181905283519083018190525f9184019060c0840190835b81811015612ef95783516001600160a01b0316835260209384019390920191600101612ed2565b50909998505050505050505050565b600181811c90821680612f1c57607f821691505b602082108103612f3a57634e487b7160e01b5f52602260045260245ffd5b50919050565b634e487b7160e01b5f52603260045260245ffd5b828152604060208201525f612f6c6040830184612e33565b949350505050565b5f82518060208501845e5f920191825250919050565b634e487b7160e01b5f52601160045260245ffd5b8181038181111561131257611312612f8a565b808202811582820484141761131257611312612f8a565b8082018082111561131257611312612f8a565b5f82612ff557634e487b7160e01b5f52601260045260245ffd5b500490565b6001600160601b03818116838216019081111561131257611312612f8a565b6001600160601b03828116828216039081111561131257611312612f8a565b801515811461225f575f5ffd5b5f60208284031215613055575f5ffd5b815161276281613038565b5f6001820161307157613071612f8a565b5060010190565b5f5f8335601e1984360301811261308d575f5ffd5b8301803591506001600160401b038211156130a6575f5ffd5b6020019150368190038213156130ba575f5ffd5b9250929050565b5f602082840312156130d1575f5ffd5b813563ffffffff81168114612762575f5ffd5b601f82111561125e57805f5260205f20601f840160051c810160208510156131095750805b601f840160051c820191505b81811015613128575f8155600101613115565b5050505050565b81516001600160401b0381111561314857613148612bc3565b61315c816131568454612f08565b846130e4565b6020601f82116001811461318e575f83156131775750848201515b5f19600385901b1c1916600184901b178455613128565b5f84815260208120601f198516915b828110156131bd578785015182556020948501946001909201910161319d565b50848210156131da57868401515f19600387901b60f8161c191681555b50505050600190811b01905550565b5f602082840312156131f9575f5ffd5b813561ffff81168114612762575f5ffd5b86815285602082015261ffff8516604082015263ffffffff8416606082015263ffffffff8316608082015260c060a08201525f82518060c0840152806020850160e085015e5f60e0828501015260e0601f19601f830116840101915050979650505050505050565b6001600160401b03818116838216019081111561131257611312612f8a565b634e487b7160e01b5f52603160045260245ffd5b5f602082840312156132b5575f5ffd5b5051919050565b80356001600160e01b03198116906004841015612ae3576001600160e01b031960049490940360031b84901b1690921692915050565b5f5f85851115613300575f5ffd5b8386111561330c575f5ffd5b5050820193919092039150565b5f602082840312801561332a575f5ffd5b50604051602081016001600160401b038111828210171561334d5761334d612bc3565b604052823561335b81613038565b8152939250505056fea26469706673582212202918a60b395e3d1ebec236977c115dd7760b19adbc7b164b6bce016bfb8f36af64736f6c634300081b0033","linkReferences":{}},"methodIdentifiers":{"LINK()":"1b6b6d23","LINK_NATIVE_FEED()":"72e9d565","MAX_CONSUMERS()":"64d51a2a","acceptOwnership()":"79ba5097","acceptSubscriptionOwnerTransfer(uint256)":"b2a7cac5","addConsumer(uint256,address)":"bec4c08c","cancelSubscription(uint256,address)":"0ae09540","consumerIsAdded(uint256,address)":"953e9c75","createSubscription()":"a21a23e4","fulfillRandomWords(uint256,address)":"808974ff","fulfillRandomWordsWithOverride(uint256,address,uint256[])":"08e3898e","fundSubscription(uint256,uint256)":"115e3c0d","fundSubscriptionWithNative(uint256)":"95b55cfc","getActiveSubscriptionIds(uint256,uint256)":"aefb212f","getSubscription(uint256)":"dc311dd3","i_base_fee()":"1eebc117","i_gas_price()":"dcab3dcf","i_wei_per_unit_link()":"13478329","onTokenTransfer(address,uint256,bytes)":"a4c0ed36","owner()":"8da5cb5b","ownerCancelSubscription(uint256)":"aa433aff","pendingRequestExists(uint256)":"41af6c87","recoverFunds(address)":"e72f6e30","recoverNativeFunds(address)":"8402595e","removeConsumer(uint256,address)":"cb631797","requestRandomWords((bytes32,uint256,uint16,uint32,uint32,bytes))":"9b1c385e","requestSubscriptionOwnerTransfer(uint256,address)":"dac83d29","s_config()":"088070f5","s_currentSubNonce()":"9d40a6fd","s_totalBalance()":"86fe91c7","s_totalNativeBalance()":"18e3dd27","setConfig()":"8b673e7a","setLINKAndLINKNativeFeed(address,address)":"65982744","transferOwnership(address)":"f2fde38b","withdraw(address)":"51cff8d9","withdrawNative(address)":"2f622e6b"},"id":19}