{"abi":[{"type":"constructor","inputs":[{"name":"name","type":"string","internalType":"string"},{"name":"symbol","type":"string","internalType":"string"},{"name":"swETH","type":"address","internalType":"address"},{"name":"wETH","type":"address","internalType":"address"}],"stateMutability":"nonpayable"},{"type":"receive","stateMutability":"payable"},{"type":"function","name":"accruedRewards","inputs":[{"name":"","type":"address","internalType":"address"}],"outputs":[{"name":"rewardAmounts","type":"uint256[]","internalType":"uint256[]"}],"stateMutability":"pure"},{"type":"function","name":"allowance","inputs":[{"name":"owner","type":"address","internalType":"address"},{"name":"spender","type":"address","internalType":"address"}],"outputs":[{"name":"","type":"uint256","internalType":"uint256"}],"stateMutability":"view"},{"type":"function","name":"approve","inputs":[{"name":"spender","type":"address","internalType":"address"},{"name":"value","type":"uint256","internalType":"uint256"}],"outputs":[{"name":"","type":"bool","internalType":"bool"}],"stateMutability":"nonpayable"},{"type":"function","name":"assetInfo","inputs":[],"outputs":[{"name":"assetType","type":"uint8","internalType":"enum ISY.AssetType"},{"name":"assetAddress","type":"address","internalType":"address"},{"name":"assetDecimals","type":"uint8","internalType":"uint8"}],"stateMutability":"view"},{"type":"function","name":"balanceOf","inputs":[{"name":"account","type":"address","internalType":"address"}],"outputs":[{"name":"","type":"uint256","internalType":"uint256"}],"stateMutability":"view"},{"type":"function","name":"claimRewards","inputs":[{"name":"","type":"address","internalType":"address"}],"outputs":[{"name":"rewardAmounts","type":"uint256[]","internalType":"uint256[]"}],"stateMutability":"pure"},{"type":"function","name":"decimals","inputs":[],"outputs":[{"name":"","type":"uint8","internalType":"uint8"}],"stateMutability":"view"},{"type":"function","name":"deposit","inputs":[{"name":"receiver","type":"address","internalType":"address"},{"name":"tokenIn","type":"address","internalType":"address"},{"name":"amountTokenToDeposit","type":"uint256","internalType":"uint256"},{"name":"minSharesOut","type":"uint256","internalType":"uint256"}],"outputs":[{"name":"amountSharesOut","type":"uint256","internalType":"uint256"}],"stateMutability":"payable"},{"type":"function","name":"exchangeRate","inputs":[],"outputs":[{"name":"res","type":"uint256","internalType":"uint256"}],"stateMutability":"view"},{"type":"function","name":"getRewardTokens","inputs":[],"outputs":[{"name":"","type":"address[]","internalType":"address[]"}],"stateMutability":"pure"},{"type":"function","name":"getTokensIn","inputs":[],"outputs":[{"name":"res","type":"address[]","internalType":"address[]"}],"stateMutability":"view"},{"type":"function","name":"getTokensOut","inputs":[],"outputs":[{"name":"res","type":"address[]","internalType":"address[]"}],"stateMutability":"view"},{"type":"function","name":"isValidTokenIn","inputs":[{"name":"token","type":"address","internalType":"address"}],"outputs":[{"name":"","type":"bool","internalType":"bool"}],"stateMutability":"view"},{"type":"function","name":"isValidTokenOut","inputs":[{"name":"token","type":"address","internalType":"address"}],"outputs":[{"name":"","type":"bool","internalType":"bool"}],"stateMutability":"view"},{"type":"function","name":"name","inputs":[],"outputs":[{"name":"","type":"string","internalType":"string"}],"stateMutability":"view"},{"type":"function","name":"owner","inputs":[],"outputs":[{"name":"","type":"address","internalType":"address"}],"stateMutability":"view"},{"type":"function","name":"pause","inputs":[],"outputs":[],"stateMutability":"nonpayable"},{"type":"function","name":"paused","inputs":[],"outputs":[{"name":"","type":"bool","internalType":"bool"}],"stateMutability":"view"},{"type":"function","name":"previewDeposit","inputs":[{"name":"tokenIn","type":"address","internalType":"address"},{"name":"amountTokenToDeposit","type":"uint256","internalType":"uint256"}],"outputs":[{"name":"amountSharesOut","type":"uint256","internalType":"uint256"}],"stateMutability":"view"},{"type":"function","name":"previewRedeem","inputs":[{"name":"tokenOut","type":"address","internalType":"address"},{"name":"amountSharesToRedeem","type":"uint256","internalType":"uint256"}],"outputs":[{"name":"amountTokenOut","type":"uint256","internalType":"uint256"}],"stateMutability":"view"},{"type":"function","name":"redeem","inputs":[{"name":"receiver","type":"address","internalType":"address"},{"name":"amountSharesToRedeem","type":"uint256","internalType":"uint256"},{"name":"tokenOut","type":"address","internalType":"address"},{"name":"minTokenOut","type":"uint256","internalType":"uint256"},{"name":"burnFromInternalBalance","type":"bool","internalType":"bool"}],"outputs":[{"name":"amountTokenOut","type":"uint256","internalType":"uint256"}],"stateMutability":"nonpayable"},{"type":"function","name":"renounceOwnership","inputs":[],"outputs":[],"stateMutability":"nonpayable"},{"type":"function","name":"rewardIndexesCurrent","inputs":[],"outputs":[{"name":"indexes","type":"uint256[]","internalType":"uint256[]"}],"stateMutability":"pure"},{"type":"function","name":"rewardIndexesStored","inputs":[],"outputs":[{"name":"indexes","type":"uint256[]","internalType":"uint256[]"}],"stateMutability":"pure"},{"type":"function","name":"symbol","inputs":[],"outputs":[{"name":"","type":"string","internalType":"string"}],"stateMutability":"view"},{"type":"function","name":"totalSupply","inputs":[],"outputs":[{"name":"","type":"uint256","internalType":"uint256"}],"stateMutability":"view"},{"type":"function","name":"transfer","inputs":[{"name":"to","type":"address","internalType":"address"},{"name":"value","type":"uint256","internalType":"uint256"}],"outputs":[{"name":"","type":"bool","internalType":"bool"}],"stateMutability":"nonpayable"},{"type":"function","name":"transferFrom","inputs":[{"name":"from","type":"address","internalType":"address"},{"name":"to","type":"address","internalType":"address"},{"name":"value","type":"uint256","internalType":"uint256"}],"outputs":[{"name":"","type":"bool","internalType":"bool"}],"stateMutability":"nonpayable"},{"type":"function","name":"transferOwnership","inputs":[{"name":"newOwner","type":"address","internalType":"address"}],"outputs":[],"stateMutability":"nonpayable"},{"type":"function","name":"unpause","inputs":[],"outputs":[],"stateMutability":"nonpayable"},{"type":"function","name":"yieldToken","inputs":[],"outputs":[{"name":"","type":"address","internalType":"address"}],"stateMutability":"view"},{"type":"event","name":"Approval","inputs":[{"name":"owner","type":"address","indexed":true,"internalType":"address"},{"name":"spender","type":"address","indexed":true,"internalType":"address"},{"name":"value","type":"uint256","indexed":false,"internalType":"uint256"}],"anonymous":false},{"type":"event","name":"ClaimRewards","inputs":[{"name":"user","type":"address","indexed":true,"internalType":"address"},{"name":"rewardTokens","type":"address[]","indexed":false,"internalType":"address[]"},{"name":"rewardAmounts","type":"uint256[]","indexed":false,"internalType":"uint256[]"}],"anonymous":false},{"type":"event","name":"Deposit","inputs":[{"name":"caller","type":"address","indexed":true,"internalType":"address"},{"name":"receiver","type":"address","indexed":true,"internalType":"address"},{"name":"tokenIn","type":"address","indexed":true,"internalType":"address"},{"name":"amountDeposited","type":"uint256","indexed":false,"internalType":"uint256"},{"name":"amountSYOut","type":"uint256","indexed":false,"internalType":"uint256"}],"anonymous":false},{"type":"event","name":"OwnershipTransferred","inputs":[{"name":"previousOwner","type":"address","indexed":true,"internalType":"address"},{"name":"newOwner","type":"address","indexed":true,"internalType":"address"}],"anonymous":false},{"type":"event","name":"Paused","inputs":[{"name":"account","type":"address","indexed":false,"internalType":"address"}],"anonymous":false},{"type":"event","name":"Redeem","inputs":[{"name":"caller","type":"address","indexed":true,"internalType":"address"},{"name":"receiver","type":"address","indexed":true,"internalType":"address"},{"name":"tokenOut","type":"address","indexed":true,"internalType":"address"},{"name":"amountSYToRedeem","type":"uint256","indexed":false,"internalType":"uint256"},{"name":"amountTokenOut","type":"uint256","indexed":false,"internalType":"uint256"}],"anonymous":false},{"type":"event","name":"Transfer","inputs":[{"name":"from","type":"address","indexed":true,"internalType":"address"},{"name":"to","type":"address","indexed":true,"internalType":"address"},{"name":"value","type":"uint256","indexed":false,"internalType":"uint256"}],"anonymous":false},{"type":"event","name":"Unpaused","inputs":[{"name":"account","type":"address","indexed":false,"internalType":"address"}],"anonymous":false},{"type":"error","name":"AddressEmptyCode","inputs":[{"name":"target","type":"address","internalType":"address"}]},{"type":"error","name":"AddressInsufficientBalance","inputs":[{"name":"account","type":"address","internalType":"address"}]},{"type":"error","name":"ERC20InsufficientAllowance","inputs":[{"name":"spender","type":"address","internalType":"address"},{"name":"allowance","type":"uint256","internalType":"uint256"},{"name":"needed","type":"uint256","internalType":"uint256"}]},{"type":"error","name":"ERC20InsufficientBalance","inputs":[{"name":"sender","type":"address","internalType":"address"},{"name":"balance","type":"uint256","internalType":"uint256"},{"name":"needed","type":"uint256","internalType":"uint256"}]},{"type":"error","name":"ERC20InvalidApprover","inputs":[{"name":"approver","type":"address","internalType":"address"}]},{"type":"error","name":"ERC20InvalidReceiver","inputs":[{"name":"receiver","type":"address","internalType":"address"}]},{"type":"error","name":"ERC20InvalidSender","inputs":[{"name":"sender","type":"address","internalType":"address"}]},{"type":"error","name":"ERC20InvalidSpender","inputs":[{"name":"spender","type":"address","internalType":"address"}]},{"type":"error","name":"EnforcedPause","inputs":[]},{"type":"error","name":"ExpectedPause","inputs":[]},{"type":"error","name":"FailedInnerCall","inputs":[]},{"type":"error","name":"OwnableInvalidOwner","inputs":[{"name":"owner","type":"address","internalType":"address"}]},{"type":"error","name":"OwnableUnauthorizedAccount","inputs":[{"name":"account","type":"address","internalType":"address"}]},{"type":"error","name":"ReentrancyGuardReentrantCall","inputs":[]},{"type":"error","name":"SYInsufficientSharesOut","inputs":[{"name":"actualSharesOut","type":"uint256","internalType":"uint256"},{"name":"requiredSharesOut","type":"uint256","internalType":"uint256"}]},{"type":"error","name":"SY__InsufficientTokenOut","inputs":[{"name":"actualTokenOut","type":"uint256","internalType":"uint256"},{"name":"requiredTokenOut","type":"uint256","internalType":"uint256"}]},{"type":"error","name":"SY__InvalidTokenIn","inputs":[{"name":"token","type":"address","internalType":"address"}]},{"type":"error","name":"SY__InvalidTokenOut","inputs":[{"name":"token","type":"address","internalType":"address"}]},{"type":"error","name":"SY__ZeroDeposit","inputs":[]},{"type":"error","name":"SY__ZeroRedeem","inputs":[]},{"type":"error","name":"SafeERC20FailedOperation","inputs":[{"name":"token","type":"address","internalType":"address"}]}],"bytecode":{"object":"0x60e060405234801561000f575f5ffd5b50604051611b35380380611b3583398101604081905261002e916101c1565b838383338383600361004083826102ca565b50600461004d82826102ca565b50506005805460ff191690555060016006556001600160a01b03811661008c57604051631e4fbdf760e01b81525f600482015260240160405180910390fd5b610095816100b8565b506001600160a01b0390811660805293841660a05250501660c052506103849050565b600780546001600160a01b038381166001600160a01b0319831681179093556040519116919082907f8be0079c531659141344cd1fd0a4f28419497f9722a3daafe3b4186f6b6457e0905f90a35050565b634e487b7160e01b5f52604160045260245ffd5b5f82601f83011261012c575f5ffd5b81516001600160401b0381111561014557610145610109565b604051601f8201601f19908116603f011681016001600160401b038111828210171561017357610173610109565b60405281815283820160200185101561018a575f5ffd5b8160208501602083015e5f918101602001919091529392505050565b80516001600160a01b03811681146101bc575f5ffd5b919050565b5f5f5f5f608085870312156101d4575f5ffd5b84516001600160401b038111156101e9575f5ffd5b6101f58782880161011d565b602087015190955090506001600160401b03811115610212575f5ffd5b61021e8782880161011d565b93505061022d604086016101a6565b915061023b606086016101a6565b905092959194509250565b600181811c9082168061025a57607f821691505b60208210810361027857634e487b7160e01b5f52602260045260245ffd5b50919050565b601f8211156102c557805f5260205f20601f840160051c810160208510156102a35750805b601f840160051c820191505b818110156102c2575f81556001016102af565b50505b505050565b81516001600160401b038111156102e3576102e3610109565b6102f7816102f18454610246565b8461027e565b6020601f821160018114610329575f83156103125750848201515b5f19600385901b1c1916600184901b1784556102c2565b5f84815260208120601f198516915b828110156103585787850151825560209485019460019092019101610338565b508482101561037557868401515f19600387901b60f8161c191681555b50505050600190811b01905550565b60805160a05160c05161176b6103ca5f395f81816109e20152610a0301525f818161061b015281816107cf0152818161098d0152610e1401525f6103a8015261176b5ff3fe6080604052600436106101d3575f3560e01c806376d5de85116100fd578063c4f59f9b11610092578063ef5cfb8c11610062578063ef5cfb8c14610258578063f2fde38b14610548578063f8b2f991146104e5578063fa5a4f06146103e2575f5ffd5b8063c4f59f9b146104a7578063cbe52ae3146104c6578063da88ecb4146104e5578063dd62ed3e14610504575f5ffd5b806395d89b41116100cd57806395d89b4114610432578063a40bee5014610446578063a9059cbb14610469578063b8f82b2614610488575f5ffd5b806376d5de8514610397578063784367d6146103e25780638456cb59146104015780638da5cb5b14610415575f5ffd5b806323b872dd116101735780635c975abb116101435780635c975abb1461031957806370a0823114610330578063715018a614610364578063769f8e5d14610378575f5ffd5b806323b872dd146102b5578063313ce567146102d45780633ba0b9a9146102ef5780633f4ba83a14610303575f5ffd5b8063128fced1116101ae578063128fced11461025857806318160ddd1461028457806320e8c565146102a2578063213cae6314610208575f5ffd5b806306fdde03146101de578063071bc3c914610208578063095ea7b314610229575f5ffd5b366101da57005b5f5ffd5b3480156101e9575f5ffd5b506101f2610567565b6040516101ff9190611407565b60405180910390f35b348015610213575f5ffd5b5061021c6105f7565b6040516101ff919061143c565b348015610234575f5ffd5b506102486102433660046114a2565b61066f565b60405190151581526020016101ff565b348015610263575f5ffd5b506102776102723660046114ca565b610688565b6040516101ff91906114e3565b34801561028f575f5ffd5b506002545b6040519081526020016101ff565b6102946102b036600461151a565b6106a2565b3480156102c0575f5ffd5b506102486102cf366004611559565b6107a7565b3480156102df575f5ffd5b50604051601281526020016101ff565b3480156102fa575f5ffd5b506102946107cc565b34801561030e575f5ffd5b50610317610852565b005b348015610324575f5ffd5b5060055460ff16610248565b34801561033b575f5ffd5b5061029461034a3660046114ca565b6001600160a01b03165f9081526020819052604090205490565b34801561036f575f5ffd5b50610317610864565b348015610383575f5ffd5b506102946103923660046115a0565b610875565b3480156103a2575f5ffd5b506103ca7f000000000000000000000000000000000000000000000000000000000000000081565b6040516001600160a01b0390911681526020016101ff565b3480156103ed575f5ffd5b506102486103fc3660046114ca565b61098b565b34801561040c575f5ffd5b506103176109bd565b348015610420575f5ffd5b506007546001600160a01b03166103ca565b34801561043d575f5ffd5b506101f26109cd565b348015610451575f5ffd5b5061045a6109dc565b6040516101ff939291906115f7565b348015610474575f5ffd5b506102486104833660046114a2565b610a8c565b348015610493575f5ffd5b506102946104a23660046114a2565b610a99565b3480156104b2575f5ffd5b50604080515f81526020810190915261021c565b3480156104d1575f5ffd5b506102946104e03660046114a2565b610ad9565b3480156104f0575f5ffd5b50604080515f815260208101909152610277565b34801561050f575f5ffd5b5061029461051e366004611637565b6001600160a01b039182165f90815260016020908152604080832093909416825291909152205490565b348015610553575f5ffd5b506103176105623660046114ca565b610b1a565b60606003805461057690611668565b80601f01602080910402602001604051908101604052809291908181526020018280546105a290611668565b80156105ed5780601f106105c4576101008083540402835291602001916105ed565b820191905f5260205f20905b8154815290600101906020018083116105d057829003601f168201915b5050505050905090565b604080516001808252818301909252606091602080830190803683370190505090507f0000000000000000000000000000000000000000000000000000000000000000815f8151811061064c5761064c61169a565b60200260200101906001600160a01b031690816001600160a01b03168152505090565b5f3361067c818585610b57565b60019150505b92915050565b604080515f808252602082019092526060915b5092915050565b5f6106ab610b69565b6106b48461098b565b84906106e4576040516350cf924b60e11b81526001600160a01b0390911660048201526024015b60405180910390fd5b505f831161070557604051631dba1a5b60e11b815260040160405180910390fd5b610710843385610b93565b508180828082101561073e57604051635e38f95d60e11b8152600481019290925260248201526044016106db565b505061074a8582610bfa565b60408051848152602081018390526001600160a01b03808716929088169133917f5fe47ed6d4225326d3303476197d782ded5a4e9c14f479dc9ec4992af4e85d59910160405180910390a461079f6001600655565b949350505050565b5f336107b4858285610c32565b6107bf858585610cad565b60019150505b9392505050565b5f7f00000000000000000000000000000000000000000000000000000000000000006001600160a01b031663679aefce6040518163ffffffff1660e01b8152600401602060405180830381865afa158015610829573d5f5f3e3d5ffd5b505050506040513d601f19601f8201168201806040525081019061084d91906116ae565b905090565b61085a610d0a565b610862610d37565b565b61086c610d0a565b6108625f610d89565b5f61087e610b69565b6108878461098b565b84906108b257604051636c29ff9160e11b81526001600160a01b0390911660048201526024016106db565b505f85116108d3576040516383e3821b60e01b815260040160405180910390fd5b81156108e8576108e33086610dda565b6108f2565b6108f23386610dda565b6108fd868587610e0e565b905080838082101561092b57604051631c6fde1b60e21b8152600481019290925260248201526044016106db565b505060408051868152602081018390526001600160a01b03808716929089169133917faee47cdf925cf525fdae94f9777ee5a06cac37e1c41220d0a8a89ed154f62d1c910160405180910390a46109826001600655565b95945050505050565b7f00000000000000000000000000000000000000000000000000000000000000006001600160a01b0390811691161490565b6109c5610d0a565b610862610e3a565b60606004805461057690611668565b5f5f5f5f7f00000000000000000000000000000000000000000000000000000000000000007f00000000000000000000000000000000000000000000000000000000000000006001600160a01b031663313ce5676040518163ffffffff1660e01b8152600401602060405180830381865afa158015610a5d573d5f5f3e3d5ffd5b505050506040513d601f19601f82011682018060405250810190610a8191906116c5565b925092509250909192565b5f3361067c818585610cad565b5f610aa38361098b565b8390610ace576040516350cf924b60e11b81526001600160a01b0390911660048201526024016106db565b506107c58383610e77565b5f610ae38361098b565b158390610b0f57604051636c29ff9160e11b81526001600160a01b0390911660048201526024016106db565b506107c58383610ec5565b610b22610d0a565b6001600160a01b038116610b4b57604051631e4fbdf760e01b81525f60048201526024016106db565b610b5481610d89565b50565b610b648383836001610f0e565b505050565b600260065403610b8c57604051633ee5aeb560e01b815260040160405180910390fd5b6002600655565b6001600160a01b038316610bdf57803414610b645760405162461bcd60e51b815260206004820152600c60248201526b0cae8d040dad2e6dac2e8c6d60a31b60448201526064016106db565b8015610b6457610b646001600160a01b038416833084610fe0565b6001600160a01b038216610c235760405163ec442f0560e01b81525f60048201526024016106db565b610c2e5f8383611047565b5050565b6001600160a01b038381165f908152600160209081526040808320938616835292905220545f198114610ca75781811015610c9957604051637dc7a0d960e11b81526001600160a01b038416600482015260248101829052604481018390526064016106db565b610ca784848484035f610f0e565b50505050565b6001600160a01b038316610cd657604051634b637e8f60e11b81525f60048201526024016106db565b6001600160a01b038216610cff5760405163ec442f0560e01b81525f60048201526024016106db565b610b64838383611047565b6007546001600160a01b031633146108625760405163118cdaa760e01b81523360048201526024016106db565b610d3f61116d565b6005805460ff191690557f5db9ee0a495bf2e6ff9c91a7834c1ba4fdd244a5e8aa4e537bd38aeae4b073aa335b6040516001600160a01b03909116815260200160405180910390a1565b600780546001600160a01b038381166001600160a01b0319831681179093556040519116919082907f8be0079c531659141344cd1fd0a4f28419497f9722a3daafe3b4186f6b6457e0905f90a35050565b6001600160a01b038216610e0357604051634b637e8f60e11b81525f60048201526024016106db565b610c2e825f83611047565b5f61069b7f00000000000000000000000000000000000000000000000000000000000000008584611190565b610e4261124f565b6005805460ff191660011790557f62e78cea01bee320cd4e420270b5ea74000d11b0c9f74754ebdbfc544b05a258610d6c3390565b5f610e818361098b565b610ebf5760405162461bcd60e51b815260206004820152600f60248201526e24b73b30b634b2102a37b5b2b724b760891b60448201526064016106db565b50919050565b5f610ecf8361098b565b610ebf5760405162461bcd60e51b815260206004820152601060248201526f125b9d985b1a5908151bdad95b93dd5d60821b60448201526064016106db565b6001600160a01b038416610f375760405163e602df0560e01b81525f60048201526024016106db565b6001600160a01b038316610f6057604051634a1406b160e11b81525f60048201526024016106db565b6001600160a01b038085165f9081526001602090815260408083209387168352929052208290558015610ca757826001600160a01b0316846001600160a01b03167f8c5be1e5ebec7d5bd14f71427d1e84f3dd0314c0f7b2291e5b200ac8c7c3b92584604051610fd291815260200190565b60405180910390a350505050565b6040516001600160a01b038481166024830152838116604483015260648201839052610ca79186918216906323b872dd906084015b604051602081830303815290604052915060e01b6020820180516001600160e01b038381831617835250505050611273565b6001600160a01b038316611071578060025f82825461106691906116e5565b909155506110e19050565b6001600160a01b0383165f90815260208190526040902054818110156110c35760405163391434e360e21b81526001600160a01b038516600482015260248101829052604481018390526064016106db565b6001600160a01b0384165f9081526020819052604090209082900390555b6001600160a01b0382166110fd5760028054829003905561111b565b6001600160a01b0382165f9081526020819052604090208054820190555b816001600160a01b0316836001600160a01b03167fddf252ad1be2c89b69c2b068fc378daa952ba7f163c4a11628f55a4df523b3ef8360405161116091815260200190565b60405180910390a3505050565b60055460ff1661086257604051638dfc202b60e01b815260040160405180910390fd5b805f0361119c57505050565b6001600160a01b03831661123b575f826001600160a01b0316826040515f6040518083038185875af1925050503d805f81146111f3576040519150601f19603f3d011682016040523d82523d5f602084013e6111f8565b606091505b5050905080610ca75760405162461bcd60e51b815260206004820152600f60248201526e195d1a081cd95b990819985a5b1959608a1b60448201526064016106db565b610b646001600160a01b03841683836112d4565b60055460ff16156108625760405163d93c066560e01b815260040160405180910390fd5b5f6112876001600160a01b03841683611305565b905080515f141580156112ab5750808060200190518101906112a99190611704565b155b15610b6457604051635274afe760e01b81526001600160a01b03841660048201526024016106db565b6040516001600160a01b03838116602483015260448201839052610b6491859182169063a9059cbb90606401611015565b60606107c583835f845f5f856001600160a01b03168486604051611329919061171f565b5f6040518083038185875af1925050503d805f8114611363576040519150601f19603f3d011682016040523d82523d5f602084013e611368565b606091505b5091509150611378868383611382565b9695505050505050565b60608261139757611392826113de565b6107c5565b81511580156113ae57506001600160a01b0384163b155b156113d757604051639996b31560e01b81526001600160a01b03851660048201526024016106db565b50806107c5565b8051156113ee5780518082602001fd5b604051630a12f52160e11b815260040160405180910390fd5b602081525f82518060208401528060208501604085015e5f604082850101526040601f19601f83011684010191505092915050565b602080825282518282018190525f918401906040840190835b8181101561147c5783516001600160a01b0316835260209384019390920191600101611455565b509095945050505050565b80356001600160a01b038116811461149d575f5ffd5b919050565b5f5f604083850312156114b3575f5ffd5b6114bc83611487565b946020939093013593505050565b5f602082840312156114da575f5ffd5b6107c582611487565b602080825282518282018190525f918401906040840190835b8181101561147c5783518352602093840193909201916001016114fc565b5f5f5f5f6080858703121561152d575f5ffd5b61153685611487565b935061154460208601611487565b93969395505050506040820135916060013590565b5f5f5f6060848603121561156b575f5ffd5b61157484611487565b925061158260208501611487565b929592945050506040919091013590565b8015158114610b54575f5ffd5b5f5f5f5f5f60a086880312156115b4575f5ffd5b6115bd86611487565b9450602086013593506115d260408701611487565b92506060860135915060808601356115e981611593565b809150509295509295909350565b606081016002851061161757634e487b7160e01b5f52602160045260245ffd5b9381526001600160a01b0392909216602083015260ff1660409091015290565b5f5f60408385031215611648575f5ffd5b61165183611487565b915061165f60208401611487565b90509250929050565b600181811c9082168061167c57607f821691505b602082108103610ebf57634e487b7160e01b5f52602260045260245ffd5b634e487b7160e01b5f52603260045260245ffd5b5f602082840312156116be575f5ffd5b5051919050565b5f602082840312156116d5575f5ffd5b815160ff811681146107c5575f5ffd5b8082018082111561068257634e487b7160e01b5f52601160045260245ffd5b5f60208284031215611714575f5ffd5b81516107c581611593565b5f82518060208501845e5f92019182525091905056fea2646970667358221220fb7d61afb5edf5621dfee35109ae9e5dd2c4a7ac5cd6741ad9ff2aa371d15bd764736f6c634300081b0033","linkReferences":{}},"methodIdentifiers":{"accruedRewards(address)":"128fced1","allowance(address,address)":"dd62ed3e","approve(address,uint256)":"095ea7b3","assetInfo()":"a40bee50","balanceOf(address)":"70a08231","claimRewards(address)":"ef5cfb8c","decimals()":"313ce567","deposit(address,address,uint256,uint256)":"20e8c565","exchangeRate()":"3ba0b9a9","getRewardTokens()":"c4f59f9b","getTokensIn()":"213cae63","getTokensOut()":"071bc3c9","isValidTokenIn(address)":"fa5a4f06","isValidTokenOut(address)":"784367d6","name()":"06fdde03","owner()":"8da5cb5b","pause()":"8456cb59","paused()":"5c975abb","previewDeposit(address,uint256)":"b8f82b26","previewRedeem(address,uint256)":"cbe52ae3","redeem(address,uint256,address,uint256,bool)":"769f8e5d","renounceOwnership()":"715018a6","rewardIndexesCurrent()":"f8b2f991","rewardIndexesStored()":"da88ecb4","symbol()":"95d89b41","totalSupply()":"18160ddd","transfer(address,uint256)":"a9059cbb","transferFrom(address,address,uint256)":"23b872dd","transferOwnership(address)":"f2fde38b","unpause()":"3f4ba83a","yieldToken()":"76d5de85"},"id":86}