{"abi":[{"type":"function","name":"CYCLE_DEPOSIT_DURATION_PERCENTAGE","inputs":[],"outputs":[{"name":"","type":"uint256","internalType":"uint256"}],"stateMutability":"view"},{"type":"function","name":"MAX_POOL_DURATION","inputs":[],"outputs":[{"name":"","type":"uint256","internalType":"uint256"}],"stateMutability":"view"},{"type":"function","name":"MIN_CYCLE_DURATION","inputs":[],"outputs":[{"name":"","type":"uint256","internalType":"uint256"}],"stateMutability":"view"},{"type":"function","name":"MIN_START_INTERVAL","inputs":[],"outputs":[{"name":"","type":"uint256","internalType":"uint256"}],"stateMutability":"view"},{"type":"function","name":"MIN_TOTAL_CYCLES","inputs":[],"outputs":[{"name":"","type":"uint256","internalType":"uint256"}],"stateMutability":"view"},{"type":"function","name":"PERCENTAGE_DECIMALS","inputs":[],"outputs":[{"name":"","type":"uint256","internalType":"uint256"}],"stateMutability":"view"},{"type":"function","name":"addMultiValidSYCollateralTokens","inputs":[{"name":"syCollateralTokens","type":"address[]","internalType":"address[]"}],"outputs":[],"stateMutability":"nonpayable"},{"type":"function","name":"addValidSYCollateralToken","inputs":[{"name":"syCollateralToken","type":"address","internalType":"address"}],"outputs":[],"stateMutability":"nonpayable"},{"type":"function","name":"createSpiralPool","inputs":[{"name":"baseToken","type":"address","internalType":"address"},{"name":"amountCycle","type":"uint256","internalType":"uint256"},{"name":"cycleDuration","type":"uint256","internalType":"uint256"},{"name":"totalCycles","type":"uint256","internalType":"uint256"},{"name":"startInterval","type":"uint256","internalType":"uint256"}],"outputs":[{"name":"pool","type":"address","internalType":"address"}],"stateMutability":"nonpayable"},{"type":"function","name":"getBaseTokens","inputs":[],"outputs":[{"name":"","type":"address[]","internalType":"address[]"}],"stateMutability":"view"},{"type":"function","name":"getSpiralPoolsForBaseToken","inputs":[{"name":"baseToken","type":"address","internalType":"address"}],"outputs":[{"name":"","type":"address[]","internalType":"address[]"}],"stateMutability":"view"},{"type":"function","name":"getValidCollateralTokensForBaseToken","inputs":[{"name":"baseToken","type":"address","internalType":"address"}],"outputs":[{"name":"","type":"tuple[]","internalType":"struct CollateralToken[]","components":[{"name":"SY","type":"address","internalType":"address"},{"name":"correspondingYbt","type":"address","internalType":"address"}]}],"stateMutability":"view"},{"type":"function","name":"owner","inputs":[],"outputs":[{"name":"","type":"address","internalType":"address"}],"stateMutability":"view"},{"type":"function","name":"renounceOwnership","inputs":[],"outputs":[],"stateMutability":"nonpayable"},{"type":"function","name":"transferOwnership","inputs":[{"name":"newOwner","type":"address","internalType":"address"}],"outputs":[],"stateMutability":"nonpayable"},{"type":"event","name":"OwnershipTransferred","inputs":[{"name":"previousOwner","type":"address","indexed":true,"internalType":"address"},{"name":"newOwner","type":"address","indexed":true,"internalType":"address"}],"anonymous":false},{"type":"event","name":"PoolCreated","inputs":[{"name":"pool","type":"address","indexed":true,"internalType":"address"}],"anonymous":false},{"type":"error","name":"OwnableInvalidOwner","inputs":[{"name":"owner","type":"address","internalType":"address"}]},{"type":"error","name":"OwnableUnauthorizedAccount","inputs":[{"name":"account","type":"address","internalType":"address"}]},{"type":"error","name":"SpiralPoolFactory__AmountCycleCannotBeZero","inputs":[]},{"type":"error","name":"SpiralPoolFactory__CycleDurationTooLow","inputs":[{"name":"minCycleDuration","type":"uint256","internalType":"uint256"},{"name":"inputCycleDuration","type":"uint256","internalType":"uint256"}]},{"type":"error","name":"SpiralPoolFactory__PoolDurationTooHigh","inputs":[{"name":"maxPoolDuration","type":"uint256","internalType":"uint256"},{"name":"inputPoolDuration","type":"uint256","internalType":"uint256"}]},{"type":"error","name":"SpiralPoolFactory__StartIntervalTooLow","inputs":[{"name":"minStartInterval","type":"uint256","internalType":"uint256"},{"name":"inputStartInterval","type":"uint256","internalType":"uint256"}]},{"type":"error","name":"SpiralPoolFactory__TotalCyclesTooLow","inputs":[{"name":"minTotalCycles","type":"uint256","internalType":"uint256"},{"name":"inputTotalCycles","type":"uint256","internalType":"uint256"}]},{"type":"error","name":"SpiralPoolFactory__UnSupportedBaseToken","inputs":[]}],"bytecode":{"object":"0x6080604052348015600f57600080fd5b503380603557604051631e4fbdf760e01b81526000600482015260240160405180910390fd5b603c816041565b506091565b600080546001600160a01b038381166001600160a01b0319831681178455604051919092169283917f8be0079c531659141344cd1fd0a4f28419497f9722a3daafe3b4186f6b6457e09190a35050565b613bd2806100a06000396000f3fe608060405234801561001057600080fd5b50600436106100f55760003560e01c80639070642511610097578063b18e7d5211610066578063b18e7d52146101c4578063bed64c2f146101e4578063f2fde38b146101ec578063f704d19b146101ff57600080fd5b806390706425146101965780639623daa51461019e5780639a9935b3146101a65780639e851a81146101b157600080fd5b80635bb2111a116100d35780635bb2111a14610155578063715018a61461015d57806381fcf1c1146101655780638da5cb5b1461018557600080fd5b8063135ec69c146100fa5780633778331c14610115578063454cadad14610140575b600080fd5b610102601981565b6040519081526020015b60405180910390f35b6101286101233660046108d5565b610207565b6040516001600160a01b03909116815260200161010c565b61015361014e366004610919565b61037d565b005b610102600081565b61015361052e565b610178610173366004610919565b610542565b60405161010c919061093d565b6000546001600160a01b0316610128565b610102606481565b610102603c81565b6101026301e1338081565b6101536101bf36600461099f565b6105b8565b6101d76101d2366004610919565b610600565b60405161010c9190610ac3565b61017861068e565b6101536101fa366004610919565b6106f0565b610102600281565b6001600160a01b038516600090815260026020908152604080832080548251818502810185019093528083528493849084015b82821015610285576000848152602090819020604080518082019091526002850290910180546001600160a01b0390811683526001918201541682840152908352909201910161023a565b505050509050610299815187878787610733565b60006102a58442610aec565b9050600060646102b6601989610b05565b6102c09190610b1c565b9050600089848a8a858b886040516102d7906108a3565b6102e79796959493929190610b3e565b604051809103906000f080158015610303573d6000803e3d6000fd5b506001600160a01b038b81166000908152600360209081526040808320805460018101825590845291832090910180546001600160a01b03191693851693841790555192935083927f83a48fbcfc991335314e74d0496aab6a1987e992ddc85dddbcc4d6dd6ef2e9fc9190a2509998505050505050505050565b610385610826565b6000816001600160a01b031663a40bee506040518163ffffffff1660e01b8152600401606060405180830381865afa1580156103c5573d6000803e3d6000fd5b505050506040513d601f19601f820116820180604052508101906103e99190610b8c565b509150506000826001600160a01b03166376d5de856040518163ffffffff1660e01b8152600401602060405180830381865afa15801561042d573d6000803e3d6000fd5b505050506040513d601f19601f820116820180604052508101906104519190610be3565b6001600160a01b038316600090815260026020526040812054919250036104bd576001805480820182556000919091527fb10e2d527612073b26eecdfd717e6a320cf44b4afac2b0732d9fcbe2b7fa0cf60180546001600160a01b0319166001600160a01b0384161790555b6001600160a01b03918216600090815260026020818152604080842081518083019092529686168152938516848201908152865460018181018955978552919093209351910290920180549284166001600160a01b0319938416178155905193018054939092169216919091179055565b610536610826565b6105406000610853565b565b6001600160a01b0381166000908152600360209081526040918290208054835181840281018401909452808452606093928301828280156105ac57602002820191906000526020600020905b81546001600160a01b0316815260019091019060200180831161058e575b50505050509050919050565b6105c0610826565b60005b81518110156105fc5760008282815181106105e0576105e0610c00565b602002602001015190506105f38161037d565b506001016105c3565b5050565b6001600160a01b0381166000908152600260209081526040808320805482518185028101850190935280835260609492939192909184015b82821015610683576000848152602090819020604080518082019091526002850290910180546001600160a01b03908116835260019182015416828401529083529092019101610638565b505050509050919050565b606060018054806020026020016040519081016040528092919081815260200182805480156106e657602002820191906000526020600020905b81546001600160a01b031681526001909101906020018083116106c8575b5050505050905090565b6106f8610826565b6001600160a01b03811661072757604051631e4fbdf760e01b8152600060048201526024015b60405180910390fd5b61073081610853565b50565b8460000361075457604051635a81738160e01b815260040160405180910390fd5b600084116107755760405163479c4b9360e01b815260040160405180910390fd5b603c83818110156107a257604051631cdceacb60e11b81526004810192909252602482015260440161071e565b506002905082818110156107d257604051635680551360e01b81526004810192909252602482015260440161071e565b506301e1338090506107e48385610b05565b11156301e133806107f58486610b05565b909161081d576040516315e9fbe960e01b81526004810192909252602482015260440161071e565b50505050505050565b6000546001600160a01b031633146105405760405163118cdaa760e01b815233600482015260240161071e565b600080546001600160a01b038381166001600160a01b0319831681178455604051919092169283917f8be0079c531659141344cd1fd0a4f28419497f9722a3daafe3b4186f6b6457e09190a35050565b612f8680610c1783390190565b6001600160a01b038116811461073057600080fd5b80356108d0816108b0565b919050565b600080600080600060a086880312156108ed57600080fd5b85356108f8816108b0565b97602087013597506040870135966060810135965060800135945092505050565b60006020828403121561092b57600080fd5b8135610936816108b0565b9392505050565b602080825282518282018190526000918401906040840190835b8181101561097e5783516001600160a01b0316835260209384019390920191600101610957565b509095945050505050565b634e487b7160e01b600052604160045260246000fd5b6000602082840312156109b157600080fd5b813567ffffffffffffffff8111156109c857600080fd5b8201601f810184136109d957600080fd5b803567ffffffffffffffff8111156109f3576109f3610989565b8060051b604051601f19603f830116810181811067ffffffffffffffff82111715610a2057610a20610989565b604052918252602081840181019290810187841115610a3e57600080fd5b6020850194505b83851015610a6457610a56856108c5565b815260209485019401610a45565b509695505050505050565b600081518084526020840193506020830160005b82811015610ab957815180516001600160a01b039081168852602091820151168188015260409096019590910190600101610a83565b5093949350505050565b6020815260006109366020830184610a6f565b634e487b7160e01b600052601160045260246000fd5b80820180821115610aff57610aff610ad6565b92915050565b8082028115828204841417610aff57610aff610ad6565b600082610b3957634e487b7160e01b600052601260045260246000fd5b500490565b6001600160a01b038816815260e060208201819052600090610b6290830189610a6f565b6040830197909752506060810194909452608084019290925260a083015260c09091015292915050565b600080600060608486031215610ba157600080fd5b835160028110610bb057600080fd5b6020850151909350610bc1816108b0565b604085015190925060ff81168114610bd857600080fd5b809150509250925092565b600060208284031215610bf557600080fd5b8151610936816108b0565b634e487b7160e01b600052603260045260246000fdfe6101a060405234801561001157600080fd5b50604051612f86380380612f86833981016040819052610030916101e1565b604051806040016040528060038152602001623c3cbd60e91b815250604051806040016040528060038152602001620f4f2f60eb1b815250838282816000908161007a91906103b1565b50600161008782826103b1565b50505060805250506001600160a01b03871660a05260005b86518110156101075760008782815181106100bc576100bc61046f565b6020908102919091018101518082015190516001600160a01b0390811660009081526007909352604090922080546001600160a01b031916929091169190911790555060010161009f565b5060e0859052610117828661049b565b60c05261010084905261014082905261012083905261016081905261013c828561049b565b61014690826104b8565b61018052506104cb95505050505050565b80516001600160a01b038116811461016e57600080fd5b919050565b634e487b7160e01b600052604160045260246000fd5b604080519081016001600160401b03811182821017156101ab576101ab610173565b60405290565b604051601f8201601f191681016001600160401b03811182821017156101d9576101d9610173565b604052919050565b600080600080600080600060e0888a0312156101fc57600080fd5b61020588610157565b60208901519097506001600160401b0381111561022157600080fd5b8801601f81018a1361023257600080fd5b80516001600160401b0381111561024b5761024b610173565b61025a60208260051b016101b1565b8082825260208201915060208360061b85010192508c83111561027c57600080fd5b6020840193505b828410156102d4576040848e03121561029b57600080fd5b6102a3610189565b6102ac85610157565b81526102ba60208601610157565b602082015280835250602082019150604084019350610283565b80995050505050600060408901519050809550506000606089015190508094505060006080890151905080935050600060a0890151905080925050600060c089015190508091505092959891949750929550565b600181811c9082168061033c57607f821691505b60208210810361035c57634e487b7160e01b600052602260045260246000fd5b50919050565b601f8211156103ac57806000526020600020601f840160051c810160208510156103895750805b601f840160051c820191505b818110156103a95760008155600101610395565b50505b505050565b81516001600160401b038111156103ca576103ca610173565b6103de816103d88454610328565b84610362565b6020601f82116001811461041257600083156103fa5750848201515b600019600385901b1c1916600184901b1784556103a9565b600084815260208120601f198516915b828110156104425787850151825560209485019460019092019101610422565b50848210156104605786840151600019600387901b60f8161c191681555b50505050600190811b01905550565b634e487b7160e01b600052603260045260246000fd5b634e487b7160e01b600052601160045260246000fd5b80820281158282048414176104b2576104b2610485565b92915050565b808201808211156104b2576104b2610485565b60805160a05160c05160e05161010051610120516101405161016051610180516129b86105ce60003960006107a401526000818161045a0152818161074001528181610de70152610f060152600081816103bd015281816107ce01528181610ce901526115db01526000818161031d0152610f3301526000818161041901528181610dc30152610ecc01526000818161035601528181610b6f01528181610d24015281816117510152611e3401526000818161024a01528181610e2e01526110380152600081816104f401528181610b4d0152611e0f01526000818161076e01528181610fea015281816116a601528181611ab30152611d5d01526129b86000f3fe608060405234801561001057600080fd5b50600436106102065760003560e01c80638c0a80c21161011a578063c828371e116100ad578063e985e9c51161007c578063e985e9c5146104c4578063eb02c301146104d7578063f72a3b02146104ea578063ff03a3ad146104f2578063ffcd599c1461051857600080fd5b8063c828371e14610458578063c87b56dd1461047e578063d115356f14610491578063e26eb405146104a457600080fd5b8063b88d4fde116100e9578063b88d4fde14610404578063bd5da9ac14610417578063be26ed7f1461043d578063c2efe6ab1461044557600080fd5b80638c0a80c2146103bb57806395d89b41146103e15780639bd8ad71146103e9578063a22cb465146103f157600080fd5b806342842e0e1161019d5780636aa8f0981161016c5780636aa8f0981461035457806370a082311461037a578063837c9bf71461038d578063868fb5b314610395578063891f0874146103a857600080fd5b806342842e0e146102f557806353365dd5146103085780635437996c1461031b5780636352211e1461034157600080fd5b8063095ea7b3116101d9578063095ea7b3146102a357806318f56a0a146102b8578063217ac237146102cd57806323b872dd146102e257600080fd5b806301ffc9a71461020b57806306fdde031461023357806307d9e29214610248578063081812fc14610278575b600080fd5b61021e6102193660046123e8565b61052b565b60405190151581526020015b60405180910390f35b61023b61057d565b60405161022a9190612455565b7f00000000000000000000000000000000000000000000000000000000000000005b60405190815260200161022a565b61028b610286366004612468565b61060f565b6040516001600160a01b03909116815260200161022a565b6102b66102b136600461249d565b610638565b005b6102c0610647565b60405161022a919061253d565b6102d561073c565b60405161022a91906125b8565b6102b66102f03660046125e0565b610803565b6102b66103033660046125e0565b610893565b61026a610316366004612468565b6108b3565b7f000000000000000000000000000000000000000000000000000000000000000061026a565b61028b61034f366004612468565b6108fd565b7f000000000000000000000000000000000000000000000000000000000000000061026a565b61026a61038836600461261d565b610908565b6102b6610950565b61026a6103a3366004612468565b610a56565b61026a6103b6366004612468565b610c03565b7f000000000000000000000000000000000000000000000000000000000000000061026a565b61023b610d68565b60085461026a565b6102b66103ff366004612646565b610d77565b6102b6610412366004612693565b610d82565b7f000000000000000000000000000000000000000000000000000000000000000061026a565b61026a610d99565b61026a61045336600461261d565b610e26565b7f000000000000000000000000000000000000000000000000000000000000000061026a565b61023b61048c366004612468565b610e52565b61021e61049f366004612468565b610ec7565b6104b76104b2366004612777565b610f6f565b60405161022a91906127aa565b61021e6104d2366004612777565b611194565b6104b76104e5366004612468565b6111c2565b60065461026a565b7f000000000000000000000000000000000000000000000000000000000000000061028b565b61026a610526366004612468565b611296565b60006001600160e01b031982166380ac58cd60e01b148061055c57506001600160e01b03198216635b5e139f60e01b145b8061057757506301ffc9a760e01b6001600160e01b03198316145b92915050565b60606000805461058c906127bd565b80601f01602080910402602001604051908101604052809291908181526020018280546105b8906127bd565b80156106055780601f106105da57610100808354040283529160200191610605565b820191906000526020600020905b8154815290600101906020018083116105e857829003601f168201915b5050505050905090565b600061061a82611320565b506000828152600460205260409020546001600160a01b0316610577565b610643828233611359565b5050565b60606006805480602002602001604051908101604052809291908181526020016000905b82821015610733576000848152602090819020604080516080810182526004860290920180546001600160a01b03168352600181015483850152600281018054835181870281018701855281815294959294938601939283018282801561071157602002820191906000526020600020906000905b825461010083900a900460ff1615158152602060019283018181049485019490930390920291018084116106e05790505b505050505081526020016003820154815250508152602001906001019061066b565b50505050905090565b60007f000000000000000000000000000000000000000000000000000000000000000042101561076c5750600090565b7f000000000000000000000000000000000000000000000000000000000000000061079660065490565b10156107a25750600390565b7f0000000000000000000000000000000000000000000000000000000000000000421015806107f257507f0000000000000000000000000000000000000000000000000000000000000000600854145b156107fd5750600290565b50600190565b6001600160a01b03821661083257604051633250574960e11b8152600060048201526024015b60405180910390fd5b600061083f838333611366565b9050836001600160a01b0316816001600160a01b03161461088d576040516364283d7b60e01b81526001600160a01b0380861660048301526024820184905282166044820152606401610829565b50505050565b6108ae83838360405180602001604052806000815250610d82565b505050565b600080600683815481106108c9576108c96127f1565b906000526020600020906004020190506108e283610c03565b91506108f7816108f1856108fd565b8461145f565b50919050565b600061057782611320565b60006001600160a01b038216610934576040516322718ad960e21b815260006004820152602401610829565b506001600160a01b031660009081526003602052604090205490565b600061095a61073c565b90506000816003811115610970576109706125a2565b141580156109905750600381600381111561098d5761098d6125a2565b14155b6109ad57604051630eb0b39d60e01b815260040160405180910390fd5b60006109b7610d99565b9050600060085460016109ca919061281d565b9050805b82811161088d576109de81610ec7565b61088d5760006109ed82611510565b90508160068281548110610a0357610a036127f1565b906000526020600020906004020160030181905550610a40610a3a826000908152600260205260409020546001600160a01b031690565b83611690565b506008819055610a4f81612830565b90506109ce565b600080610a61610d99565b9050600060068481548110610a7857610a786127f1565b6000918252602090912060049091020190506001610a9461073c565b6003811115610aa557610aa56125a2565b14610ac357604051630fe101db60e31b815260040160405180910390fd5b610acc82610ec7565b8290610aee5760405163f424a3cb60e01b815260040161082991815260200190565b50806002018281548110610b0457610b046127f1565b90600052602060002090602091828204019190069054906101000a900460ff16158290610b4757604051632f43429b60e21b815260040161082991815260200190565b50610b937f0000000000000000000000000000000000000000000000000000000000000000337f00000000000000000000000000000000000000000000000000000000000000006116d6565b6001816002018381548110610baa57610baa6127f1565b90600052602060002090602091828204019190066101000a81548160ff021916908315150217905550610bfb81610bf6866000908152600260205260409020546001600160a01b031690565b61173d565b949350505050565b60008060068381548110610c1957610c196127f1565b600091825260209182902060408051608081018252600490930290910180546001600160a01b031683526001810154838501526002810180548351818702810187018552818152949592949386019392830182828015610cb857602002820191906000526020600020906000905b825461010083900a900460ff161515815260206001928301818104948501949093039092029101808411610c875790505b5050505050815260200160038201548152505090508060200151600003610ce25750600092915050565b60006008547f0000000000000000000000000000000000000000000000000000000000000000610d129190612849565b8251909150600090610d4d90610d48847f000000000000000000000000000000000000000000000000000000000000000061285c565b611782565b9050808360200151610d5f9190612849565b95945050505050565b60606001805461058c906127bd565b6106433383836117f3565b610d8d848484610803565b61088d84848484611892565b60006001610da561073c565b6003811115610db657610db66125a2565b14610dc15750600090565b7f0000000000000000000000000000000000000000000000000000000000000000610e0c7f000000000000000000000000000000000000000000000000000000000000000042612849565b610e169190612889565b610e2190600161281d565b905090565b6000610577827f0000000000000000000000000000000000000000000000000000000000000000611782565b6060610e5d82611320565b506000610e7560408051602081019091526000815290565b90506000815111610e955760405180602001604052806000815250610ec0565b80610e9f846119bb565b604051602001610eb092919061289d565b6040516020818303038152906040525b9392505050565b6000807f0000000000000000000000000000000000000000000000000000000000000000610ef6600185612849565b610f00919061285c565b610f2a907f000000000000000000000000000000000000000000000000000000000000000061281d565b90506000610f587f00000000000000000000000000000000000000000000000000000000000000008361281d565b9050814210158015610bfb57504211159392505050565b610f776122e7565b6001600160a01b0383811660009081526007602052604090205416610faf5760405163948588b760e01b815260040160405180910390fd5b6000610fb961073c565b6003811115610fca57610fca6125a2565b14610fe85760405163d5a8809160e01b815260040160405180910390fd5b7f000000000000000000000000000000000000000000000000000000000000000061101260065490565b106110305760405163f11860b760e01b815260040160405180910390fd5b600061105c847f0000000000000000000000000000000000000000000000000000000000000000611782565b6001600160a01b03808616600090815260076020526040902054919250166110858133846116d6565b60405163095ea7b360e01b81526001600160a01b0386811660048301526024820184905282169063095ea7b3906044016020604051808303816000875af11580156110d4573d6000803e3d6000fd5b505050506040513d601f19601f820116820180604052508101906110f891906128cc565b506040516320e8c56560e01b81523060048201526001600160a01b0382811660248301526044820184905260006064830181905291908716906320e8c565906084016020604051808303816000875af1158015611159573d6000803e3d6000fd5b505050506040513d601f19601f8201168201806040525081019061117d91906128e9565b905061118a858785611a4e565b9695505050505050565b6001600160a01b03918216600090815260056020908152604080832093909416825291909152205460ff1690565b6111ca6122e7565b600682815481106111dd576111dd6127f1565b600091825260209182902060408051608081018252600490930290910180546001600160a01b03168352600181015483850152600281018054835181870281018701855281815294959294938601939283018282801561127c57602002820191906000526020600020906000905b825461010083900a900460ff16151581526020600192830181810494850194909303909202910180841161124b5790505b505050505081526020016003820154815250509050919050565b600060036112a261073c565b60038111156112b3576112b36125a2565b146112d157604051636d83b9a360e11b815260040160405180910390fd5b6000600683815481106112e6576112e66127f1565b90600052602060002090600402019050806001015491506108f7816108f1856000908152600260205260409020546001600160a01b031690565b6000818152600260205260408120546001600160a01b03168061057757604051637e27328960e01b815260048101849052602401610829565b6108ae8383836001611bed565b6000828152600260205260408120546001600160a01b039081169083161561139357611393818486611cf3565b6001600160a01b038116156113d1576113b0600085600080611bed565b6001600160a01b038116600090815260036020526040902080546000190190555b6001600160a01b03851615611400576001600160a01b0385166000908152600360205260409020805460010190555b60008481526002602052604080822080546001600160a01b0319166001600160a01b0389811691821790925591518793918516917fddf252ad1be2c89b69c2b068fc378daa952ba7f163c4a11628f55a4df523b3ef91a4949350505050565b808360010160008282546114739190612849565b909155505082546001600160a01b0390811660008181526007602052604080822054905163769f8e5d60e01b8152868516600482015260248101869052931660448401526064830181905260848301529063769f8e5d9060a4016020604051808303816000875af11580156114ec573d6000803e3d6000fd5b505050506040513d601f19601f8201168201806040525081019061088d91906128e9565b600080600061151e60065490565b905060008167ffffffffffffffff81111561153b5761153b61267d565b604051908082528060200260200182016040528015611564578160200160208202803683370190505b50905060005b828110156115d857600060068281548110611587576115876127f1565b9060005260206000209060040201905080600301546000036115cf57818386815181106115b6576115b66127f1565b6020908102919091010152846115cb81612830565b9550505b5060010161156a565b507f000000000000000000000000000000000000000000000000000000000000000085036116255780600081518110611613576116136127f1565b60200260200101519350505050919050565b6040805142602082015244918101919091526060810184905260009084906080016040516020818303038152906040528051906020012060001c6116699190612902565b905081818151811061167d5761167d6127f1565b6020026020010151945050505050919050565b600061169c8383611d57565b905060006116ca827f0000000000000000000000000000000000000000000000000000000000000000612849565b905061088d8482611e0a565b6001600160a01b038316611722578034146108ae5760405162461bcd60e51b815260206004820152600c60248201526b0cae8d040dad2e6dac2e8c6d60a31b6044820152606401610829565b80156108ae576108ae6001600160a01b038416833084611e5e565b8154600090611775906001600160a01b03167f0000000000000000000000000000000000000000000000000000000000000000611782565b905061057783838361145f565b600080836001600160a01b0316633ba0b9a96040518163ffffffff1660e01b8152600401602060405180830381865afa1580156117c3573d6000803e3d6000fd5b505050506040513d601f19601f820116820180604052508101906117e791906128e9565b9050610bfb8382611ec5565b6001600160a01b03821661182557604051630b61174360e31b81526001600160a01b0383166004820152602401610829565b6001600160a01b03838116600081815260056020908152604080832094871680845294825291829020805460ff191686151590811790915591519182527f17307eab39ab6107e8899845ad3d59bd9653f200f220920489ca2b5937696c31910160405180910390a3505050565b6001600160a01b0383163b1561088d57604051630a85bd0160e11b81526001600160a01b0384169063150b7a02906118d4903390889087908790600401612916565b6020604051808303816000875af192505050801561190f575060408051601f3d908101601f1916820190925261190c91810190612949565b60015b611978573d80801561193d576040519150601f19603f3d011682016040523d82523d6000602084013e611942565b606091505b50805160000361197057604051633250574960e11b81526001600160a01b0385166004820152602401610829565b805181602001fd5b6001600160e01b03198116630a85bd0160e11b146119b457604051633250574960e11b81526001600160a01b0385166004820152602401610829565b5050505050565b606060006119c883611ef4565b600101905060008167ffffffffffffffff8111156119e8576119e861267d565b6040519080825280601f01601f191660200182016040528015611a12576020820181803683370190505b5090508181016020015b600019016f181899199a1a9b1b9c1cb0b131b232b360811b600a86061a8153600a8504945084611a1c57509392505050565b611a566122e7565b6006805460018101808355600083815291929083908110611a7957611a796127f1565b6000918252602090912060049091020180546001600160a01b0319166001600160a01b0387161781556001808201869055909150611ad8907f00000000000000000000000000000000000000000000000000000000000000009061281d565b67ffffffffffffffff811115611af057611af061267d565b604051908082528060200260200182016040528015611b19578160200160208202803683370190505b508051611b30916002840191602090910190612318565b50611b3b8683611fcc565b6040805160808101825282546001600160a01b0316815260018301546020808301919091526002840180548451818402810184018652818152939486949086019390929190830182828015611bcf57602002820191906000526020600020906000905b825461010083900a900460ff161515815260206001928301818104948501949093039092029101808411611b9e5790505b50505050508152602001600382015481525050925050509392505050565b8080611c0157506001600160a01b03821615155b15611cc3576000611c1184611320565b90506001600160a01b03831615801590611c3d5750826001600160a01b0316816001600160a01b031614155b8015611c505750611c4e8184611194565b155b15611c795760405163a9fbf51f60e01b81526001600160a01b0384166004820152602401610829565b8115611cc15783856001600160a01b0316826001600160a01b03167f8c5be1e5ebec7d5bd14f71427d1e84f3dd0314c0f7b2291e5b200ac8c7c3b92560405160405180910390a45b505b5050600090815260046020526040902080546001600160a01b0319166001600160a01b0392909216919091179055565b611cfe838383612031565b6108ae576001600160a01b038316611d2c57604051637e27328960e01b815260048101829052602401610829565b60405163177e802f60e01b81526001600160a01b038316600482015260248101829052604401610829565b6000805b7f0000000000000000000000000000000000000000000000000000000000000000811015611e0357600060068281548110611d9857611d986127f1565b90600052602060002090600402019050806002018481548110611dbd57611dbd6127f1565b90600052602060002090602091828204019190069054906101000a900460ff16611dfa5782611deb81612830565b935050611df8818661173d565b505b50600101611d5b565b5092915050565b6106437f000000000000000000000000000000000000000000000000000000000000000083611e597f00000000000000000000000000000000000000000000000000000000000000008561285c565b612094565b6040516001600160a01b03848116602483015283811660448301526064820183905261088d9186918216906323b872dd906084015b604051602081830303815290604052915060e01b6020820180516001600160e01b038381831617835250505050612158565b600080611eda670de0b6b3a76400008561285c565b9050828181611eeb57611eeb612873565b04949350505050565b60008072184f03e93ff9f4daa797ed6e38ed64bf6a1f0160401b8310611f335772184f03e93ff9f4daa797ed6e38ed64bf6a1f0160401b830492506040015b6d04ee2d6d415b85acef81000000008310611f5f576d04ee2d6d415b85acef8100000000830492506020015b662386f26fc100008310611f7d57662386f26fc10000830492506010015b6305f5e1008310611f95576305f5e100830492506008015b6127108310611fa957612710830492506004015b60648310611fbb576064830492506002015b600a83106105775760010192915050565b6001600160a01b038216611ff657604051633250574960e11b815260006004820152602401610829565b600061200483836000611366565b90506001600160a01b038116156108ae576040516339e3563760e11b815260006004820152602401610829565b60006001600160a01b03831615801590610bfb5750826001600160a01b0316846001600160a01b0316148061206b575061206b8484611194565b80610bfb5750506000908152600460205260409020546001600160a01b03908116911614919050565b806000036120a157505050565b6001600160a01b038316612144576000826001600160a01b03168260405160006040518083038185875af1925050503d80600081146120fc576040519150601f19603f3d011682016040523d82523d6000602084013e612101565b606091505b505090508061088d5760405162461bcd60e51b815260206004820152600f60248201526e195d1a081cd95b990819985a5b1959608a1b6044820152606401610829565b6108ae6001600160a01b03841683836121bb565b600061216d6001600160a01b038416836121ec565b9050805160001415801561219257508080602001905181019061219091906128cc565b155b156108ae57604051635274afe760e01b81526001600160a01b0384166004820152602401610829565b6040516001600160a01b038381166024830152604482018390526108ae91859182169063a9059cbb90606401611e93565b6060610ec08383600084600080856001600160a01b031684866040516122129190612966565b60006040518083038185875af1925050503d806000811461224f576040519150601f19603f3d011682016040523d82523d6000602084013e612254565b606091505b509150915061118a8683836060826122745761226f826122bb565b610ec0565b815115801561228b57506001600160a01b0384163b155b156122b457604051639996b31560e01b81526001600160a01b0385166004820152602401610829565b5080610ec0565b8051156122cb5780518082602001fd5b604051630a12f52160e11b815260040160405180910390fd5b50565b604051806080016040528060006001600160a01b031681526020016000815260200160608152602001600081525090565b82805482825590600052602060002090601f016020900481019282156123ad5791602002820160005b8382111561237e57835183826101000a81548160ff0219169083151502179055509260200192600101602081600001049283019260010302612341565b80156123ab5782816101000a81549060ff021916905560010160208160000104928301926001030261237e565b505b506123b99291506123bd565b5090565b5b808211156123b957600081556001016123be565b6001600160e01b0319811681146122e457600080fd5b6000602082840312156123fa57600080fd5b8135610ec0816123d2565b60005b83811015612420578181015183820152602001612408565b50506000910152565b60008151808452612441816020860160208601612405565b601f01601f19169290920160200192915050565b602081526000610ec06020830184612429565b60006020828403121561247a57600080fd5b5035919050565b80356001600160a01b038116811461249857600080fd5b919050565b600080604083850312156124b057600080fd5b6124b983612481565b946020939093013593505050565b80516001600160a01b0316825260208082015181840152604080830151608091850182905280519185018290526000920190829060a08601905b8083101561252657835115158252602082019150602084019350600183019250612501565b506060850151606087015280935050505092915050565b6000602082016020835280845180835260408501915060408160051b86010192506020860160005b8281101561259657603f198786030184526125818583516124c7565b94506020938401939190910190600101612565565b50929695505050505050565b634e487b7160e01b600052602160045260246000fd5b60208101600483106125da57634e487b7160e01b600052602160045260246000fd5b91905290565b6000806000606084860312156125f557600080fd5b6125fe84612481565b925061260c60208501612481565b929592945050506040919091013590565b60006020828403121561262f57600080fd5b610ec082612481565b80151581146122e457600080fd5b6000806040838503121561265957600080fd5b61266283612481565b9150602083013561267281612638565b809150509250929050565b634e487b7160e01b600052604160045260246000fd5b600080600080608085870312156126a957600080fd5b6126b285612481565b93506126c060208601612481565b925060408501359150606085013567ffffffffffffffff8111156126e357600080fd5b8501601f810187136126f457600080fd5b803567ffffffffffffffff81111561270e5761270e61267d565b604051601f8201601f19908116603f0116810167ffffffffffffffff8111828210171561273d5761273d61267d565b60405281815282820160200189101561275557600080fd5b8160208401602083013760006020838301015280935050505092959194509250565b6000806040838503121561278a57600080fd5b61279383612481565b91506127a160208401612481565b90509250929050565b602081526000610ec060208301846124c7565b600181811c908216806127d157607f821691505b6020821081036108f757634e487b7160e01b600052602260045260246000fd5b634e487b7160e01b600052603260045260246000fd5b634e487b7160e01b600052601160045260246000fd5b8082018082111561057757610577612807565b60006001820161284257612842612807565b5060010190565b8181038181111561057757610577612807565b808202811582820484141761057757610577612807565b634e487b7160e01b600052601260045260246000fd5b60008261289857612898612873565b500490565b600083516128af818460208801612405565b8351908301906128c3818360208801612405565b01949350505050565b6000602082840312156128de57600080fd5b8151610ec081612638565b6000602082840312156128fb57600080fd5b5051919050565b60008261291157612911612873565b500690565b6001600160a01b038581168252841660208201526040810183905260806060820181905260009061118a90830184612429565b60006020828403121561295b57600080fd5b8151610ec0816123d2565b60008251612978818460208701612405565b919091019291505056fea2646970667358221220cee7a50e4ace72a2bd67ec94ea8dff095a6c2f5b3d5e6055d6be930669fe9b1364736f6c634300081b0033a264697066735822122030fcad6daf8eaf90f721dbe1c4020c70d69d18d29acd82f9e0b38a6f058a0c1f64736f6c634300081b0033","linkReferences":{}},"methodIdentifiers":{"CYCLE_DEPOSIT_DURATION_PERCENTAGE()":"135ec69c","MAX_POOL_DURATION()":"9a9935b3","MIN_CYCLE_DURATION()":"9623daa5","MIN_START_INTERVAL()":"5bb2111a","MIN_TOTAL_CYCLES()":"f704d19b","PERCENTAGE_DECIMALS()":"90706425","addMultiValidSYCollateralTokens(address[])":"9e851a81","addValidSYCollateralToken(address)":"454cadad","createSpiralPool(address,uint256,uint256,uint256,uint256)":"3778331c","getBaseTokens()":"bed64c2f","getSpiralPoolsForBaseToken(address)":"81fcf1c1","getValidCollateralTokensForBaseToken(address)":"b18e7d52","owner()":"8da5cb5b","renounceOwnership()":"715018a6","transferOwnership(address)":"f2fde38b"},"id":60}