{"abi":[{"type":"constructor","inputs":[],"stateMutability":"nonpayable"},{"type":"function","name":"balanceOf","inputs":[{"name":"_address","type":"address","internalType":"address"}],"outputs":[{"name":"","type":"uint256","internalType":"uint256"}],"stateMutability":"view"},{"type":"function","name":"balances","inputs":[{"name":"","type":"address","internalType":"address"}],"outputs":[{"name":"","type":"uint256","internalType":"uint256"}],"stateMutability":"view"},{"type":"function","name":"setBalance","inputs":[{"name":"_address","type":"address","internalType":"address"},{"name":"_value","type":"uint256","internalType":"uint256"}],"outputs":[{"name":"","type":"bool","internalType":"bool"}],"stateMutability":"nonpayable"},{"type":"function","name":"totalSupply","inputs":[],"outputs":[{"name":"totalTokensIssued","type":"uint256","internalType":"uint256"}],"stateMutability":"pure"},{"type":"function","name":"transfer","inputs":[{"name":"_to","type":"address","internalType":"address"},{"name":"_value","type":"uint256","internalType":"uint256"}],"outputs":[{"name":"","type":"bool","internalType":"bool"}],"stateMutability":"nonpayable"},{"type":"function","name":"transferAndCall","inputs":[{"name":"_to","type":"address","internalType":"address"},{"name":"_value","type":"uint256","internalType":"uint256"},{"name":"_data","type":"bytes","internalType":"bytes"}],"outputs":[{"name":"success","type":"bool","internalType":"bool"}],"stateMutability":"nonpayable"}],"bytecode":{"object":"0x6080604052348015600e575f5ffd5b50335f9081526020819052604090206b033b2e3c9fd0803ce800000090556103c6806100395f395ff3fe608060405234801561000f575f5ffd5b5060043610610060575f3560e01c806318160ddd1461006457806327e235e3146100855780634000aea0146100a457806370a08231146100c7578063a9059cbb146100ef578063e30443bc14610102575b5f5ffd5b6b033b2e3c9fd0803ce80000005b6040519081526020015b60405180910390f35b610072610093366004610244565b5f6020819052908152604090205481565b6100b76100b2366004610264565b61012f565b604051901515815260200161007c565b6100726100d5366004610244565b6001600160a01b03165f9081526020819052604090205490565b6100b76100fd3660046102e7565b610159565b6100b76101103660046102e7565b6001600160a01b03919091165f90815260208190526040902055600190565b5f61013a8585610159565b50843b1561014e5761014e858585856101c1565b506001949350505050565b335f90815260208190526040812054610173908390610323565b335f90815260208190526040808220929092556001600160a01b0385168152205461019f908390610336565b6001600160a01b0384165f908152602081905260409020555060015b92915050565b604051635260769b60e11b815284906001600160a01b0382169063a4c0ed36906101f5903390889088908890600401610349565b5f604051808303815f87803b15801561020c575f5ffd5b505af115801561021e573d5f5f3e3d5ffd5b505050505050505050565b80356001600160a01b038116811461023f575f5ffd5b919050565b5f60208284031215610254575f5ffd5b61025d82610229565b9392505050565b5f5f5f5f60608587031215610277575f5ffd5b61028085610229565b935060208501359250604085013567ffffffffffffffff8111156102a2575f5ffd5b8501601f810187136102b2575f5ffd5b803567ffffffffffffffff8111156102c8575f5ffd5b8760208284010111156102d9575f5ffd5b949793965060200194505050565b5f5f604083850312156102f8575f5ffd5b61030183610229565b946020939093013593505050565b634e487b7160e01b5f52601160045260245ffd5b818103818111156101bb576101bb61030f565b808201808211156101bb576101bb61030f565b6001600160a01b0385168152602081018490526060604082018190528101829052818360808301375f818301608090810191909152601f909201601f19160101939250505056fea264697066735822122056b4a9db1ed1343ea9991c6e8e227d9c3c2c3c66fa0b056a90b9a58cf90e4b7164736f6c634300081b0033","linkReferences":{}},"methodIdentifiers":{"balanceOf(address)":"70a08231","balances(address)":"27e235e3","setBalance(address,uint256)":"e30443bc","totalSupply()":"18160ddd","transfer(address,uint256)":"a9059cbb","transferAndCall(address,uint256,bytes)":"4000aea0"},"id":1}