{"abi":[{"type":"function","name":"calculateRequestPriceNative","inputs":[{"name":"_callbackGasLimit","type":"uint32","internalType":"uint32"},{"name":"_numWords","type":"uint32","internalType":"uint32"}],"outputs":[{"name":"","type":"uint256","internalType":"uint256"}],"stateMutability":"view"},{"type":"function","name":"fulfillRandomWords","inputs":[{"name":"requestId","type":"uint256","internalType":"uint256"}],"outputs":[],"stateMutability":"nonpayable"},{"type":"function","name":"requestCount","inputs":[],"outputs":[{"name":"","type":"uint256","internalType":"uint256"}],"stateMutability":"view"},{"type":"function","name":"requestRandomWordsInNative","inputs":[{"name":"","type":"uint32","internalType":"uint32"},{"name":"blockConfirmations","type":"uint16","internalType":"uint16"},{"name":"randomNumbersCount","type":"uint32","internalType":"uint32"},{"name":"","type":"bytes","internalType":"bytes"}],"outputs":[{"name":"requestId","type":"uint256","internalType":"uint256"}],"stateMutability":"payable"},{"type":"function","name":"requests","inputs":[{"name":"","type":"uint256","internalType":"uint256"}],"outputs":[{"name":"requester","type":"address","internalType":"address"},{"name":"blockNumber","type":"uint256","internalType":"uint256"},{"name":"blockConfirmations","type":"uint256","internalType":"uint256"},{"name":"randomNumbersCount","type":"uint256","internalType":"uint256"},{"name":"fulfilled","type":"bool","internalType":"bool"}],"stateMutability":"view"},{"type":"event","name":"RandomnessFulfilled","inputs":[{"name":"requestId","type":"uint256","indexed":false,"internalType":"uint256"},{"name":"randomWords","type":"uint256[]","indexed":false,"internalType":"uint256[]"}],"anonymous":false},{"type":"event","name":"RandomnessRequested","inputs":[{"name":"requestId","type":"uint256","indexed":false,"internalType":"uint256"},{"name":"requester","type":"address","indexed":false,"internalType":"address"},{"name":"blockConfirmations","type":"uint256","indexed":false,"internalType":"uint256"}],"anonymous":false}],"bytecode":{"object":"0x6080604052348015600e575f5ffd5b5061090c8061001c5f395ff3fe608060405260043610610049575f3560e01c806313c34b7f1461004d5780635badbe4c1461008157806381d12c58146100965780639cfc058e1461011f578063d6100d1c14610132575b5f5ffd5b348015610058575f5ffd5b5061006e6100673660046106e4565b5f92915050565b6040519081526020015b60405180910390f35b34801561008c575f5ffd5b5061006e60015481565b3480156100a1575f5ffd5b506100eb6100b0366004610715565b5f60208190529081526040902080546001820154600283015460038401546004909401546001600160a01b0390931693919290919060ff1685565b604080516001600160a01b03909616865260208601949094529284019190915260608301521515608082015260a001610078565b61006e61012d36600461072c565b610153565b34801561013d575f5ffd5b5061015161014c366004610715565b6102eb565b005b5f5f8561ffff16116101ac5760405162461bcd60e51b815260206004820152601f60248201527f426c6f636b20636f6e6669726d6174696f6e732063616e6e6f7420626520300060448201526064015b60405180910390fd5b5f8463ffffffff16116102015760405162461bcd60e51b815260206004820181905260248201527f52616e646f6d204e756d6265727320436f756e742063616e6e6f74206265203060448201526064016101a3565b50600180546040805160a0810182523380825243602080840191825261ffff8b1684860181815263ffffffff8c1660608088019182525f608089018181528b8252818752908a9020985189546001600160a01b0319166001600160a01b039091161789559551888c01559151600288015551600387015592516004909501805460ff19169515159590951790945595548451908152958601919091529184015290917f9cbe10499828304338b5191b737406d750036395ab0a1015c8c14b2f6e1046d5910160405180910390a160018054905f6102dd836107e4565b919050555095945050505050565b5f81815260208181526040808320815160a08101835281546001600160a01b03168152600182015493810184905260028201549281018390526003820154606082015260049091015460ff1615156080820152929161034a91906107fc565b905081608001511561039e5760405162461bcd60e51b815260206004820152601960248201527f5265717565737420616c72656164792066756c66696c6c65640000000000000060448201526064016101a3565b8043116103ed5760405162461bcd60e51b815260206004820152601860248201527f4e6f7420656e6f75676820436f6e6669726d6174696f6e73000000000000000060448201526064016101a3565b60208201515f906103ff9060016107fc565b40036104415760405162461bcd60e51b8152602060048201526011602482015270109b1bd8dada185cda08195e1c1a5c9959607a1b60448201526064016101a3565b5f6601000000000000600b61045b866405deece66d610815565b61046591906107fc565b61046f919061082c565b60208401519091508040905f906104879060016107fc565b90505b8381116104d7578181406040516020016104ae929190918252602082015260400190565b604051602081830303815290604052805190602001209150806104d0906107e4565b905061048a565b505f846060015167ffffffffffffffff8111156104f6576104f661084b565b60405190808252806020026020018201604052801561051f578160200160208202803683370190505b5090505f5b856060015181101561058857604080516020810186905290810184905260608101829052608001604051602081830303815290604052805190602001205f1c8282815181106105755761057561085f565b6020908102919091010152600101610524565b505f855f01516001600160a01b031687836040516024016105aa929190610873565b60408051601f198184030181529181526020820180516001600160e01b0316631fe543e360e01b179052516105df91906108c0565b5f604051808303815f865af19150503d805f8114610618576040519150601f19603f3d011682016040523d82523d5f602084013e61061d565b606091505b505090508061066e5760405162461bcd60e51b815260206004820152601a60248201527f526571756573742046756c66696c6c6d656e74204661696c656400000000000060448201526064016101a3565b5f8781526020819052604090819020600401805460ff19166001179055517f67578974dcd1e9cdb0ebe63163f817c9866d397c48bc125393551f78f33b515f906106bb9089908590610873565b60405180910390a150505050505050565b803563ffffffff811681146106df575f5ffd5b919050565b5f5f604083850312156106f5575f5ffd5b6106fe836106cc565b915061070c602084016106cc565b90509250929050565b5f60208284031215610725575f5ffd5b5035919050565b5f5f5f5f5f60808688031215610740575f5ffd5b610749866106cc565b9450602086013561ffff8116811461075f575f5ffd5b935061076d604087016106cc565b9250606086013567ffffffffffffffff811115610788575f5ffd5b8601601f81018813610798575f5ffd5b803567ffffffffffffffff8111156107ae575f5ffd5b8860208284010111156107bf575f5ffd5b959894975092955050506020019190565b634e487b7160e01b5f52601160045260245ffd5b5f600182016107f5576107f56107d0565b5060010190565b8082018082111561080f5761080f6107d0565b92915050565b808202811582820484141761080f5761080f6107d0565b5f8261084657634e487b7160e01b5f52601260045260245ffd5b500690565b634e487b7160e01b5f52604160045260245ffd5b634e487b7160e01b5f52603260045260245ffd5b5f60408201848352604060208401528084518083526060850191506020860192505f5b818110156108b4578351835260209384019390920191600101610896565b50909695505050505050565b5f82518060208501845e5f92019182525091905056fea26469706673582212206dc17cbfa9f36f2d377e33f04c22c4e2451c69c5669a9a7887685b6089e2d9d364736f6c634300081b0033","linkReferences":{}},"methodIdentifiers":{"calculateRequestPriceNative(uint32,uint32)":"13c34b7f","fulfillRandomWords(uint256)":"d6100d1c","requestCount()":"5badbe4c","requestRandomWordsInNative(uint32,uint16,uint32,bytes)":"9cfc058e","requests(uint256)":"81d12c58"},"id":78}