{"abi":[{"type":"constructor","inputs":[{"name":"name","type":"string","internalType":"string"},{"name":"symbol","type":"string","internalType":"string"},{"name":"stETH","type":"address","internalType":"address"},{"name":"wETH","type":"address","internalType":"address"}],"stateMutability":"nonpayable"},{"type":"receive","stateMutability":"payable"},{"type":"function","name":"accruedRewards","inputs":[{"name":"","type":"address","internalType":"address"}],"outputs":[{"name":"rewardAmounts","type":"uint256[]","internalType":"uint256[]"}],"stateMutability":"pure"},{"type":"function","name":"allowance","inputs":[{"name":"owner","type":"address","internalType":"address"},{"name":"spender","type":"address","internalType":"address"}],"outputs":[{"name":"","type":"uint256","internalType":"uint256"}],"stateMutability":"view"},{"type":"function","name":"approve","inputs":[{"name":"spender","type":"address","internalType":"address"},{"name":"value","type":"uint256","internalType":"uint256"}],"outputs":[{"name":"","type":"bool","internalType":"bool"}],"stateMutability":"nonpayable"},{"type":"function","name":"assetInfo","inputs":[],"outputs":[{"name":"assetType","type":"uint8","internalType":"enum ISY.AssetType"},{"name":"assetAddress","type":"address","internalType":"address"},{"name":"assetDecimals","type":"uint8","internalType":"uint8"}],"stateMutability":"view"},{"type":"function","name":"balanceOf","inputs":[{"name":"account","type":"address","internalType":"address"}],"outputs":[{"name":"","type":"uint256","internalType":"uint256"}],"stateMutability":"view"},{"type":"function","name":"claimRewards","inputs":[{"name":"","type":"address","internalType":"address"}],"outputs":[{"name":"rewardAmounts","type":"uint256[]","internalType":"uint256[]"}],"stateMutability":"pure"},{"type":"function","name":"decimals","inputs":[],"outputs":[{"name":"","type":"uint8","internalType":"uint8"}],"stateMutability":"view"},{"type":"function","name":"deposit","inputs":[{"name":"receiver","type":"address","internalType":"address"},{"name":"tokenIn","type":"address","internalType":"address"},{"name":"amountTokenToDeposit","type":"uint256","internalType":"uint256"},{"name":"minSharesOut","type":"uint256","internalType":"uint256"}],"outputs":[{"name":"amountSharesOut","type":"uint256","internalType":"uint256"}],"stateMutability":"payable"},{"type":"function","name":"exchangeRate","inputs":[],"outputs":[{"name":"","type":"uint256","internalType":"uint256"}],"stateMutability":"view"},{"type":"function","name":"getRewardTokens","inputs":[],"outputs":[{"name":"","type":"address[]","internalType":"address[]"}],"stateMutability":"pure"},{"type":"function","name":"getTokensIn","inputs":[],"outputs":[{"name":"res","type":"address[]","internalType":"address[]"}],"stateMutability":"view"},{"type":"function","name":"getTokensOut","inputs":[],"outputs":[{"name":"res","type":"address[]","internalType":"address[]"}],"stateMutability":"view"},{"type":"function","name":"isValidTokenIn","inputs":[{"name":"token","type":"address","internalType":"address"}],"outputs":[{"name":"","type":"bool","internalType":"bool"}],"stateMutability":"view"},{"type":"function","name":"isValidTokenOut","inputs":[{"name":"token","type":"address","internalType":"address"}],"outputs":[{"name":"","type":"bool","internalType":"bool"}],"stateMutability":"view"},{"type":"function","name":"name","inputs":[],"outputs":[{"name":"","type":"string","internalType":"string"}],"stateMutability":"view"},{"type":"function","name":"owner","inputs":[],"outputs":[{"name":"","type":"address","internalType":"address"}],"stateMutability":"view"},{"type":"function","name":"pause","inputs":[],"outputs":[],"stateMutability":"nonpayable"},{"type":"function","name":"paused","inputs":[],"outputs":[{"name":"","type":"bool","internalType":"bool"}],"stateMutability":"view"},{"type":"function","name":"previewDeposit","inputs":[{"name":"tokenIn","type":"address","internalType":"address"},{"name":"amountTokenToDeposit","type":"uint256","internalType":"uint256"}],"outputs":[{"name":"amountSharesOut","type":"uint256","internalType":"uint256"}],"stateMutability":"view"},{"type":"function","name":"previewRedeem","inputs":[{"name":"tokenOut","type":"address","internalType":"address"},{"name":"amountSharesToRedeem","type":"uint256","internalType":"uint256"}],"outputs":[{"name":"amountTokenOut","type":"uint256","internalType":"uint256"}],"stateMutability":"view"},{"type":"function","name":"redeem","inputs":[{"name":"receiver","type":"address","internalType":"address"},{"name":"amountSharesToRedeem","type":"uint256","internalType":"uint256"},{"name":"tokenOut","type":"address","internalType":"address"},{"name":"minTokenOut","type":"uint256","internalType":"uint256"},{"name":"burnFromInternalBalance","type":"bool","internalType":"bool"}],"outputs":[{"name":"amountTokenOut","type":"uint256","internalType":"uint256"}],"stateMutability":"nonpayable"},{"type":"function","name":"renounceOwnership","inputs":[],"outputs":[],"stateMutability":"nonpayable"},{"type":"function","name":"rewardIndexesCurrent","inputs":[],"outputs":[{"name":"indexes","type":"uint256[]","internalType":"uint256[]"}],"stateMutability":"pure"},{"type":"function","name":"rewardIndexesStored","inputs":[],"outputs":[{"name":"indexes","type":"uint256[]","internalType":"uint256[]"}],"stateMutability":"pure"},{"type":"function","name":"symbol","inputs":[],"outputs":[{"name":"","type":"string","internalType":"string"}],"stateMutability":"view"},{"type":"function","name":"totalSupply","inputs":[],"outputs":[{"name":"","type":"uint256","internalType":"uint256"}],"stateMutability":"view"},{"type":"function","name":"transfer","inputs":[{"name":"to","type":"address","internalType":"address"},{"name":"value","type":"uint256","internalType":"uint256"}],"outputs":[{"name":"","type":"bool","internalType":"bool"}],"stateMutability":"nonpayable"},{"type":"function","name":"transferFrom","inputs":[{"name":"from","type":"address","internalType":"address"},{"name":"to","type":"address","internalType":"address"},{"name":"value","type":"uint256","internalType":"uint256"}],"outputs":[{"name":"","type":"bool","internalType":"bool"}],"stateMutability":"nonpayable"},{"type":"function","name":"transferOwnership","inputs":[{"name":"newOwner","type":"address","internalType":"address"}],"outputs":[],"stateMutability":"nonpayable"},{"type":"function","name":"unpause","inputs":[],"outputs":[],"stateMutability":"nonpayable"},{"type":"function","name":"yieldToken","inputs":[],"outputs":[{"name":"","type":"address","internalType":"address"}],"stateMutability":"view"},{"type":"event","name":"Approval","inputs":[{"name":"owner","type":"address","indexed":true,"internalType":"address"},{"name":"spender","type":"address","indexed":true,"internalType":"address"},{"name":"value","type":"uint256","indexed":false,"internalType":"uint256"}],"anonymous":false},{"type":"event","name":"ClaimRewards","inputs":[{"name":"user","type":"address","indexed":true,"internalType":"address"},{"name":"rewardTokens","type":"address[]","indexed":false,"internalType":"address[]"},{"name":"rewardAmounts","type":"uint256[]","indexed":false,"internalType":"uint256[]"}],"anonymous":false},{"type":"event","name":"Deposit","inputs":[{"name":"caller","type":"address","indexed":true,"internalType":"address"},{"name":"receiver","type":"address","indexed":true,"internalType":"address"},{"name":"tokenIn","type":"address","indexed":true,"internalType":"address"},{"name":"amountDeposited","type":"uint256","indexed":false,"internalType":"uint256"},{"name":"amountSYOut","type":"uint256","indexed":false,"internalType":"uint256"}],"anonymous":false},{"type":"event","name":"OwnershipTransferred","inputs":[{"name":"previousOwner","type":"address","indexed":true,"internalType":"address"},{"name":"newOwner","type":"address","indexed":true,"internalType":"address"}],"anonymous":false},{"type":"event","name":"Paused","inputs":[{"name":"account","type":"address","indexed":false,"internalType":"address"}],"anonymous":false},{"type":"event","name":"Redeem","inputs":[{"name":"caller","type":"address","indexed":true,"internalType":"address"},{"name":"receiver","type":"address","indexed":true,"internalType":"address"},{"name":"tokenOut","type":"address","indexed":true,"internalType":"address"},{"name":"amountSYToRedeem","type":"uint256","indexed":false,"internalType":"uint256"},{"name":"amountTokenOut","type":"uint256","indexed":false,"internalType":"uint256"}],"anonymous":false},{"type":"event","name":"Transfer","inputs":[{"name":"from","type":"address","indexed":true,"internalType":"address"},{"name":"to","type":"address","indexed":true,"internalType":"address"},{"name":"value","type":"uint256","indexed":false,"internalType":"uint256"}],"anonymous":false},{"type":"event","name":"Unpaused","inputs":[{"name":"account","type":"address","indexed":false,"internalType":"address"}],"anonymous":false},{"type":"error","name":"AddressEmptyCode","inputs":[{"name":"target","type":"address","internalType":"address"}]},{"type":"error","name":"AddressInsufficientBalance","inputs":[{"name":"account","type":"address","internalType":"address"}]},{"type":"error","name":"ERC20InsufficientAllowance","inputs":[{"name":"spender","type":"address","internalType":"address"},{"name":"allowance","type":"uint256","internalType":"uint256"},{"name":"needed","type":"uint256","internalType":"uint256"}]},{"type":"error","name":"ERC20InsufficientBalance","inputs":[{"name":"sender","type":"address","internalType":"address"},{"name":"balance","type":"uint256","internalType":"uint256"},{"name":"needed","type":"uint256","internalType":"uint256"}]},{"type":"error","name":"ERC20InvalidApprover","inputs":[{"name":"approver","type":"address","internalType":"address"}]},{"type":"error","name":"ERC20InvalidReceiver","inputs":[{"name":"receiver","type":"address","internalType":"address"}]},{"type":"error","name":"ERC20InvalidSender","inputs":[{"name":"sender","type":"address","internalType":"address"}]},{"type":"error","name":"ERC20InvalidSpender","inputs":[{"name":"spender","type":"address","internalType":"address"}]},{"type":"error","name":"EnforcedPause","inputs":[]},{"type":"error","name":"ExpectedPause","inputs":[]},{"type":"error","name":"FailedInnerCall","inputs":[]},{"type":"error","name":"OwnableInvalidOwner","inputs":[{"name":"owner","type":"address","internalType":"address"}]},{"type":"error","name":"OwnableUnauthorizedAccount","inputs":[{"name":"account","type":"address","internalType":"address"}]},{"type":"error","name":"ReentrancyGuardReentrantCall","inputs":[]},{"type":"error","name":"SYInsufficientSharesOut","inputs":[{"name":"actualSharesOut","type":"uint256","internalType":"uint256"},{"name":"requiredSharesOut","type":"uint256","internalType":"uint256"}]},{"type":"error","name":"SY__InsufficientTokenOut","inputs":[{"name":"actualTokenOut","type":"uint256","internalType":"uint256"},{"name":"requiredTokenOut","type":"uint256","internalType":"uint256"}]},{"type":"error","name":"SY__InvalidTokenIn","inputs":[{"name":"token","type":"address","internalType":"address"}]},{"type":"error","name":"SY__InvalidTokenOut","inputs":[{"name":"token","type":"address","internalType":"address"}]},{"type":"error","name":"SY__ZeroDeposit","inputs":[]},{"type":"error","name":"SY__ZeroRedeem","inputs":[]},{"type":"error","name":"SafeERC20FailedOperation","inputs":[{"name":"token","type":"address","internalType":"address"}]}],"bytecode":{"object":"0x60e060405234801561001057600080fd5b50604051611ca9380380611ca983398101604081905261002f916101e1565b838383338383600361004183826102f4565b50600461004e82826102f4565b50506005805460ff191690555060016006556001600160a01b03811661008e57604051631e4fbdf760e01b81526000600482015260240160405180910390fd5b610097816100ba565b506001600160a01b0390811660805293841660a05250501660c052506103b29050565b600780546001600160a01b038381166001600160a01b0319831681179093556040519116919082907f8be0079c531659141344cd1fd0a4f28419497f9722a3daafe3b4186f6b6457e090600090a35050565b634e487b7160e01b600052604160045260246000fd5b600082601f83011261013357600080fd5b81516001600160401b0381111561014c5761014c61010c565b604051601f8201601f19908116603f011681016001600160401b038111828210171561017a5761017a61010c565b60405281815283820160200185101561019257600080fd5b60005b828110156101b157602081860181015183830182015201610195565b506000918101602001919091529392505050565b80516001600160a01b03811681146101dc57600080fd5b919050565b600080600080608085870312156101f757600080fd5b84516001600160401b0381111561020d57600080fd5b61021987828801610122565b602087015190955090506001600160401b0381111561023757600080fd5b61024387828801610122565b935050610252604086016101c5565b9150610260606086016101c5565b905092959194509250565b600181811c9082168061027f57607f821691505b60208210810361029f57634e487b7160e01b600052602260045260246000fd5b50919050565b601f8211156102ef57806000526020600020601f840160051c810160208510156102cc5750805b601f840160051c820191505b818110156102ec57600081556001016102d8565b50505b505050565b81516001600160401b0381111561030d5761030d61010c565b6103218161031b845461026b565b846102a5565b6020601f821160018114610355576000831561033d5750848201515b600019600385901b1c1916600184901b1784556102ec565b600084815260208120601f198516915b828110156103855787850151825560209485019460019092019101610365565b50848210156103a35786840151600019600387901b60f8161c191681555b50505050600190811b01905550565b60805160a05160c0516118a5610404600039600081816109a601526109c70152600081816106530152818161094f01528181610cff01528181610e8c01526110e9015260006103cf01526118a56000f3fe6080604052600436106101dc5760003560e01c806376d5de8511610102578063c4f59f9b11610095578063ef5cfb8c11610064578063ef5cfb8c14610265578063f2fde38b1461057d578063f8b2f99114610516578063fa5a4f061461040957600080fd5b8063c4f59f9b146104d5578063cbe52ae3146104f6578063da88ecb414610516578063dd62ed3e1461053757600080fd5b806395d89b41116100d157806395d89b411461045c578063a40bee5014610471578063a9059cbb14610495578063b8f82b26146104b557600080fd5b806376d5de85146103bd578063784367d6146104095780638456cb59146104295780638da5cb5b1461043e57600080fd5b806323b872dd1161017a5780635c975abb116101495780635c975abb1461033a57806370a0823114610352578063715018a614610388578063769f8e5d1461039d57600080fd5b806323b872dd146102d2578063313ce567146102f25780633ba0b9a91461030e5780633f4ba83a1461032357600080fd5b8063128fced1116101b6578063128fced11461026557806318160ddd146102a057806320e8c565146102bf578063213cae631461021357600080fd5b806306fdde03146101e8578063071bc3c914610213578063095ea7b31461023557600080fd5b366101e357005b600080fd5b3480156101f457600080fd5b506101fd61059d565b60405161020a9190611514565b60405180910390f35b34801561021f57600080fd5b5061022861062f565b60405161020a9190611547565b34801561024157600080fd5b506102556102503660046115af565b6106a8565b604051901515815260200161020a565b34801561027157600080fd5b506102936102803660046115d9565b5060408051600081526020810190915290565b60405161020a91906115f4565b3480156102ac57600080fd5b506002545b60405190815260200161020a565b6102b16102cd36600461162c565b6106c2565b3480156102de57600080fd5b506102556102ed36600461166e565b6107d3565b3480156102fe57600080fd5b506040516012815260200161020a565b34801561031a57600080fd5b506102b16107f9565b34801561032f57600080fd5b50610338610811565b005b34801561034657600080fd5b5060055460ff16610255565b34801561035e57600080fd5b506102b161036d3660046115d9565b6001600160a01b031660009081526020819052604090205490565b34801561039457600080fd5b50610338610823565b3480156103a957600080fd5b506102b16103b83660046116b9565b610835565b3480156103c957600080fd5b506103f17f000000000000000000000000000000000000000000000000000000000000000081565b6040516001600160a01b03909116815260200161020a565b34801561041557600080fd5b506102556104243660046115d9565b61094d565b34801561043557600080fd5b5061033861097f565b34801561044a57600080fd5b506007546001600160a01b03166103f1565b34801561046857600080fd5b506101fd61098f565b34801561047d57600080fd5b5061048661099e565b60405161020a93929190611714565b3480156104a157600080fd5b506102556104b03660046115af565b610a52565b3480156104c157600080fd5b506102b16104d03660046115af565b610a60565b3480156104e157600080fd5b50604080516000815260208101909152610228565b34801561050257600080fd5b506102b16105113660046115af565b610aa1565b34801561052257600080fd5b50604080516000815260208101909152610293565b34801561054357600080fd5b506102b1610552366004611756565b6001600160a01b03918216600090815260016020908152604080832093909416825291909152205490565b34801561058957600080fd5b506103386105983660046115d9565b610ae3565b6060600380546105ac90611789565b80601f01602080910402602001604051908101604052809291908181526020018280546105d890611789565b80156106255780601f106105fa57610100808354040283529160200191610625565b820191906000526020600020905b81548152906001019060200180831161060857829003601f168201915b5050505050905090565b604080516001808252818301909252606091602080830190803683370190505090507f000000000000000000000000000000000000000000000000000000000000000081600081518110610685576106856117c3565b60200260200101906001600160a01b031690816001600160a01b03168152505090565b6000336106b6818585610b21565b60019150505b92915050565b60006106cc610b33565b6106d58461094d565b8490610705576040516350cf924b60e11b81526001600160a01b0390911660048201526024015b60405180910390fd5b506000831161072757604051631dba1a5b60e11b815260040160405180910390fd5b610732843385610b5d565b61073c8484610bc4565b905080828082101561076a57604051635e38f95d60e11b8152600481019290925260248201526044016106fc565b50506107768582610bcf565b60408051848152602081018390526001600160a01b03808716929088169133917f5fe47ed6d4225326d3303476197d782ded5a4e9c14f479dc9ec4992af4e85d59910160405180910390a46107cb6001600655565b949350505050565b6000336107e1858285610c09565b6107ec858585610c87565b60019150505b9392505050565b600061080c670de0b6b3a7640000610ce6565b905090565b610819610d73565b610821610da0565b565b61082b610d73565b6108216000610df2565b600061083f610b33565b6108488461094d565b849061087357604051636c29ff9160e11b81526001600160a01b0390911660048201526024016106fc565b5060008511610895576040516383e3821b60e01b815260040160405180910390fd5b81156108aa576108a53086610e44565b6108b4565b6108b43386610e44565b6108bf868587610e7a565b90508083808210156108ed57604051631c6fde1b60e21b8152600481019290925260248201526044016106fc565b505060408051868152602081018390526001600160a01b03808716929089169133917faee47cdf925cf525fdae94f9777ee5a06cac37e1c41220d0a8a89ed154f62d1c910160405180910390a46109446001600655565b95945050505050565b7f00000000000000000000000000000000000000000000000000000000000000006001600160a01b0390811691161490565b610987610d73565b610821610eb2565b6060600480546105ac90611789565b6000806000807f00000000000000000000000000000000000000000000000000000000000000007f00000000000000000000000000000000000000000000000000000000000000006001600160a01b031663313ce5676040518163ffffffff1660e01b8152600401602060405180830381865afa158015610a23573d6000803e3d6000fd5b505050506040513d601f19601f82011682018060405250810190610a4791906117d9565b925092509250909192565b6000336106b6818585610c87565b6000610a6b8361094d565b8390610a96576040516350cf924b60e11b81526001600160a01b0390911660048201526024016106fc565b506107f28383610eef565b6000610aac8361094d565b158390610ad857604051636c29ff9160e11b81526001600160a01b0390911660048201526024016106fc565b506107f28383610f41565b610aeb610d73565b6001600160a01b038116610b1557604051631e4fbdf760e01b8152600060048201526024016106fc565b610b1e81610df2565b50565b610b2e8383836001610f94565b505050565b600260065403610b5657604051633ee5aeb560e01b815260040160405180910390fd5b6002600655565b6001600160a01b038316610ba957803414610b2e5760405162461bcd60e51b815260206004820152600c60248201526b0cae8d040dad2e6dac2e8c6d60a31b60448201526064016106fc565b8015610b2e57610b2e6001600160a01b038416833084611069565b60006107f2826110d0565b6001600160a01b038216610bf95760405163ec442f0560e01b8152600060048201526024016106fc565b610c0560008383611120565b5050565b6001600160a01b038381166000908152600160209081526040808320938616835292905220546000198114610c815781811015610c7257604051637dc7a0d960e11b81526001600160a01b038416600482015260248101829052604481018390526064016106fc565b610c8184848484036000610f94565b50505050565b6001600160a01b038316610cb157604051634b637e8f60e11b8152600060048201526024016106fc565b6001600160a01b038216610cdb5760405163ec442f0560e01b8152600060048201526024016106fc565b610b2e838383611120565b604051630f451f7160e31b8152600481018290526000907f00000000000000000000000000000000000000000000000000000000000000006001600160a01b031690637a28fb88906024015b602060405180830381865afa158015610d4f573d6000803e3d6000fd5b505050506040513d601f19601f820116820180604052508101906106bc91906117fc565b6007546001600160a01b031633146108215760405163118cdaa760e01b81523360048201526024016106fc565b610da861124a565b6005805460ff191690557f5db9ee0a495bf2e6ff9c91a7834c1ba4fdd244a5e8aa4e537bd38aeae4b073aa335b6040516001600160a01b03909116815260200160405180910390a1565b600780546001600160a01b038381166001600160a01b0319831681179093556040519116919082907f8be0079c531659141344cd1fd0a4f28419497f9722a3daafe3b4186f6b6457e090600090a35050565b6001600160a01b038216610e6e57604051634b637e8f60e11b8152600060048201526024016106fc565b610c0582600083611120565b6000610e8582610ce6565b90506107f27f0000000000000000000000000000000000000000000000000000000000000000858361126d565b610eba611331565b6005805460ff191660011790557f62e78cea01bee320cd4e420270b5ea74000d11b0c9f74754ebdbfc544b05a258610dd53390565b6000610efa8361094d565b610f385760405162461bcd60e51b815260206004820152600f60248201526e24b73b30b634b2102a37b5b2b724b760891b60448201526064016106fc565b6107f2826110d0565b6000610f4c8361094d565b610f8b5760405162461bcd60e51b815260206004820152601060248201526f125b9d985b1a5908151bdad95b93dd5d60821b60448201526064016106fc565b6107f282610ce6565b6001600160a01b038416610fbe5760405163e602df0560e01b8152600060048201526024016106fc565b6001600160a01b038316610fe857604051634a1406b160e11b8152600060048201526024016106fc565b6001600160a01b0380851660009081526001602090815260408083209387168352929052208290558015610c8157826001600160a01b0316846001600160a01b03167f8c5be1e5ebec7d5bd14f71427d1e84f3dd0314c0f7b2291e5b200ac8c7c3b9258460405161105b91815260200190565b60405180910390a350505050565b6040516001600160a01b038481166024830152838116604483015260648201839052610c819186918216906323b872dd906084015b604051602081830303815290604052915060e01b6020820180516001600160e01b038381831617835250505050611355565b604051631920845160e01b8152600481018290526000907f00000000000000000000000000000000000000000000000000000000000000006001600160a01b031690631920845190602401610d32565b6001600160a01b03831661114b5780600260008282546111409190611815565b909155506111bd9050565b6001600160a01b0383166000908152602081905260409020548181101561119e5760405163391434e360e21b81526001600160a01b038516600482015260248101829052604481018390526064016106fc565b6001600160a01b03841660009081526020819052604090209082900390555b6001600160a01b0382166111d9576002805482900390556111f8565b6001600160a01b03821660009081526020819052604090208054820190555b816001600160a01b0316836001600160a01b03167fddf252ad1be2c89b69c2b068fc378daa952ba7f163c4a11628f55a4df523b3ef8360405161123d91815260200190565b60405180910390a3505050565b60055460ff1661082157604051638dfc202b60e01b815260040160405180910390fd5b8060000361127a57505050565b6001600160a01b03831661131d576000826001600160a01b03168260405160006040518083038185875af1925050503d80600081146112d5576040519150601f19603f3d011682016040523d82523d6000602084013e6112da565b606091505b5050905080610c815760405162461bcd60e51b815260206004820152600f60248201526e195d1a081cd95b990819985a5b1959608a1b60448201526064016106fc565b610b2e6001600160a01b03841683836113b8565b60055460ff16156108215760405163d93c066560e01b815260040160405180910390fd5b600061136a6001600160a01b038416836113e9565b9050805160001415801561138f57508080602001905181019061138d9190611836565b155b15610b2e57604051635274afe760e01b81526001600160a01b03841660048201526024016106fc565b6040516001600160a01b03838116602483015260448201839052610b2e91859182169063a9059cbb9060640161109e565b60606107f28383600084600080856001600160a01b0316848660405161140f9190611853565b60006040518083038185875af1925050503d806000811461144c576040519150601f19603f3d011682016040523d82523d6000602084013e611451565b606091505b509150915061146186838361146b565b9695505050505050565b6060826114805761147b826114c7565b6107f2565b815115801561149757506001600160a01b0384163b155b156114c057604051639996b31560e01b81526001600160a01b03851660048201526024016106fc565b50806107f2565b8051156114d75780518082602001fd5b604051630a12f52160e11b815260040160405180910390fd5b60005b8381101561150b5781810151838201526020016114f3565b50506000910152565b60208152600082518060208401526115338160408501602087016114f0565b601f01601f19169190910160400192915050565b602080825282518282018190526000918401906040840190835b818110156115885783516001600160a01b0316835260209384019390920191600101611561565b509095945050505050565b80356001600160a01b03811681146115aa57600080fd5b919050565b600080604083850312156115c257600080fd5b6115cb83611593565b946020939093013593505050565b6000602082840312156115eb57600080fd5b6107f282611593565b602080825282518282018190526000918401906040840190835b8181101561158857835183526020938401939092019160010161160e565b6000806000806080858703121561164257600080fd5b61164b85611593565b935061165960208601611593565b93969395505050506040820135916060013590565b60008060006060848603121561168357600080fd5b61168c84611593565b925061169a60208501611593565b929592945050506040919091013590565b8015158114610b1e57600080fd5b600080600080600060a086880312156116d157600080fd5b6116da86611593565b9450602086013593506116ef60408701611593565b9250606086013591506080860135611706816116ab565b809150509295509295909350565b606081016002851061173657634e487b7160e01b600052602160045260246000fd5b9381526001600160a01b0392909216602083015260ff1660409091015290565b6000806040838503121561176957600080fd5b61177283611593565b915061178060208401611593565b90509250929050565b600181811c9082168061179d57607f821691505b6020821081036117bd57634e487b7160e01b600052602260045260246000fd5b50919050565b634e487b7160e01b600052603260045260246000fd5b6000602082840312156117eb57600080fd5b815160ff811681146107f257600080fd5b60006020828403121561180e57600080fd5b5051919050565b808201808211156106bc57634e487b7160e01b600052601160045260246000fd5b60006020828403121561184857600080fd5b81516107f2816116ab565b600082516118658184602087016114f0565b919091019291505056fea2646970667358221220f3c9bbba89d01e805d51edff7d708d7bcabd7b9e0f3206acad6e6ee5562553ea64736f6c634300081b0033","linkReferences":{}},"methodIdentifiers":{"accruedRewards(address)":"128fced1","allowance(address,address)":"dd62ed3e","approve(address,uint256)":"095ea7b3","assetInfo()":"a40bee50","balanceOf(address)":"70a08231","claimRewards(address)":"ef5cfb8c","decimals()":"313ce567","deposit(address,address,uint256,uint256)":"20e8c565","exchangeRate()":"3ba0b9a9","getRewardTokens()":"c4f59f9b","getTokensIn()":"213cae63","getTokensOut()":"071bc3c9","isValidTokenIn(address)":"fa5a4f06","isValidTokenOut(address)":"784367d6","name()":"06fdde03","owner()":"8da5cb5b","pause()":"8456cb59","paused()":"5c975abb","previewDeposit(address,uint256)":"b8f82b26","previewRedeem(address,uint256)":"cbe52ae3","redeem(address,uint256,address,uint256,bool)":"769f8e5d","renounceOwnership()":"715018a6","rewardIndexesCurrent()":"f8b2f991","rewardIndexesStored()":"da88ecb4","symbol()":"95d89b41","totalSupply()":"18160ddd","transfer(address,uint256)":"a9059cbb","transferFrom(address,address,uint256)":"23b872dd","transferOwnership(address)":"f2fde38b","unpause()":"3f4ba83a","yieldToken()":"76d5de85"},"id":63}