{"abi":[{"type":"function","name":"addInterest","inputs":[],"outputs":[],"stateMutability":"nonpayable"},{"type":"function","name":"allowance","inputs":[{"name":"owner","type":"address","internalType":"address"},{"name":"spender","type":"address","internalType":"address"}],"outputs":[{"name":"","type":"uint256","internalType":"uint256"}],"stateMutability":"view"},{"type":"function","name":"approve","inputs":[{"name":"spender","type":"address","internalType":"address"},{"name":"value","type":"uint256","internalType":"uint256"}],"outputs":[{"name":"","type":"bool","internalType":"bool"}],"stateMutability":"nonpayable"},{"type":"function","name":"balanceOf","inputs":[{"name":"account","type":"address","internalType":"address"}],"outputs":[{"name":"","type":"uint256","internalType":"uint256"}],"stateMutability":"view"},{"type":"function","name":"burnShares","inputs":[{"name":"_account","type":"address","internalType":"address"},{"name":"_sharesAmount","type":"uint256","internalType":"uint256"}],"outputs":[{"name":"newTotalShares","type":"uint256","internalType":"uint256"}],"stateMutability":"nonpayable"},{"type":"function","name":"decimals","inputs":[],"outputs":[{"name":"","type":"uint8","internalType":"uint8"}],"stateMutability":"view"},{"type":"function","name":"deposit","inputs":[{"name":"assets","type":"uint256","internalType":"uint256"},{"name":"receiver","type":"address","internalType":"address"}],"outputs":[{"name":"shares","type":"uint256","internalType":"uint256"}],"stateMutability":"nonpayable"},{"type":"function","name":"getPooledEthByShares","inputs":[{"name":"_sharesAmount","type":"uint256","internalType":"uint256"}],"outputs":[{"name":"","type":"uint256","internalType":"uint256"}],"stateMutability":"view"},{"type":"function","name":"getSharesByPooledEth","inputs":[{"name":"_ethAmount","type":"uint256","internalType":"uint256"}],"outputs":[{"name":"","type":"uint256","internalType":"uint256"}],"stateMutability":"view"},{"type":"function","name":"getTotalPooledEther","inputs":[],"outputs":[{"name":"","type":"uint256","internalType":"uint256"}],"stateMutability":"view"},{"type":"function","name":"getTotalShares","inputs":[],"outputs":[{"name":"","type":"uint256","internalType":"uint256"}],"stateMutability":"view"},{"type":"function","name":"name","inputs":[],"outputs":[{"name":"","type":"string","internalType":"string"}],"stateMutability":"view"},{"type":"function","name":"redeem","inputs":[{"name":"shares","type":"uint256","internalType":"uint256"},{"name":"","type":"address","internalType":"address"},{"name":"owner","type":"address","internalType":"address"}],"outputs":[{"name":"assets","type":"uint256","internalType":"uint256"}],"stateMutability":"nonpayable"},{"type":"function","name":"sharesOf","inputs":[{"name":"account","type":"address","internalType":"address"}],"outputs":[{"name":"","type":"uint256","internalType":"uint256"}],"stateMutability":"view"},{"type":"function","name":"submit","inputs":[{"name":"referral","type":"address","internalType":"address"}],"outputs":[{"name":"amount","type":"uint256","internalType":"uint256"}],"stateMutability":"payable"},{"type":"function","name":"symbol","inputs":[],"outputs":[{"name":"","type":"string","internalType":"string"}],"stateMutability":"view"},{"type":"function","name":"totalAssets","inputs":[],"outputs":[{"name":"","type":"uint256","internalType":"uint256"}],"stateMutability":"view"},{"type":"function","name":"totalSupply","inputs":[],"outputs":[{"name":"","type":"uint256","internalType":"uint256"}],"stateMutability":"view"},{"type":"function","name":"transfer","inputs":[{"name":"to","type":"address","internalType":"address"},{"name":"value","type":"uint256","internalType":"uint256"}],"outputs":[{"name":"","type":"bool","internalType":"bool"}],"stateMutability":"nonpayable"},{"type":"function","name":"transferFrom","inputs":[{"name":"from","type":"address","internalType":"address"},{"name":"to","type":"address","internalType":"address"},{"name":"value","type":"uint256","internalType":"uint256"}],"outputs":[{"name":"","type":"bool","internalType":"bool"}],"stateMutability":"nonpayable"},{"type":"event","name":"Approval","inputs":[{"name":"owner","type":"address","indexed":true,"internalType":"address"},{"name":"spender","type":"address","indexed":true,"internalType":"address"},{"name":"value","type":"uint256","indexed":false,"internalType":"uint256"}],"anonymous":false},{"type":"event","name":"Transfer","inputs":[{"name":"from","type":"address","indexed":true,"internalType":"address"},{"name":"to","type":"address","indexed":true,"internalType":"address"},{"name":"value","type":"uint256","indexed":false,"internalType":"uint256"}],"anonymous":false},{"type":"error","name":"ERC20InsufficientAllowance","inputs":[{"name":"spender","type":"address","internalType":"address"},{"name":"allowance","type":"uint256","internalType":"uint256"},{"name":"needed","type":"uint256","internalType":"uint256"}]},{"type":"error","name":"ERC20InsufficientBalance","inputs":[{"name":"sender","type":"address","internalType":"address"},{"name":"balance","type":"uint256","internalType":"uint256"},{"name":"needed","type":"uint256","internalType":"uint256"}]},{"type":"error","name":"ERC20InvalidApprover","inputs":[{"name":"approver","type":"address","internalType":"address"}]},{"type":"error","name":"ERC20InvalidReceiver","inputs":[{"name":"receiver","type":"address","internalType":"address"}]},{"type":"error","name":"ERC20InvalidSender","inputs":[{"name":"sender","type":"address","internalType":"address"}]},{"type":"error","name":"ERC20InvalidSpender","inputs":[{"name":"spender","type":"address","internalType":"address"}]}],"bytecode":{"object":"0x608060405234801561000f575f5ffd5b50604051806040016040528060118152602001702634b2379029ba30b5b2b21022ba3432b960791b815250604051806040016040528060058152602001640e6e88aa8960db1b81525081600390816100679190610114565b5060046100748282610114565b5050506101ce565b634e487b7160e01b5f52604160045260245ffd5b600181811c908216806100a457607f821691505b6020821081036100c257634e487b7160e01b5f52602260045260245ffd5b50919050565b601f82111561010f57805f5260205f20601f840160051c810160208510156100ed5750805b601f840160051c820191505b8181101561010c575f81556001016100f9565b50505b505050565b81516001600160401b0381111561012d5761012d61007c565b6101418161013b8454610090565b846100c8565b6020601f821160018114610173575f831561015c5750848201515b5f19600385901b1c1916600184901b17845561010c565b5f84815260208120601f198516915b828110156101a25787850151825560209485019460019092019101610182565b50848210156101bf57868401515f19600387901b60f8161c191681555b50505050600190811b01905550565b610c40806101db5f395ff3fe60806040526004361061011b575f3560e01c806370a082311161009d578063ba08765211610062578063ba087652146102e6578063d5002f2e14610305578063dd62ed3e14610319578063ee7a7c041461035d578063f5eb42dc1461037e575f5ffd5b806370a082311461024d5780637a28fb881461028157806395d89b41146102a0578063a1903eab146102b4578063a9059cbb146102c7575f5ffd5b806319208451116100e357806319208451146101c157806323b872dd146101e0578063313ce567146101ff57806337cfdaca1461021a5780636e553f651461022e575f5ffd5b806301e1d1141461011f57806306fdde0314610147578063095ea7b3146101685780630d09365c1461019757806318160ddd146101ad575b5f5ffd5b34801561012a575f5ffd5b5061013460075481565b6040519081526020015b60405180910390f35b348015610152575f5ffd5b5061015b610398565b60405161013e91906109cd565b348015610173575f5ffd5b50610187610182366004610a1d565b610428565b604051901515815260200161013e565b3480156101a2575f5ffd5b506101ab610441565b005b3480156101b8575f5ffd5b50600254610134565b3480156101cc575f5ffd5b506101346101db366004610a45565b6104e5565b3480156101eb575f5ffd5b506101876101fa366004610a5c565b610506565b34801561020a575f5ffd5b506040516012815260200161013e565b348015610225575f5ffd5b50600754610134565b348015610239575f5ffd5b50610134610248366004610a96565b61052b565b348015610258575f5ffd5b50610134610267366004610ac0565b6001600160a01b03165f9081526020819052604090205490565b34801561028c575f5ffd5b5061013461029b366004610a45565b6105d1565b3480156102ab575f5ffd5b5061015b6105e8565b6101346102c2366004610ac0565b505f90565b3480156102d2575f5ffd5b506101876102e1366004610a1d565b6105f7565b3480156102f1575f5ffd5b50610134610300366004610ad9565b610604565b348015610310575f5ffd5b50610134610629565b348015610324575f5ffd5b50610134610333366004610b12565b6001600160a01b039182165f90815260016020908152604080832093909416825291909152205490565b348015610368575f5ffd5b50610134610377366004610a1d565b5f92915050565b348015610389575f5ffd5b506101346102c2366004610ac0565b6060600380546103a790610b3a565b80601f01602080910402602001604051908101604052809291908181526020018280546103d390610b3a565b801561041e5780601f106103f55761010080835404028352916020019161041e565b820191905f5260205f20905b81548152906001019060200180831161040157829003601f168201915b5050505050905090565b5f33610435818585610638565b60019150505b92915050565b5f61045b65048c2739500061045560025490565b90610645565b90505f61047161046a60025490565b8390610667565b90505f5b6005548110156104e0575f6005828154811061049357610493610b72565b5f9182526020822001546001600160a01b031691506104ca84610455846001600160a01b03165f9081526020819052604090205490565b90506104d6828261068c565b5050600101610475565b505050565b5f6007546104f260025490565b6104fc9084610b9a565b61043b9190610bc5565b5f336105138582856106c9565b61051e858585610744565b60019150505b9392505050565b6001600160a01b0381165f9081526006602052604081205460ff166105ad576005805460018082019092557f036b6384b5eca791c62761152d0c79bb0604c104a5fb6f4eb0703f3154bb3db00180546001600160a01b0319166001600160a01b0385169081179091555f908152600660205260409020805460ff191690911790555b8260075f8282546105be9190610be4565b9091555083915061043b9050828261068c565b5f6105db60025490565b6007546104fc9084610b9a565b6060600480546103a790610b3a565b5f33610435818585610744565b5f8390508060075f8282546106199190610bf7565b90915550610524905082856107a1565b5f61063360025490565b905090565b6104e083838360016107d5565b5f806106518385610b9a565b9050670de0b6b3a7640000815b04949350505050565b5f8061067b670de0b6b3a764000085610b9a565b905082818161065e5761065e610bb1565b6001600160a01b0382166106ba5760405163ec442f0560e01b81525f60048201526024015b60405180910390fd5b6106c55f83836108a7565b5050565b6001600160a01b038381165f908152600160209081526040808320938616835292905220545f19811461073e578181101561073057604051637dc7a0d960e11b81526001600160a01b038416600482015260248101829052604481018390526064016106b1565b61073e84848484035f6107d5565b50505050565b6001600160a01b03831661076d57604051634b637e8f60e11b81525f60048201526024016106b1565b6001600160a01b0382166107965760405163ec442f0560e01b81525f60048201526024016106b1565b6104e08383836108a7565b6001600160a01b0382166107ca57604051634b637e8f60e11b81525f60048201526024016106b1565b6106c5825f836108a7565b6001600160a01b0384166107fe5760405163e602df0560e01b81525f60048201526024016106b1565b6001600160a01b03831661082757604051634a1406b160e11b81525f60048201526024016106b1565b6001600160a01b038085165f908152600160209081526040808320938716835292905220829055801561073e57826001600160a01b0316846001600160a01b03167f8c5be1e5ebec7d5bd14f71427d1e84f3dd0314c0f7b2291e5b200ac8c7c3b9258460405161089991815260200190565b60405180910390a350505050565b6001600160a01b0383166108d1578060025f8282546108c69190610be4565b909155506109419050565b6001600160a01b0383165f90815260208190526040902054818110156109235760405163391434e360e21b81526001600160a01b038516600482015260248101829052604481018390526064016106b1565b6001600160a01b0384165f9081526020819052604090209082900390555b6001600160a01b03821661095d5760028054829003905561097b565b6001600160a01b0382165f9081526020819052604090208054820190555b816001600160a01b0316836001600160a01b03167fddf252ad1be2c89b69c2b068fc378daa952ba7f163c4a11628f55a4df523b3ef836040516109c091815260200190565b60405180910390a3505050565b602081525f82518060208401528060208501604085015e5f604082850101526040601f19601f83011684010191505092915050565b80356001600160a01b0381168114610a18575f5ffd5b919050565b5f5f60408385031215610a2e575f5ffd5b610a3783610a02565b946020939093013593505050565b5f60208284031215610a55575f5ffd5b5035919050565b5f5f5f60608486031215610a6e575f5ffd5b610a7784610a02565b9250610a8560208501610a02565b929592945050506040919091013590565b5f5f60408385031215610aa7575f5ffd5b82359150610ab760208401610a02565b90509250929050565b5f60208284031215610ad0575f5ffd5b61052482610a02565b5f5f5f60608486031215610aeb575f5ffd5b83359250610afb60208501610a02565b9150610b0960408501610a02565b90509250925092565b5f5f60408385031215610b23575f5ffd5b610b2c83610a02565b9150610ab760208401610a02565b600181811c90821680610b4e57607f821691505b602082108103610b6c57634e487b7160e01b5f52602260045260245ffd5b50919050565b634e487b7160e01b5f52603260045260245ffd5b634e487b7160e01b5f52601160045260245ffd5b808202811582820484141761043b5761043b610b86565b634e487b7160e01b5f52601260045260245ffd5b5f82610bdf57634e487b7160e01b5f52601260045260245ffd5b500490565b8082018082111561043b5761043b610b86565b8181038181111561043b5761043b610b8656fea2646970667358221220642a21d2a28417d2beffff08fdc7ccfae75928168b7b2f420785e631ef6c37ca64736f6c634300081b0033","linkReferences":{}},"methodIdentifiers":{"addInterest()":"0d09365c","allowance(address,address)":"dd62ed3e","approve(address,uint256)":"095ea7b3","balanceOf(address)":"70a08231","burnShares(address,uint256)":"ee7a7c04","decimals()":"313ce567","deposit(uint256,address)":"6e553f65","getPooledEthByShares(uint256)":"7a28fb88","getSharesByPooledEth(uint256)":"19208451","getTotalPooledEther()":"37cfdaca","getTotalShares()":"d5002f2e","name()":"06fdde03","redeem(uint256,address,address)":"ba087652","sharesOf(address)":"f5eb42dc","submit(address)":"a1903eab","symbol()":"95d89b41","totalAssets()":"01e1d114","totalSupply()":"18160ddd","transfer(address,uint256)":"a9059cbb","transferFrom(address,address,uint256)":"23b872dd"},"id":99}