{"abi":[{"type":"function","name":"addInterest","inputs":[],"outputs":[],"stateMutability":"nonpayable"},{"type":"function","name":"allowance","inputs":[{"name":"owner","type":"address","internalType":"address"},{"name":"spender","type":"address","internalType":"address"}],"outputs":[{"name":"","type":"uint256","internalType":"uint256"}],"stateMutability":"view"},{"type":"function","name":"approve","inputs":[{"name":"spender","type":"address","internalType":"address"},{"name":"value","type":"uint256","internalType":"uint256"}],"outputs":[{"name":"","type":"bool","internalType":"bool"}],"stateMutability":"nonpayable"},{"type":"function","name":"balanceOf","inputs":[{"name":"account","type":"address","internalType":"address"}],"outputs":[{"name":"","type":"uint256","internalType":"uint256"}],"stateMutability":"view"},{"type":"function","name":"burnShares","inputs":[{"name":"_account","type":"address","internalType":"address"},{"name":"_sharesAmount","type":"uint256","internalType":"uint256"}],"outputs":[{"name":"newTotalShares","type":"uint256","internalType":"uint256"}],"stateMutability":"nonpayable"},{"type":"function","name":"decimals","inputs":[],"outputs":[{"name":"","type":"uint8","internalType":"uint8"}],"stateMutability":"view"},{"type":"function","name":"deposit","inputs":[{"name":"assets","type":"uint256","internalType":"uint256"},{"name":"receiver","type":"address","internalType":"address"}],"outputs":[{"name":"shares","type":"uint256","internalType":"uint256"}],"stateMutability":"nonpayable"},{"type":"function","name":"getPooledEthByShares","inputs":[{"name":"_sharesAmount","type":"uint256","internalType":"uint256"}],"outputs":[{"name":"","type":"uint256","internalType":"uint256"}],"stateMutability":"view"},{"type":"function","name":"getSharesByPooledEth","inputs":[{"name":"_ethAmount","type":"uint256","internalType":"uint256"}],"outputs":[{"name":"","type":"uint256","internalType":"uint256"}],"stateMutability":"view"},{"type":"function","name":"getTotalPooledEther","inputs":[],"outputs":[{"name":"","type":"uint256","internalType":"uint256"}],"stateMutability":"view"},{"type":"function","name":"getTotalShares","inputs":[],"outputs":[{"name":"","type":"uint256","internalType":"uint256"}],"stateMutability":"view"},{"type":"function","name":"name","inputs":[],"outputs":[{"name":"","type":"string","internalType":"string"}],"stateMutability":"view"},{"type":"function","name":"redeem","inputs":[{"name":"shares","type":"uint256","internalType":"uint256"},{"name":"","type":"address","internalType":"address"},{"name":"owner","type":"address","internalType":"address"}],"outputs":[{"name":"assets","type":"uint256","internalType":"uint256"}],"stateMutability":"nonpayable"},{"type":"function","name":"sharesOf","inputs":[{"name":"account","type":"address","internalType":"address"}],"outputs":[{"name":"","type":"uint256","internalType":"uint256"}],"stateMutability":"view"},{"type":"function","name":"submit","inputs":[{"name":"referral","type":"address","internalType":"address"}],"outputs":[{"name":"amount","type":"uint256","internalType":"uint256"}],"stateMutability":"payable"},{"type":"function","name":"symbol","inputs":[],"outputs":[{"name":"","type":"string","internalType":"string"}],"stateMutability":"view"},{"type":"function","name":"totalAssets","inputs":[],"outputs":[{"name":"","type":"uint256","internalType":"uint256"}],"stateMutability":"view"},{"type":"function","name":"totalSupply","inputs":[],"outputs":[{"name":"","type":"uint256","internalType":"uint256"}],"stateMutability":"view"},{"type":"function","name":"transfer","inputs":[{"name":"to","type":"address","internalType":"address"},{"name":"value","type":"uint256","internalType":"uint256"}],"outputs":[{"name":"","type":"bool","internalType":"bool"}],"stateMutability":"nonpayable"},{"type":"function","name":"transferFrom","inputs":[{"name":"from","type":"address","internalType":"address"},{"name":"to","type":"address","internalType":"address"},{"name":"value","type":"uint256","internalType":"uint256"}],"outputs":[{"name":"","type":"bool","internalType":"bool"}],"stateMutability":"nonpayable"},{"type":"event","name":"Approval","inputs":[{"name":"owner","type":"address","indexed":true,"internalType":"address"},{"name":"spender","type":"address","indexed":true,"internalType":"address"},{"name":"value","type":"uint256","indexed":false,"internalType":"uint256"}],"anonymous":false},{"type":"event","name":"Transfer","inputs":[{"name":"from","type":"address","indexed":true,"internalType":"address"},{"name":"to","type":"address","indexed":true,"internalType":"address"},{"name":"value","type":"uint256","indexed":false,"internalType":"uint256"}],"anonymous":false},{"type":"error","name":"ERC20InsufficientAllowance","inputs":[{"name":"spender","type":"address","internalType":"address"},{"name":"allowance","type":"uint256","internalType":"uint256"},{"name":"needed","type":"uint256","internalType":"uint256"}]},{"type":"error","name":"ERC20InsufficientBalance","inputs":[{"name":"sender","type":"address","internalType":"address"},{"name":"balance","type":"uint256","internalType":"uint256"},{"name":"needed","type":"uint256","internalType":"uint256"}]},{"type":"error","name":"ERC20InvalidApprover","inputs":[{"name":"approver","type":"address","internalType":"address"}]},{"type":"error","name":"ERC20InvalidReceiver","inputs":[{"name":"receiver","type":"address","internalType":"address"}]},{"type":"error","name":"ERC20InvalidSender","inputs":[{"name":"sender","type":"address","internalType":"address"}]},{"type":"error","name":"ERC20InvalidSpender","inputs":[{"name":"spender","type":"address","internalType":"address"}]}],"bytecode":{"object":"0x608060405234801561001057600080fd5b50604051806040016040528060118152602001702634b2379029ba30b5b2b21022ba3432b960791b815250604051806040016040528060058152602001640e6e88aa8960db1b8152508160039081610068919061011c565b506004610075828261011c565b5050506101da565b634e487b7160e01b600052604160045260246000fd5b600181811c908216806100a757607f821691505b6020821081036100c757634e487b7160e01b600052602260045260246000fd5b50919050565b601f82111561011757806000526020600020601f840160051c810160208510156100f45750805b601f840160051c820191505b818110156101145760008155600101610100565b50505b505050565b81516001600160401b038111156101355761013561007d565b610149816101438454610093565b846100cd565b6020601f82116001811461017d57600083156101655750848201515b600019600385901b1c1916600184901b178455610114565b600084815260208120601f198516915b828110156101ad578785015182556020948501946001909201910161018d565b50848210156101cb5786840151600019600387901b60f8161c191681555b50505050600190811b01905550565b610cb6806101e96000396000f3fe60806040526004361061011f5760003560e01c806370a08231116100a0578063ba08765211610064578063ba087652146102fb578063d5002f2e1461031b578063dd62ed3e14610330578063ee7a7c0414610376578063f5eb42dc1461039957600080fd5b806370a082311461025c5780637a28fb881461029257806395d89b41146102b2578063a1903eab146102c7578063a9059cbb146102db57600080fd5b806319208451116100e757806319208451146101cb57806323b872dd146101eb578063313ce5671461020b57806337cfdaca146102275780636e553f651461023c57600080fd5b806301e1d1141461012457806306fdde031461014d578063095ea7b31461016f5780630d09365c1461019f57806318160ddd146101b6575b600080fd5b34801561013057600080fd5b5061013a60075481565b6040519081526020015b60405180910390f35b34801561015957600080fd5b506101626103b4565b6040516101449190610a0e565b34801561017b57600080fd5b5061018f61018a366004610a78565b610446565b6040519015158152602001610144565b3480156101ab57600080fd5b506101b4610460565b005b3480156101c257600080fd5b5060025461013a565b3480156101d757600080fd5b5061013a6101e6366004610aa2565b61050a565b3480156101f757600080fd5b5061018f610206366004610abb565b61052c565b34801561021757600080fd5b5060405160128152602001610144565b34801561023357600080fd5b5060075461013a565b34801561024857600080fd5b5061013a610257366004610af8565b610552565b34801561026857600080fd5b5061013a610277366004610b24565b6001600160a01b031660009081526020819052604090205490565b34801561029e57600080fd5b5061013a6102ad366004610aa2565b6105fb565b3480156102be57600080fd5b50610162610613565b61013a6102d5366004610b24565b50600090565b3480156102e757600080fd5b5061018f6102f6366004610a78565b610622565b34801561030757600080fd5b5061013a610316366004610b3f565b610630565b34801561032757600080fd5b5061013a610657565b34801561033c57600080fd5b5061013a61034b366004610b7b565b6001600160a01b03918216600090815260016020908152604080832093909416825291909152205490565b34801561038257600080fd5b5061013a610391366004610a78565b600092915050565b3480156103a557600080fd5b5061013a6102d5366004610b24565b6060600380546103c390610ba5565b80601f01602080910402602001604051908101604052809291908181526020018280546103ef90610ba5565b801561043c5780601f106104115761010080835404028352916020019161043c565b820191906000526020600020905b81548152906001019060200180831161041f57829003601f168201915b5050505050905090565b600033610454818585610667565b60019150505b92915050565b600061047b65048c2739500061047560025490565b90610674565b9050600061049261048b60025490565b8390610697565b905060005b600554811015610505576000600582815481106104b6576104b6610bdf565b60009182526020822001546001600160a01b031691506104ef84610475846001600160a01b031660009081526020819052604090205490565b90506104fb82826106bd565b5050600101610497565b505050565b600060075461051860025490565b6105229084610c0b565b61045a9190610c38565b60003361053a8582856106fc565b61054585858561077a565b60019150505b9392505050565b6001600160a01b03811660009081526006602052604081205460ff166105d6576005805460018082019092557f036b6384b5eca791c62761152d0c79bb0604c104a5fb6f4eb0703f3154bb3db00180546001600160a01b0319166001600160a01b0385169081179091556000908152600660205260409020805460ff191690911790555b82600760008282546105e89190610c5a565b9091555083915061045a905082826106bd565b600061060660025490565b6007546105229084610c0b565b6060600480546103c390610ba5565b60003361045481858561077a565b600083905080600760008282546106479190610c6d565b9091555061054b905082856107d9565b600061066260025490565b905090565b610505838383600161080f565b6000806106818385610c0b565b9050670de0b6b3a7640000815b04949350505050565b6000806106ac670de0b6b3a764000085610c0b565b905082818161068e5761068e610c22565b6001600160a01b0382166106ec5760405163ec442f0560e01b8152600060048201526024015b60405180910390fd5b6106f8600083836108e4565b5050565b6001600160a01b038381166000908152600160209081526040808320938616835292905220546000198114610774578181101561076557604051637dc7a0d960e11b81526001600160a01b038416600482015260248101829052604481018390526064016106e3565b6107748484848403600061080f565b50505050565b6001600160a01b0383166107a457604051634b637e8f60e11b8152600060048201526024016106e3565b6001600160a01b0382166107ce5760405163ec442f0560e01b8152600060048201526024016106e3565b6105058383836108e4565b6001600160a01b03821661080357604051634b637e8f60e11b8152600060048201526024016106e3565b6106f8826000836108e4565b6001600160a01b0384166108395760405163e602df0560e01b8152600060048201526024016106e3565b6001600160a01b03831661086357604051634a1406b160e11b8152600060048201526024016106e3565b6001600160a01b038085166000908152600160209081526040808320938716835292905220829055801561077457826001600160a01b0316846001600160a01b03167f8c5be1e5ebec7d5bd14f71427d1e84f3dd0314c0f7b2291e5b200ac8c7c3b925846040516108d691815260200190565b60405180910390a350505050565b6001600160a01b03831661090f5780600260008282546109049190610c5a565b909155506109819050565b6001600160a01b038316600090815260208190526040902054818110156109625760405163391434e360e21b81526001600160a01b038516600482015260248101829052604481018390526064016106e3565b6001600160a01b03841660009081526020819052604090209082900390555b6001600160a01b03821661099d576002805482900390556109bc565b6001600160a01b03821660009081526020819052604090208054820190555b816001600160a01b0316836001600160a01b03167fddf252ad1be2c89b69c2b068fc378daa952ba7f163c4a11628f55a4df523b3ef83604051610a0191815260200190565b60405180910390a3505050565b602081526000825180602084015260005b81811015610a3c5760208186018101516040868401015201610a1f565b506000604082850101526040601f19601f83011684010191505092915050565b80356001600160a01b0381168114610a7357600080fd5b919050565b60008060408385031215610a8b57600080fd5b610a9483610a5c565b946020939093013593505050565b600060208284031215610ab457600080fd5b5035919050565b600080600060608486031215610ad057600080fd5b610ad984610a5c565b9250610ae760208501610a5c565b929592945050506040919091013590565b60008060408385031215610b0b57600080fd5b82359150610b1b60208401610a5c565b90509250929050565b600060208284031215610b3657600080fd5b61054b82610a5c565b600080600060608486031215610b5457600080fd5b83359250610b6460208501610a5c565b9150610b7260408501610a5c565b90509250925092565b60008060408385031215610b8e57600080fd5b610b9783610a5c565b9150610b1b60208401610a5c565b600181811c90821680610bb957607f821691505b602082108103610bd957634e487b7160e01b600052602260045260246000fd5b50919050565b634e487b7160e01b600052603260045260246000fd5b634e487b7160e01b600052601160045260246000fd5b808202811582820484141761045a5761045a610bf5565b634e487b7160e01b600052601260045260246000fd5b600082610c5557634e487b7160e01b600052601260045260246000fd5b500490565b8082018082111561045a5761045a610bf5565b8181038181111561045a5761045a610bf556fea264697066735822122038a282b464d5a1a32c9a1fc51987f5b10211e0fea5652555260fa4a12197d6cc64736f6c634300081b0033","linkReferences":{}},"methodIdentifiers":{"addInterest()":"0d09365c","allowance(address,address)":"dd62ed3e","approve(address,uint256)":"095ea7b3","balanceOf(address)":"70a08231","burnShares(address,uint256)":"ee7a7c04","decimals()":"313ce567","deposit(uint256,address)":"6e553f65","getPooledEthByShares(uint256)":"7a28fb88","getSharesByPooledEth(uint256)":"19208451","getTotalPooledEther()":"37cfdaca","getTotalShares()":"d5002f2e","name()":"06fdde03","redeem(uint256,address,address)":"ba087652","sharesOf(address)":"f5eb42dc","submit(address)":"a1903eab","symbol()":"95d89b41","totalAssets()":"01e1d114","totalSupply()":"18160ddd","transfer(address,uint256)":"a9059cbb","transferFrom(address,address,uint256)":"23b872dd"},"id":79}