{"abi":[{"type":"function","name":"addInterest","inputs":[],"outputs":[],"stateMutability":"nonpayable"},{"type":"function","name":"allowance","inputs":[{"name":"owner","type":"address","internalType":"address"},{"name":"spender","type":"address","internalType":"address"}],"outputs":[{"name":"","type":"uint256","internalType":"uint256"}],"stateMutability":"view"},{"type":"function","name":"approve","inputs":[{"name":"spender","type":"address","internalType":"address"},{"name":"value","type":"uint256","internalType":"uint256"}],"outputs":[{"name":"","type":"bool","internalType":"bool"}],"stateMutability":"nonpayable"},{"type":"function","name":"asset","inputs":[],"outputs":[{"name":"","type":"address","internalType":"address"}],"stateMutability":"view"},{"type":"function","name":"balanceOf","inputs":[{"name":"account","type":"address","internalType":"address"}],"outputs":[{"name":"","type":"uint256","internalType":"uint256"}],"stateMutability":"view"},{"type":"function","name":"decimals","inputs":[],"outputs":[{"name":"","type":"uint8","internalType":"uint8"}],"stateMutability":"view"},{"type":"function","name":"deposit","inputs":[{"name":"assets","type":"uint256","internalType":"uint256"},{"name":"receiver","type":"address","internalType":"address"}],"outputs":[{"name":"shares","type":"uint256","internalType":"uint256"}],"stateMutability":"nonpayable"},{"type":"function","name":"depositWithReferral","inputs":[{"name":"referral","type":"address","internalType":"address"}],"outputs":[],"stateMutability":"payable"},{"type":"function","name":"getRate","inputs":[],"outputs":[{"name":"","type":"uint256","internalType":"uint256"}],"stateMutability":"view"},{"type":"function","name":"name","inputs":[],"outputs":[{"name":"","type":"string","internalType":"string"}],"stateMutability":"view"},{"type":"function","name":"redeem","inputs":[{"name":"shares","type":"uint256","internalType":"uint256"},{"name":"","type":"address","internalType":"address"},{"name":"owner","type":"address","internalType":"address"}],"outputs":[{"name":"assets","type":"uint256","internalType":"uint256"}],"stateMutability":"nonpayable"},{"type":"function","name":"symbol","inputs":[],"outputs":[{"name":"","type":"string","internalType":"string"}],"stateMutability":"view"},{"type":"function","name":"totalAssets","inputs":[],"outputs":[{"name":"","type":"uint256","internalType":"uint256"}],"stateMutability":"view"},{"type":"function","name":"totalSupply","inputs":[],"outputs":[{"name":"","type":"uint256","internalType":"uint256"}],"stateMutability":"view"},{"type":"function","name":"transfer","inputs":[{"name":"to","type":"address","internalType":"address"},{"name":"value","type":"uint256","internalType":"uint256"}],"outputs":[{"name":"","type":"bool","internalType":"bool"}],"stateMutability":"nonpayable"},{"type":"function","name":"transferFrom","inputs":[{"name":"from","type":"address","internalType":"address"},{"name":"to","type":"address","internalType":"address"},{"name":"value","type":"uint256","internalType":"uint256"}],"outputs":[{"name":"","type":"bool","internalType":"bool"}],"stateMutability":"nonpayable"},{"type":"event","name":"Approval","inputs":[{"name":"owner","type":"address","indexed":true,"internalType":"address"},{"name":"spender","type":"address","indexed":true,"internalType":"address"},{"name":"value","type":"uint256","indexed":false,"internalType":"uint256"}],"anonymous":false},{"type":"event","name":"Transfer","inputs":[{"name":"from","type":"address","indexed":true,"internalType":"address"},{"name":"to","type":"address","indexed":true,"internalType":"address"},{"name":"value","type":"uint256","indexed":false,"internalType":"uint256"}],"anonymous":false},{"type":"error","name":"ERC20InsufficientAllowance","inputs":[{"name":"spender","type":"address","internalType":"address"},{"name":"allowance","type":"uint256","internalType":"uint256"},{"name":"needed","type":"uint256","internalType":"uint256"}]},{"type":"error","name":"ERC20InsufficientBalance","inputs":[{"name":"sender","type":"address","internalType":"address"},{"name":"balance","type":"uint256","internalType":"uint256"},{"name":"needed","type":"uint256","internalType":"uint256"}]},{"type":"error","name":"ERC20InvalidApprover","inputs":[{"name":"approver","type":"address","internalType":"address"}]},{"type":"error","name":"ERC20InvalidReceiver","inputs":[{"name":"receiver","type":"address","internalType":"address"}]},{"type":"error","name":"ERC20InvalidSender","inputs":[{"name":"sender","type":"address","internalType":"address"}]},{"type":"error","name":"ERC20InvalidSpender","inputs":[{"name":"spender","type":"address","internalType":"address"}]}],"bytecode":{"object":"0x60a060405234801561001057600080fd5b506040518060400160405280601281526020017129bbb2b6361029ba30b5b2b21022ba3432b960711b815250604051806040016040528060058152602001640e6ee8aa8960db1b8152508160039081610069919061011d565b506004610076828261011d565b5050506101db565b634e487b7160e01b600052604160045260246000fd5b600181811c908216806100a857607f821691505b6020821081036100c857634e487b7160e01b600052602260045260246000fd5b50919050565b601f82111561011857806000526020600020601f840160051c810160208510156100f55750805b601f840160051c820191505b818110156101155760008155600101610101565b50505b505050565b81516001600160401b038111156101365761013661007e565b61014a816101448454610094565b846100ce565b6020601f82116001811461017e57600083156101665750848201515b600019600385901b1c1916600184901b178455610115565b600084815260208120601f198516915b828110156101ae578785015182556020948501946001909201910161018e565b50848210156101cc5786840151600019600387901b60f8161c191681555b50505050600190811b01905550565b608051610b7f6101f660003960006101ed0152610b7f6000f3fe6080604052600436106100f35760003560e01c8063679aefce1161008a578063a9059cbb11610059578063a9059cbb146102a7578063ba087652146102c7578063c18d7cb7146102e7578063dd62ed3e146102f857600080fd5b8063679aefce146102275780636e553f651461023c57806370a082311461025c57806395d89b411461029257600080fd5b806318160ddd116100c657806318160ddd1461018a57806323b872dd1461019f578063313ce567146101bf57806338d52e0f146101db57600080fd5b806301e1d114146100f857806306fdde0314610121578063095ea7b3146101435780630d09365c14610173575b600080fd5b34801561010457600080fd5b5061010e60055481565b6040519081526020015b60405180910390f35b34801561012d57600080fd5b5061013661033e565b6040516101189190610906565b34801561014f57600080fd5b5061016361015e366004610970565b6103d0565b6040519015158152602001610118565b34801561017f57600080fd5b506101886103ea565b005b34801561019657600080fd5b5060025461010e565b3480156101ab57600080fd5b506101636101ba36600461099a565b61042d565b3480156101cb57600080fd5b5060405160128152602001610118565b3480156101e757600080fd5b5061020f7f000000000000000000000000000000000000000000000000000000000000000081565b6040516001600160a01b039091168152602001610118565b34801561023357600080fd5b5061010e610453565b34801561024857600080fd5b5061010e6102573660046109d7565b61049e565b34801561026857600080fd5b5061010e610277366004610a03565b6001600160a01b031660009081526020819052604090205490565b34801561029e57600080fd5b506101366104f6565b3480156102b357600080fd5b506101636102c2366004610970565b610505565b3480156102d357600080fd5b5061010e6102e2366004610a1e565b610513565b6101886102f5366004610a03565b50565b34801561030457600080fd5b5061010e610313366004610a5a565b6001600160a01b03918216600090815260016020908152604080832093909416825291909152205490565b60606003805461034d90610a84565b80601f016020809104026020016040519081016040528092919081815260200182805461037990610a84565b80156103c65780601f1061039b576101008083540402835291602001916103c6565b820191906000526020600020905b8154815290600101906020018083116103a957829003601f168201915b5050505050905090565b6000336103de81858561055a565b60019150505b92915050565b60006103f560025490565b111561042b5761041465048c2739500061040e60025490565b9061056c565b600560008282546104259190610ad4565b90915550505b565b60003361043b85828561058f565b610446858585610612565b60019150505b9392505050565b60008061045f60025490565b11156104915761048c61047d61047460025490565b60055490610671565b670de0b6b3a76400009061056c565b905090565b50670de0b6b3a764000090565b6000806104aa60025490565b11156104d1576005546002546104c09085610ae7565b6104ca9190610b14565b90506104d4565b50815b82600560008282546104e69190610ad4565b909155506103e490508282610697565b60606004805461034d90610a84565b6000336103de818585610612565b600061051e60025490565b8460055461052c9190610ae7565b6105369190610b14565b9050806005600082825461054a9190610b36565b9091555061044c905082856106d1565b6105678383836001610707565b505050565b6000806105798385610ae7565b9050670de0b6b3a7640000815b04949350505050565b6001600160a01b03838116600090815260016020908152604080832093861683529290522054600019811461060c57818110156105fd57604051637dc7a0d960e11b81526001600160a01b038416600482015260248101829052604481018390526064015b60405180910390fd5b61060c84848484036000610707565b50505050565b6001600160a01b03831661063c57604051634b637e8f60e11b8152600060048201526024016105f4565b6001600160a01b0382166106665760405163ec442f0560e01b8152600060048201526024016105f4565b6105678383836107dc565b600080610686670de0b6b3a764000085610ae7565b905082818161058657610586610afe565b6001600160a01b0382166106c15760405163ec442f0560e01b8152600060048201526024016105f4565b6106cd600083836107dc565b5050565b6001600160a01b0382166106fb57604051634b637e8f60e11b8152600060048201526024016105f4565b6106cd826000836107dc565b6001600160a01b0384166107315760405163e602df0560e01b8152600060048201526024016105f4565b6001600160a01b03831661075b57604051634a1406b160e11b8152600060048201526024016105f4565b6001600160a01b038085166000908152600160209081526040808320938716835292905220829055801561060c57826001600160a01b0316846001600160a01b03167f8c5be1e5ebec7d5bd14f71427d1e84f3dd0314c0f7b2291e5b200ac8c7c3b925846040516107ce91815260200190565b60405180910390a350505050565b6001600160a01b0383166108075780600260008282546107fc9190610ad4565b909155506108799050565b6001600160a01b0383166000908152602081905260409020548181101561085a5760405163391434e360e21b81526001600160a01b038516600482015260248101829052604481018390526064016105f4565b6001600160a01b03841660009081526020819052604090209082900390555b6001600160a01b038216610895576002805482900390556108b4565b6001600160a01b03821660009081526020819052604090208054820190555b816001600160a01b0316836001600160a01b03167fddf252ad1be2c89b69c2b068fc378daa952ba7f163c4a11628f55a4df523b3ef836040516108f991815260200190565b60405180910390a3505050565b602081526000825180602084015260005b818110156109345760208186018101516040868401015201610917565b506000604082850101526040601f19601f83011684010191505092915050565b80356001600160a01b038116811461096b57600080fd5b919050565b6000806040838503121561098357600080fd5b61098c83610954565b946020939093013593505050565b6000806000606084860312156109af57600080fd5b6109b884610954565b92506109c660208501610954565b929592945050506040919091013590565b600080604083850312156109ea57600080fd5b823591506109fa60208401610954565b90509250929050565b600060208284031215610a1557600080fd5b61044c82610954565b600080600060608486031215610a3357600080fd5b83359250610a4360208501610954565b9150610a5160408501610954565b90509250925092565b60008060408385031215610a6d57600080fd5b610a7683610954565b91506109fa60208401610954565b600181811c90821680610a9857607f821691505b602082108103610ab857634e487b7160e01b600052602260045260246000fd5b50919050565b634e487b7160e01b600052601160045260246000fd5b808201808211156103e4576103e4610abe565b80820281158282048414176103e4576103e4610abe565b634e487b7160e01b600052601260045260246000fd5b600082610b3157634e487b7160e01b600052601260045260246000fd5b500490565b818103818111156103e4576103e4610abe56fea264697066735822122043f2dbba71b56b5a5fb21ad4593a2a7233eb0ecc6bffd95119509b6cd1730f2e64736f6c634300081b0033","linkReferences":{}},"methodIdentifiers":{"addInterest()":"0d09365c","allowance(address,address)":"dd62ed3e","approve(address,uint256)":"095ea7b3","asset()":"38d52e0f","balanceOf(address)":"70a08231","decimals()":"313ce567","deposit(uint256,address)":"6e553f65","depositWithReferral(address)":"c18d7cb7","getRate()":"679aefce","name()":"06fdde03","redeem(uint256,address,address)":"ba087652","symbol()":"95d89b41","totalAssets()":"01e1d114","totalSupply()":"18160ddd","transfer(address,uint256)":"a9059cbb","transferFrom(address,address,uint256)":"23b872dd"},"id":80}