{"abi":[{"type":"function","name":"addInterest","inputs":[],"outputs":[],"stateMutability":"nonpayable"},{"type":"function","name":"allowance","inputs":[{"name":"owner","type":"address","internalType":"address"},{"name":"spender","type":"address","internalType":"address"}],"outputs":[{"name":"","type":"uint256","internalType":"uint256"}],"stateMutability":"view"},{"type":"function","name":"approve","inputs":[{"name":"spender","type":"address","internalType":"address"},{"name":"value","type":"uint256","internalType":"uint256"}],"outputs":[{"name":"","type":"bool","internalType":"bool"}],"stateMutability":"nonpayable"},{"type":"function","name":"asset","inputs":[],"outputs":[{"name":"","type":"address","internalType":"address"}],"stateMutability":"view"},{"type":"function","name":"balanceOf","inputs":[{"name":"account","type":"address","internalType":"address"}],"outputs":[{"name":"","type":"uint256","internalType":"uint256"}],"stateMutability":"view"},{"type":"function","name":"decimals","inputs":[],"outputs":[{"name":"","type":"uint8","internalType":"uint8"}],"stateMutability":"view"},{"type":"function","name":"deposit","inputs":[{"name":"assets","type":"uint256","internalType":"uint256"},{"name":"receiver","type":"address","internalType":"address"}],"outputs":[{"name":"shares","type":"uint256","internalType":"uint256"}],"stateMutability":"nonpayable"},{"type":"function","name":"depositWithReferral","inputs":[{"name":"referral","type":"address","internalType":"address"}],"outputs":[],"stateMutability":"payable"},{"type":"function","name":"getRate","inputs":[],"outputs":[{"name":"","type":"uint256","internalType":"uint256"}],"stateMutability":"view"},{"type":"function","name":"name","inputs":[],"outputs":[{"name":"","type":"string","internalType":"string"}],"stateMutability":"view"},{"type":"function","name":"redeem","inputs":[{"name":"shares","type":"uint256","internalType":"uint256"},{"name":"","type":"address","internalType":"address"},{"name":"owner","type":"address","internalType":"address"}],"outputs":[{"name":"assets","type":"uint256","internalType":"uint256"}],"stateMutability":"nonpayable"},{"type":"function","name":"symbol","inputs":[],"outputs":[{"name":"","type":"string","internalType":"string"}],"stateMutability":"view"},{"type":"function","name":"totalAssets","inputs":[],"outputs":[{"name":"","type":"uint256","internalType":"uint256"}],"stateMutability":"view"},{"type":"function","name":"totalSupply","inputs":[],"outputs":[{"name":"","type":"uint256","internalType":"uint256"}],"stateMutability":"view"},{"type":"function","name":"transfer","inputs":[{"name":"to","type":"address","internalType":"address"},{"name":"value","type":"uint256","internalType":"uint256"}],"outputs":[{"name":"","type":"bool","internalType":"bool"}],"stateMutability":"nonpayable"},{"type":"function","name":"transferFrom","inputs":[{"name":"from","type":"address","internalType":"address"},{"name":"to","type":"address","internalType":"address"},{"name":"value","type":"uint256","internalType":"uint256"}],"outputs":[{"name":"","type":"bool","internalType":"bool"}],"stateMutability":"nonpayable"},{"type":"event","name":"Approval","inputs":[{"name":"owner","type":"address","indexed":true,"internalType":"address"},{"name":"spender","type":"address","indexed":true,"internalType":"address"},{"name":"value","type":"uint256","indexed":false,"internalType":"uint256"}],"anonymous":false},{"type":"event","name":"Transfer","inputs":[{"name":"from","type":"address","indexed":true,"internalType":"address"},{"name":"to","type":"address","indexed":true,"internalType":"address"},{"name":"value","type":"uint256","indexed":false,"internalType":"uint256"}],"anonymous":false},{"type":"error","name":"ERC20InsufficientAllowance","inputs":[{"name":"spender","type":"address","internalType":"address"},{"name":"allowance","type":"uint256","internalType":"uint256"},{"name":"needed","type":"uint256","internalType":"uint256"}]},{"type":"error","name":"ERC20InsufficientBalance","inputs":[{"name":"sender","type":"address","internalType":"address"},{"name":"balance","type":"uint256","internalType":"uint256"},{"name":"needed","type":"uint256","internalType":"uint256"}]},{"type":"error","name":"ERC20InvalidApprover","inputs":[{"name":"approver","type":"address","internalType":"address"}]},{"type":"error","name":"ERC20InvalidReceiver","inputs":[{"name":"receiver","type":"address","internalType":"address"}]},{"type":"error","name":"ERC20InvalidSender","inputs":[{"name":"sender","type":"address","internalType":"address"}]},{"type":"error","name":"ERC20InvalidSpender","inputs":[{"name":"spender","type":"address","internalType":"address"}]}],"bytecode":{"object":"0x60a060405234801561000f575f5ffd5b506040518060400160405280601281526020017129bbb2b6361029ba30b5b2b21022ba3432b960711b815250604051806040016040528060058152602001640e6ee8aa8960db1b81525081600390816100689190610115565b5060046100758282610115565b5050506101cf565b634e487b7160e01b5f52604160045260245ffd5b600181811c908216806100a557607f821691505b6020821081036100c357634e487b7160e01b5f52602260045260245ffd5b50919050565b601f82111561011057805f5260205f20601f840160051c810160208510156100ee5750805b601f840160051c820191505b8181101561010d575f81556001016100fa565b50505b505050565b81516001600160401b0381111561012e5761012e61007d565b6101428161013c8454610091565b846100c9565b6020601f821160018114610174575f831561015d5750848201515b5f19600385901b1c1916600184901b17845561010d565b5f84815260208120601f198516915b828110156101a35787850151825560209485019460019092019101610183565b50848210156101c057868401515f19600387901b60f8161c191681555b50505050600190811b01905550565b608051610b1a6101e75f395f6101e00152610b1a5ff3fe6080604052600436106100ef575f3560e01c8063679aefce11610087578063a9059cbb11610057578063a9059cbb14610295578063ba087652146102b4578063c18d7cb7146102d3578063dd62ed3e146102e4575f5ffd5b8063679aefce1461021a5780636e553f651461022e57806370a082311461024d57806395d89b4114610281575f5ffd5b806318160ddd116100c257806318160ddd1461018157806323b872dd14610195578063313ce567146101b457806338d52e0f146101cf575f5ffd5b806301e1d114146100f357806306fdde031461011b578063095ea7b31461013c5780630d09365c1461016b575b5f5ffd5b3480156100fe575f5ffd5b5061010860055481565b6040519081526020015b60405180910390f35b348015610126575f5ffd5b5061012f610328565b60405161011291906108d2565b348015610147575f5ffd5b5061015b610156366004610922565b6103b8565b6040519015158152602001610112565b348015610176575f5ffd5b5061017f6103d1565b005b34801561018c575f5ffd5b50600254610108565b3480156101a0575f5ffd5b5061015b6101af36600461094a565b610412565b3480156101bf575f5ffd5b5060405160128152602001610112565b3480156101da575f5ffd5b506102027f000000000000000000000000000000000000000000000000000000000000000081565b6040516001600160a01b039091168152602001610112565b348015610225575f5ffd5b50610108610437565b348015610239575f5ffd5b50610108610248366004610984565b610481565b348015610258575f5ffd5b506101086102673660046109ae565b6001600160a01b03165f9081526020819052604090205490565b34801561028c575f5ffd5b5061012f6104d7565b3480156102a0575f5ffd5b5061015b6102af366004610922565b6104e6565b3480156102bf575f5ffd5b506101086102ce3660046109c7565b6104f3565b61017f6102e13660046109ae565b50565b3480156102ef575f5ffd5b506101086102fe366004610a00565b6001600160a01b039182165f90815260016020908152604080832093909416825291909152205490565b60606003805461033790610a28565b80601f016020809104026020016040519081016040528092919081815260200182805461036390610a28565b80156103ae5780601f10610385576101008083540402835291602001916103ae565b820191905f5260205f20905b81548152906001019060200180831161039157829003601f168201915b5050505050905090565b5f336103c5818585610538565b60019150505b92915050565b5f6103db60025490565b1115610410576103fa65048c273950006103f460025490565b9061054a565b60055f82825461040a9190610a74565b90915550505b565b5f3361041f85828561056c565b61042a8585856105ec565b60019150505b9392505050565b5f5f61044260025490565b11156104745761046f61046061045760025490565b60055490610649565b670de0b6b3a76400009061054a565b905090565b50670de0b6b3a764000090565b5f5f61048c60025490565b11156104b3576005546002546104a29085610a87565b6104ac9190610ab2565b90506104b6565b50815b8260055f8282546104c79190610a74565b909155506103cb9050828261066e565b60606004805461033790610a28565b5f336103c58185856105ec565b5f6104fd60025490565b8460055461050b9190610a87565b6105159190610ab2565b90508060055f8282546105289190610ad1565b90915550610430905082856106a6565b61054583838360016106da565b505050565b5f806105568385610a87565b9050670de0b6b3a7640000815b04949350505050565b6001600160a01b038381165f908152600160209081526040808320938616835292905220545f1981146105e657818110156105d857604051637dc7a0d960e11b81526001600160a01b038416600482015260248101829052604481018390526064015b60405180910390fd5b6105e684848484035f6106da565b50505050565b6001600160a01b03831661061557604051634b637e8f60e11b81525f60048201526024016105cf565b6001600160a01b03821661063e5760405163ec442f0560e01b81525f60048201526024016105cf565b6105458383836107ac565b5f8061065d670de0b6b3a764000085610a87565b905082818161056357610563610a9e565b6001600160a01b0382166106975760405163ec442f0560e01b81525f60048201526024016105cf565b6106a25f83836107ac565b5050565b6001600160a01b0382166106cf57604051634b637e8f60e11b81525f60048201526024016105cf565b6106a2825f836107ac565b6001600160a01b0384166107035760405163e602df0560e01b81525f60048201526024016105cf565b6001600160a01b03831661072c57604051634a1406b160e11b81525f60048201526024016105cf565b6001600160a01b038085165f90815260016020908152604080832093871683529290522082905580156105e657826001600160a01b0316846001600160a01b03167f8c5be1e5ebec7d5bd14f71427d1e84f3dd0314c0f7b2291e5b200ac8c7c3b9258460405161079e91815260200190565b60405180910390a350505050565b6001600160a01b0383166107d6578060025f8282546107cb9190610a74565b909155506108469050565b6001600160a01b0383165f90815260208190526040902054818110156108285760405163391434e360e21b81526001600160a01b038516600482015260248101829052604481018390526064016105cf565b6001600160a01b0384165f9081526020819052604090209082900390555b6001600160a01b03821661086257600280548290039055610880565b6001600160a01b0382165f9081526020819052604090208054820190555b816001600160a01b0316836001600160a01b03167fddf252ad1be2c89b69c2b068fc378daa952ba7f163c4a11628f55a4df523b3ef836040516108c591815260200190565b60405180910390a3505050565b602081525f82518060208401528060208501604085015e5f604082850101526040601f19601f83011684010191505092915050565b80356001600160a01b038116811461091d575f5ffd5b919050565b5f5f60408385031215610933575f5ffd5b61093c83610907565b946020939093013593505050565b5f5f5f6060848603121561095c575f5ffd5b61096584610907565b925061097360208501610907565b929592945050506040919091013590565b5f5f60408385031215610995575f5ffd5b823591506109a560208401610907565b90509250929050565b5f602082840312156109be575f5ffd5b61043082610907565b5f5f5f606084860312156109d9575f5ffd5b833592506109e960208501610907565b91506109f760408501610907565b90509250925092565b5f5f60408385031215610a11575f5ffd5b610a1a83610907565b91506109a560208401610907565b600181811c90821680610a3c57607f821691505b602082108103610a5a57634e487b7160e01b5f52602260045260245ffd5b50919050565b634e487b7160e01b5f52601160045260245ffd5b808201808211156103cb576103cb610a60565b80820281158282048414176103cb576103cb610a60565b634e487b7160e01b5f52601260045260245ffd5b5f82610acc57634e487b7160e01b5f52601260045260245ffd5b500490565b818103818111156103cb576103cb610a6056fea2646970667358221220352568071cf7ad79acf51b9a8613457ae7b0e52a4800e3f6574c33d1c9d0c0a264736f6c634300081b0033","linkReferences":{}},"methodIdentifiers":{"addInterest()":"0d09365c","allowance(address,address)":"dd62ed3e","approve(address,uint256)":"095ea7b3","asset()":"38d52e0f","balanceOf(address)":"70a08231","decimals()":"313ce567","deposit(uint256,address)":"6e553f65","depositWithReferral(address)":"c18d7cb7","getRate()":"679aefce","name()":"06fdde03","redeem(uint256,address,address)":"ba087652","symbol()":"95d89b41","totalAssets()":"01e1d114","totalSupply()":"18160ddd","transfer(address,uint256)":"a9059cbb","transferFrom(address,address,uint256)":"23b872dd"},"id":105}