{"abi":[{"type":"constructor","inputs":[{"name":"vrfV2PlusWrapper","type":"address","internalType":"address"},{"name":"baseToken","type":"address","internalType":"address"},{"name":"validSYCollateralTokens","type":"tuple[]","internalType":"struct SYCollateralToken[]","components":[{"name":"self","type":"address","internalType":"address"},{"name":"correspondingYbt","type":"address","internalType":"address"}]},{"name":"amountCycle","type":"uint256","internalType":"uint256"},{"name":"cycleDuration","type":"uint256","internalType":"uint256"},{"name":"cycleDepositDuration","type":"uint256","internalType":"uint256"},{"name":"totalCycles","type":"uint256","internalType":"uint256"},{"name":"startTime","type":"uint256","internalType":"uint256"}],"stateMutability":"nonpayable"},{"type":"function","name":"approve","inputs":[{"name":"to","type":"address","internalType":"address"},{"name":"tokenId","type":"uint256","internalType":"uint256"}],"outputs":[],"stateMutability":"nonpayable"},{"type":"function","name":"balanceOf","inputs":[{"name":"owner","type":"address","internalType":"address"}],"outputs":[{"name":"","type":"uint256","internalType":"uint256"}],"stateMutability":"view"},{"type":"function","name":"depositCycle","inputs":[{"name":"positionId","type":"uint256","internalType":"uint256"}],"outputs":[{"name":"amountCollateralReleased","type":"uint256","internalType":"uint256"}],"stateMutability":"nonpayable"},{"type":"function","name":"depositYbtCollateral","inputs":[{"name":"syCollateralToken","type":"address","internalType":"address"},{"name":"receiver","type":"address","internalType":"address"}],"outputs":[{"name":"","type":"tuple","internalType":"struct Position","components":[{"name":"syCollateralToken","type":"address","internalType":"address"},{"name":"amountCollateral","type":"uint256","internalType":"uint256"},{"name":"cyclesDeposited","type":"bool[]","internalType":"bool[]"},{"name":"winningCycle","type":"uint256","internalType":"uint256"}]}],"stateMutability":"nonpayable"},{"type":"function","name":"getAllPositions","inputs":[],"outputs":[{"name":"","type":"tuple[]","internalType":"struct Position[]","components":[{"name":"syCollateralToken","type":"address","internalType":"address"},{"name":"amountCollateral","type":"uint256","internalType":"uint256"},{"name":"cyclesDeposited","type":"bool[]","internalType":"bool[]"},{"name":"winningCycle","type":"uint256","internalType":"uint256"}]}],"stateMutability":"view"},{"type":"function","name":"getAmountCollateral","inputs":[{"name":"syCollateralToken","type":"address","internalType":"address"}],"outputs":[{"name":"","type":"uint256","internalType":"uint256"}],"stateMutability":"view"},{"type":"function","name":"getAmountCollateralInBase","inputs":[],"outputs":[{"name":"","type":"uint256","internalType":"uint256"}],"stateMutability":"view"},{"type":"function","name":"getApproved","inputs":[{"name":"tokenId","type":"uint256","internalType":"uint256"}],"outputs":[{"name":"","type":"address","internalType":"address"}],"stateMutability":"view"},{"type":"function","name":"getCollateralYield","inputs":[{"name":"positionId","type":"uint256","internalType":"uint256"}],"outputs":[{"name":"amountCollateralYield","type":"uint256","internalType":"uint256"}],"stateMutability":"view"},{"type":"function","name":"getCurrentCycle","inputs":[],"outputs":[{"name":"currentCycle","type":"uint256","internalType":"uint256"}],"stateMutability":"view"},{"type":"function","name":"getCycleDepositDuration","inputs":[],"outputs":[{"name":"","type":"uint256","internalType":"uint256"}],"stateMutability":"view"},{"type":"function","name":"getCycleDepositToken","inputs":[],"outputs":[{"name":"","type":"address","internalType":"address"}],"stateMutability":"view"},{"type":"function","name":"getCycleDuration","inputs":[],"outputs":[{"name":"","type":"uint256","internalType":"uint256"}],"stateMutability":"view"},{"type":"function","name":"getCyclesFinalized","inputs":[],"outputs":[{"name":"","type":"uint256","internalType":"uint256"}],"stateMutability":"view"},{"type":"function","name":"getPoolState","inputs":[],"outputs":[{"name":"","type":"uint8","internalType":"enum SpiralPool.PoolState"}],"stateMutability":"view"},{"type":"function","name":"getPosition","inputs":[{"name":"positionId","type":"uint256","internalType":"uint256"}],"outputs":[{"name":"","type":"tuple","internalType":"struct Position","components":[{"name":"syCollateralToken","type":"address","internalType":"address"},{"name":"amountCollateral","type":"uint256","internalType":"uint256"},{"name":"cyclesDeposited","type":"bool[]","internalType":"bool[]"},{"name":"winningCycle","type":"uint256","internalType":"uint256"}]}],"stateMutability":"view"},{"type":"function","name":"getPositionsFilled","inputs":[],"outputs":[{"name":"","type":"uint256","internalType":"uint256"}],"stateMutability":"view"},{"type":"function","name":"getStartTime","inputs":[],"outputs":[{"name":"","type":"uint256","internalType":"uint256"}],"stateMutability":"view"},{"type":"function","name":"getTotalCycles","inputs":[],"outputs":[{"name":"","type":"uint256","internalType":"uint256"}],"stateMutability":"view"},{"type":"function","name":"getamountCycle","inputs":[],"outputs":[{"name":"","type":"uint256","internalType":"uint256"}],"stateMutability":"view"},{"type":"function","name":"i_vrfV2PlusWrapper","inputs":[],"outputs":[{"name":"","type":"address","internalType":"contract IVRFV2PlusWrapper"}],"stateMutability":"view"},{"type":"function","name":"isApprovedForAll","inputs":[{"name":"owner","type":"address","internalType":"address"},{"name":"operator","type":"address","internalType":"address"}],"outputs":[{"name":"","type":"bool","internalType":"bool"}],"stateMutability":"view"},{"type":"function","name":"isCycleDepositWindowOpen","inputs":[{"name":"currentCycle","type":"uint256","internalType":"uint256"}],"outputs":[{"name":"","type":"bool","internalType":"bool"}],"stateMutability":"view"},{"type":"function","name":"name","inputs":[],"outputs":[{"name":"","type":"string","internalType":"string"}],"stateMutability":"view"},{"type":"function","name":"ownerOf","inputs":[{"name":"tokenId","type":"uint256","internalType":"uint256"}],"outputs":[{"name":"","type":"address","internalType":"address"}],"stateMutability":"view"},{"type":"function","name":"rawFulfillRandomWords","inputs":[{"name":"_requestId","type":"uint256","internalType":"uint256"},{"name":"_randomWords","type":"uint256[]","internalType":"uint256[]"}],"outputs":[],"stateMutability":"nonpayable"},{"type":"function","name":"redeemCollateralIfDiscarded","inputs":[{"name":"positionId","type":"uint256","internalType":"uint256"}],"outputs":[{"name":"amountCollateral","type":"uint256","internalType":"uint256"}],"stateMutability":"nonpayable"},{"type":"function","name":"redeemCollateralYield","inputs":[{"name":"positionId","type":"uint256","internalType":"uint256"}],"outputs":[{"name":"amountCollateralYield","type":"uint256","internalType":"uint256"}],"stateMutability":"nonpayable"},{"type":"function","name":"requestCycleWinner","inputs":[],"outputs":[{"name":"requestPrice","type":"uint256","internalType":"uint256"},{"name":"requestId","type":"uint256","internalType":"uint256"}],"stateMutability":"payable"},{"type":"function","name":"safeTransferFrom","inputs":[{"name":"from","type":"address","internalType":"address"},{"name":"to","type":"address","internalType":"address"},{"name":"tokenId","type":"uint256","internalType":"uint256"}],"outputs":[],"stateMutability":"nonpayable"},{"type":"function","name":"safeTransferFrom","inputs":[{"name":"from","type":"address","internalType":"address"},{"name":"to","type":"address","internalType":"address"},{"name":"tokenId","type":"uint256","internalType":"uint256"},{"name":"data","type":"bytes","internalType":"bytes"}],"outputs":[],"stateMutability":"nonpayable"},{"type":"function","name":"setApprovalForAll","inputs":[{"name":"operator","type":"address","internalType":"address"},{"name":"approved","type":"bool","internalType":"bool"}],"outputs":[],"stateMutability":"nonpayable"},{"type":"function","name":"supportsInterface","inputs":[{"name":"interfaceId","type":"bytes4","internalType":"bytes4"}],"outputs":[{"name":"","type":"bool","internalType":"bool"}],"stateMutability":"view"},{"type":"function","name":"symbol","inputs":[],"outputs":[{"name":"","type":"string","internalType":"string"}],"stateMutability":"view"},{"type":"function","name":"tokenURI","inputs":[{"name":"tokenId","type":"uint256","internalType":"uint256"}],"outputs":[{"name":"","type":"string","internalType":"string"}],"stateMutability":"view"},{"type":"function","name":"transferFrom","inputs":[{"name":"from","type":"address","internalType":"address"},{"name":"to","type":"address","internalType":"address"},{"name":"tokenId","type":"uint256","internalType":"uint256"}],"outputs":[],"stateMutability":"nonpayable"},{"type":"event","name":"Approval","inputs":[{"name":"owner","type":"address","indexed":true,"internalType":"address"},{"name":"approved","type":"address","indexed":true,"internalType":"address"},{"name":"tokenId","type":"uint256","indexed":true,"internalType":"uint256"}],"anonymous":false},{"type":"event","name":"ApprovalForAll","inputs":[{"name":"owner","type":"address","indexed":true,"internalType":"address"},{"name":"operator","type":"address","indexed":true,"internalType":"address"},{"name":"approved","type":"bool","indexed":false,"internalType":"bool"}],"anonymous":false},{"type":"event","name":"RequestedCycleWinner","inputs":[{"name":"requestId","type":"uint256","indexed":true,"internalType":"uint256"}],"anonymous":false},{"type":"event","name":"Transfer","inputs":[{"name":"from","type":"address","indexed":true,"internalType":"address"},{"name":"to","type":"address","indexed":true,"internalType":"address"},{"name":"tokenId","type":"uint256","indexed":true,"internalType":"uint256"}],"anonymous":false},{"type":"error","name":"AddressEmptyCode","inputs":[{"name":"target","type":"address","internalType":"address"}]},{"type":"error","name":"AddressInsufficientBalance","inputs":[{"name":"account","type":"address","internalType":"address"}]},{"type":"error","name":"ERC721IncorrectOwner","inputs":[{"name":"sender","type":"address","internalType":"address"},{"name":"tokenId","type":"uint256","internalType":"uint256"},{"name":"owner","type":"address","internalType":"address"}]},{"type":"error","name":"ERC721InsufficientApproval","inputs":[{"name":"operator","type":"address","internalType":"address"},{"name":"tokenId","type":"uint256","internalType":"uint256"}]},{"type":"error","name":"ERC721InvalidApprover","inputs":[{"name":"approver","type":"address","internalType":"address"}]},{"type":"error","name":"ERC721InvalidOperator","inputs":[{"name":"operator","type":"address","internalType":"address"}]},{"type":"error","name":"ERC721InvalidOwner","inputs":[{"name":"owner","type":"address","internalType":"address"}]},{"type":"error","name":"ERC721InvalidReceiver","inputs":[{"name":"receiver","type":"address","internalType":"address"}]},{"type":"error","name":"ERC721InvalidSender","inputs":[{"name":"sender","type":"address","internalType":"address"}]},{"type":"error","name":"ERC721NonexistentToken","inputs":[{"name":"tokenId","type":"uint256","internalType":"uint256"}]},{"type":"error","name":"FailedInnerCall","inputs":[]},{"type":"error","name":"SafeERC20FailedOperation","inputs":[{"name":"token","type":"address","internalType":"address"}]},{"type":"error","name":"SpiralPool__CycleDepositAlreadyPaid","inputs":[{"name":"currentCycle","type":"uint256","internalType":"uint256"}]},{"type":"error","name":"SpiralPool__CycleDepositWindowClosed","inputs":[{"name":"currentCycle","type":"uint256","internalType":"uint256"}]},{"type":"error","name":"SpiralPool__InvalidSYCollateralToken","inputs":[]},{"type":"error","name":"SpiralPool__IsNotLive","inputs":[]},{"type":"error","name":"SpiralPool__NotDiscarded","inputs":[]},{"type":"error","name":"SpiralPool__WaitingPeriodElapsed","inputs":[]},{"type":"error","name":"SpiralPool__allPositionsFilled","inputs":[]},{"type":"error","name":"VRFConsumer__NativePaybackFailed","inputs":[]},{"type":"error","name":"VRFConsumer__OnlyVRFWrapperCanFulfill","inputs":[{"name":"sender","type":"address","internalType":"address"},{"name":"vrfWrapper","type":"address","internalType":"address"}]},{"type":"error","name":"VRFConsumer__RequestNotFound","inputs":[]}],"bytecode":{"object":"0x6101a0604052348015610010575f5ffd5b5060405161359938038061359983398101604081905261002f916101db565b876040518060400160405280601581526020017f53706972616c205374616b6520506f736974696f6e00000000000000000000008152506040518060400160405280600381526020016205353560ec1b815250848282815f908161009391906103a9565b5060016100a082826103a9565b50505060805250506001600160a01b0390811660a052871660c0525f5b8651811015610123575f8782815181106100d9576100d9610463565b6020908102919091018101518082015190516001600160a01b039081165f9081526008909352604090922080546001600160a01b03191692909116919091179055506001016100bd565b506101008590526101348286610477565b60e05261012093909352610160526101405261018052506104a092505050565b80516001600160a01b038116811461016a575f5ffd5b919050565b634e487b7160e01b5f52604160045260245ffd5b604080519081016001600160401b03811182821017156101a5576101a561016f565b60405290565b604051601f8201601f191681016001600160401b03811182821017156101d3576101d361016f565b604052919050565b5f5f5f5f5f5f5f5f610100898b0312156101f3575f5ffd5b6101fc89610154565b975061020a60208a01610154565b60408a01519097506001600160401b03811115610225575f5ffd5b8901601f81018b13610235575f5ffd5b80516001600160401b0381111561024e5761024e61016f565b61025d60208260051b016101ab565b8082825260208201915060208360061b85010192508d83111561027e575f5ffd5b6020840193505b828410156102d5576040848f03121561029c575f5ffd5b6102a4610183565b6102ad85610154565b81526102bb60208601610154565b602082015280835250602082019150604084019350610285565b809950505050505f60608a01519050809550505f60808a01519050809450505f60a08a01519050809350505f60c08a01519050809250505f60e08a01519050809150509295985092959890939650565b600181811c9082168061033957607f821691505b60208210810361035757634e487b7160e01b5f52602260045260245ffd5b50919050565b601f8211156103a457805f5260205f20601f840160051c810160208510156103825750805b601f840160051c820191505b818110156103a1575f815560010161038e565b50505b505050565b81516001600160401b038111156103c2576103c261016f565b6103d6816103d08454610325565b8461035d565b6020601f821160018114610408575f83156103f15750848201515b5f19600385901b1c1916600184901b1784556103a1565b5f84815260208120601f198516915b828110156104375787850151825560209485019460019092019101610417565b508482101561045457868401515f19600387901b60f8161c191681555b50505050600190811b01905550565b634e487b7160e01b5f52603260045260245ffd5b808202811582820484141761049a57634e487b7160e01b5f52601160045260245ffd5b92915050565b60805160a05160c05160e0516101005161012051610140516101605161018051612fde6105bb5f395f81816105bf015281816109cd01528181610fb7015261113f01525f818161048f01528181610a3001528181610edc01528181611017015261103f01525f81816103af015261116b01525f818161055a01528181610fe3015261110501525f818161040001528181610d6d01528181610f1601528181611a6c015261256f01525f818161062f0152818161106c015261126d01525f81816106df01528181610d4b015261254a01525f81816104ec0152818161092a01528181611774015261182d01525f81816109fa0152818161122001528181611dc201528181612004015281816121cd015261249d0152612fde5ff3fe608060405260043610610207575f3560e01c806395d89b4111610113578063c87b56dd1161009d578063e985e9c51161006d578063e985e9c51461067f578063eb02c3011461069e578063f72a3b02146106bd578063ff03a3ad146106d1578063ffcd599c14610703575f5ffd5b8063c87b56dd146105e3578063d115356f14610602578063d5eeaedf14610621578063e26eb40514610653575f5ffd5b8063b88d4fde116100e3578063b88d4fde1461052d578063bd5da9ac1461054c578063be26ed7f1461057e578063c2efe6ab14610592578063c828371e146105b1575f5ffd5b806395d89b41146104b35780639bd8ad71146104c75780639ed0868d146104db578063a22cb4651461050e575f5ffd5b806342842e0e116101945780636aa8f098116101645780636aa8f098146103f257806370a0823114610424578063868fb5b314610443578063891f0874146104625780638c0a80c214610481575f5ffd5b806342842e0e1461035557806353365dd5146103745780635437996c146103a15780636352211e146103d3575f5ffd5b806318f56a0a116101da57806318f56a0a146102b85780631fe543e3146102d9578063217ac237146102f857806323b872dd14610319578063265cd73b14610338575f5ffd5b806301ffc9a71461020b57806306fdde031461023f578063081812fc14610260578063095ea7b314610297575b5f5ffd5b348015610216575f5ffd5b5061022a610225366004612967565b610722565b60405190151581526020015b60405180910390f35b34801561024a575f5ffd5b50610253610773565b60405161023691906129b0565b34801561026b575f5ffd5b5061027f61027a3660046129c2565b610802565b6040516001600160a01b039091168152602001610236565b3480156102a2575f5ffd5b506102b66102b13660046129f4565b610829565b005b3480156102c3575f5ffd5b506102cc610838565b6040516102369190612a91565b3480156102e4575f5ffd5b506102b66102f3366004612b39565b610928565b348015610303575f5ffd5b5061030c6109ca565b6040516102369190612c05565b348015610324575f5ffd5b506102b6610333366004612c2b565b610a63565b610340610aec565b60408051928352602083019190915201610236565b348015610360575f5ffd5b506102b661036f366004612c2b565b610ba9565b34801561037f575f5ffd5b5061039361038e3660046129c2565b610bc3565b604051908152602001610236565b3480156103ac575f5ffd5b507f0000000000000000000000000000000000000000000000000000000000000000610393565b3480156103de575f5ffd5b5061027f6103ed3660046129c2565b610c0a565b3480156103fd575f5ffd5b507f0000000000000000000000000000000000000000000000000000000000000000610393565b34801561042f575f5ffd5b5061039361043e366004612c65565b610c14565b34801561044e575f5ffd5b5061039361045d3660046129c2565b610c59565b34801561046d575f5ffd5b5061039361047c3660046129c2565b610dfe565b34801561048c575f5ffd5b507f0000000000000000000000000000000000000000000000000000000000000000610393565b3480156104be575f5ffd5b50610253610f5a565b3480156104d2575f5ffd5b50600954610393565b3480156104e6575f5ffd5b5061027f7f000000000000000000000000000000000000000000000000000000000000000081565b348015610519575f5ffd5b506102b6610528366004612c8b565b610f69565b348015610538575f5ffd5b506102b6610547366004612cc0565b610f74565b348015610557575f5ffd5b507f0000000000000000000000000000000000000000000000000000000000000000610393565b348015610589575f5ffd5b50610393610f8b565b34801561059d575f5ffd5b506103936105ac366004612c65565b611065565b3480156105bc575f5ffd5b507f0000000000000000000000000000000000000000000000000000000000000000610393565b3480156105ee575f5ffd5b506102536105fd3660046129c2565b611090565b34801561060d575f5ffd5b5061022a61061c3660046129c2565b611101565b34801561062c575f5ffd5b507f0000000000000000000000000000000000000000000000000000000000000000610393565b34801561065e575f5ffd5b5061067261066d366004612d7e565b6111a7565b6040516102369190612daf565b34801561068a575f5ffd5b5061022a610699366004612d7e565b6113b2565b3480156106a9575f5ffd5b506106726106b83660046129c2565b6113df565b3480156106c8575f5ffd5b50600654610393565b3480156106dc575f5ffd5b507f000000000000000000000000000000000000000000000000000000000000000061027f565b34801561070e575f5ffd5b5061039361071d3660046129c2565b6114af565b5f6001600160e01b031982166380ac58cd60e01b148061075257506001600160e01b03198216635b5e139f60e01b145b8061076d57506301ffc9a760e01b6001600160e01b03198316145b92915050565b60605f805461078190612dc1565b80601f01602080910402602001604051908101604052809291908181526020018280546107ad90612dc1565b80156107f85780601f106107cf576101008083540402835291602001916107f8565b820191905f5260205f20905b8154815290600101906020018083116107db57829003601f168201915b5050505050905090565b5f61080c82611534565b505f828152600460205260409020546001600160a01b031661076d565b61083482823361156c565b5050565b60606006805480602002602001604051908101604052809291908181526020015f905b8282101561091f575f848152602090819020604080516080810182526004860290920180546001600160a01b0316835260018101548385015260028101805483518187028101870185528181529495929493860193928301828280156108fd57602002820191905f5260205f20905f905b825461010083900a900460ff1615158152602060019283018181049485019490930390920291018084116108cc5790505b505050505081526020016003820154815250508152602001906001019061085b565b50505050905090565b7f000000000000000000000000000000000000000000000000000000000000000033816001600160a01b038116821461098c57604051634bd65f0760e01b81526001600160a01b039283166004820152911660248201526044015b60405180910390fd5b50505f8381526007602052604090205460ff166109bc5760405163503b363f60e01b815260040160405180910390fd5b6109c582611579565b505050565b5f7f00000000000000000000000000000000000000000000000000000000000000004210156109f857505f90565b7f0000000000000000000000000000000000000000000000000000000000000000610a2260065490565b1015610a2e5750600390565b7f000000000000000000000000000000000000000000000000000000000000000060095403610a5d5750600290565b50600190565b6001600160a01b038216610a8c57604051633250574960e11b81525f6004820152602401610983565b5f610a98838333611624565b9050836001600160a01b0316816001600160a01b031614610ae6576040516364283d7b60e01b81526001600160a01b0380861660048301526024820184905282166044820152606401610983565b50505050565b5f806001610af86109ca565b6003811115610b0957610b09612bf1565b14610b2757604051630fe101db60e31b815260040160405180910390fd5b5f610b30610f8b565b90505f60095482610b419190612e07565b9050610b4c82611101565b15610b5f5780610b5b81612e1a565b9150505b8015610b7957610b76610b7182611716565b611727565b92505b60405183907fed6a0a0d5d84db4807ed62714cd97fab034ffcce3a48b80ed472a102136f687f905f90a250509091565b6109c583838360405180602001604052805f815250610f74565b5f5f60068381548110610bd857610bd8612e2f565b905f5260205f2090600402019050610bef83610dfe565b9150610c0481610bfe85610c0a565b84611946565b50919050565b5f61076d82611534565b5f6001600160a01b038216610c3e576040516322718ad960e21b81525f6004820152602401610983565b506001600160a01b03165f9081526003602052604090205490565b5f5f610c63610f8b565b90505f60068481548110610c7957610c79612e2f565b5f918252602090912060049091020190506001610c946109ca565b6003811115610ca557610ca5612bf1565b14610cc357604051630fe101db60e31b815260040160405180910390fd5b610ccc82611101565b8290610cee5760405163f424a3cb60e01b815260040161098391815260200190565b50806002018281548110610d0457610d04612e2f565b905f5260205f2090602091828204019190069054906101000a900460ff16158290610d4557604051632f43429b60e21b815260040161098391815260200190565b50610d917f0000000000000000000000000000000000000000000000000000000000000000337f00000000000000000000000000000000000000000000000000000000000000006119f2565b6001816002018381548110610da857610da8612e2f565b905f5260205f2090602091828204019190066101000a81548160ff021916908315150217905550610df681610df1865f908152600260205260409020546001600160a01b031690565b611a59565b949350505050565b5f5f60068381548110610e1357610e13612e2f565b5f91825260209182902060408051608081018252600490930290910180546001600160a01b031683526001810154838501526002810180548351818702810187018552818152949592949386019392830182828015610eae57602002820191905f5260205f20905f905b825461010083900a900460ff161515815260206001928301818104948501949093039092029101808411610e7d5790505b50505050508152602001600382015481525050905080602001515f03610ed657505f92915050565b5f6009547f0000000000000000000000000000000000000000000000000000000000000000610f059190612e07565b82519091505f90610f3f90610f3a847f0000000000000000000000000000000000000000000000000000000000000000612e43565b611a9d565b9050808360200151610f519190612e07565b95945050505050565b60606001805461078190612dc1565b610834338383611b0b565b610f7f848484610a63565b610ae684848484611ba9565b5f6001610f966109ca565b6003811115610fa757610fa7612bf1565b14610fb157505f90565b5f610fdc7f000000000000000000000000000000000000000000000000000000000000000042612e07565b90506110087f000000000000000000000000000000000000000000000000000000000000000082612e6e565b611013906001612e81565b91507f0000000000000000000000000000000000000000000000000000000000000000821115611061577f000000000000000000000000000000000000000000000000000000000000000091505b5090565b5f61076d827f0000000000000000000000000000000000000000000000000000000000000000611a9d565b606061109b82611534565b505f6110b160408051602081019091525f815290565b90505f8151116110cf5760405180602001604052805f8152506110fa565b806110d984611ccf565b6040516020016110ea929190612eab565b6040516020818303038152906040525b9392505050565b5f807f000000000000000000000000000000000000000000000000000000000000000061112f600185612e07565b6111399190612e43565b611163907f0000000000000000000000000000000000000000000000000000000000000000612e81565b90505f6111907f000000000000000000000000000000000000000000000000000000000000000083612e81565b9050814210158015610df657504211159392505050565b6111af612879565b6001600160a01b038381165f90815260086020526040902054166111e65760405163948588b760e01b815260040160405180910390fd5b5f6111ef6109ca565b600381111561120057611200612bf1565b1461121e5760405163d5a8809160e01b815260040160405180910390fd5b7f000000000000000000000000000000000000000000000000000000000000000061124860065490565b106112665760405163f11860b760e01b815260040160405180910390fd5b5f611291847f0000000000000000000000000000000000000000000000000000000000000000611a9d565b6001600160a01b038086165f90815260086020526040902054919250166112b98133846119f2565b60405163095ea7b360e01b81526001600160a01b0386811660048301526024820184905282169063095ea7b3906044016020604051808303815f875af1158015611305573d5f5f3e3d5ffd5b505050506040513d601f19601f820116820180604052508101906113299190612ebf565b506040516320e8c56560e01b81523060048201526001600160a01b038281166024830152604482018490525f60648301528616906320e8c565906084016020604051808303815f875af1158015611382573d5f5f3e3d5ffd5b505050506040513d601f19601f820116820180604052508101906113a69190612eda565b50610f51848684611d5f565b6001600160a01b039182165f90815260056020908152604080832093909416825291909152205460ff1690565b6113e7612879565b600682815481106113fa576113fa612e2f565b5f91825260209182902060408051608081018252600490930290910180546001600160a01b03168352600181015483850152600281018054835181870281018701855281815294959294938601939283018282801561149557602002820191905f5260205f20905f905b825461010083900a900460ff1615158152602060019283018181049485019490930390920291018084116114645790505b505050505081526020016003820154815250509050919050565b5f60036114ba6109ca565b60038111156114cb576114cb612bf1565b146114e957604051636d83b9a360e11b815260040160405180910390fd5b5f600683815481106114fd576114fd612e2f565b905f5260205f209060040201905080600101549150610c0481610bfe855f908152600260205260409020546001600160a01b031690565b5f818152600260205260408120546001600160a01b03168061076d57604051637e27328960e01b815260048101849052602401610983565b6109c58383836001611ef9565b5f60095460016115899190612e81565b90505f5b82518110156109c5575f6115b98483815181106115ac576115ac612e2f565b6020026020010151611ffd565b90506115e26115dc825f908152600260205260409020546001600160a01b031690565b846121b6565b82600682815481106115f6576115f6612e2f565b5f91825260209091206003600490920201015560098390558261161881612ef1565b9350505060010161158d565b5f828152600260205260408120546001600160a01b0390811690831615611650576116508184866121f6565b6001600160a01b0381161561168a5761166b5f855f5f611ef9565b6001600160a01b0381165f90815260036020526040902080545f190190555b6001600160a01b038516156116b8576001600160a01b0385165f908152600360205260409020805460010190555b5f8481526002602052604080822080546001600160a01b0319166001600160a01b0389811691821790925591518793918516917fddf252ad1be2c89b69c2b068fc378daa952ba7f163c4a11628f55a4df523b3ef91a4949350505050565b5f63ffffffff821115611061575f5ffd5b5f5f61174360405180602001604052806001151581525061225a565b6040516313c34b7f60e01b81526207a120600482015263ffffffff851660248201529091505f906001600160a01b037f000000000000000000000000000000000000000000000000000000000000000016906313c34b7f90604401602060405180830381865afa1580156117b9573d5f5f3e3d5ffd5b505050506040513d601f19601f820116820180604052508101906117dd9190612eda565b9050805f03611816576040516bffffffffffffffffffffffff193360601b16602082015260340160405160208183030381529060405291505b604051634e7e02c760e11b81526001600160a01b037f00000000000000000000000000000000000000000000000000000000000000001690639cfc058e90839061186e906207a120906001908a908990600401612f09565b60206040518083038185885af115801561188a573d5f5f3e3d5ffd5b50505050506040513d601f19601f820116820180604052508101906118af9190612eda565b92505f6118bc8234612e07565b6040519091505f90339083908381818185875af1925050503d805f81146118fe576040519150601f19603f3d011682016040523d82523d5f602084013e611903565b606091505b505090508061192557604051631691e52760e01b815260040160405180910390fd5b5050505f828152600760205260409020805460ff1916600117905550919050565b80836001015f8282546119599190612e07565b909155505082546001600160a01b039081165f8181526008602052604080822054905163769f8e5d60e01b8152868516600482015260248101869052931660448401526064830181905260848301529063769f8e5d9060a4016020604051808303815f875af11580156119ce573d5f5f3e3d5ffd5b505050506040513d601f19601f82011682018060405250810190610ae69190612eda565b6001600160a01b038316611a3e578034146109c55760405162461bcd60e51b815260206004820152600c60248201526b0cae8d040dad2e6dac2e8c6d60a31b6044820152606401610983565b80156109c5576109c56001600160a01b0384168330846122cb565b81545f90611a90906001600160a01b03167f0000000000000000000000000000000000000000000000000000000000000000611a9d565b905061076d838383611946565b5f5f836001600160a01b0316633ba0b9a96040518163ffffffff1660e01b8152600401602060405180830381865afa158015611adb573d5f5f3e3d5ffd5b505050506040513d601f19601f82011682018060405250810190611aff9190612eda565b9050610df68382612332565b6001600160a01b038216611b3d57604051630b61174360e31b81526001600160a01b0383166004820152602401610983565b6001600160a01b038381165f81815260056020908152604080832094871680845294825291829020805460ff191686151590811790915591519182527f17307eab39ab6107e8899845ad3d59bd9653f200f220920489ca2b5937696c31910160405180910390a3505050565b6001600160a01b0383163b15610ae657604051630a85bd0160e11b81526001600160a01b0384169063150b7a0290611beb903390889087908790600401612f3d565b6020604051808303815f875af1925050508015611c25575060408051601f3d908101601f19168201909252611c2291810190612f6f565b60015b611c8c573d808015611c52576040519150601f19603f3d011682016040523d82523d5f602084013e611c57565b606091505b5080515f03611c8457604051633250574960e11b81526001600160a01b0385166004820152602401610983565b805181602001fd5b6001600160e01b03198116630a85bd0160e11b14611cc857604051633250574960e11b81526001600160a01b0385166004820152602401610983565b5050505050565b60605f611cdb83612360565b60010190505f8167ffffffffffffffff811115611cfa57611cfa612af4565b6040519080825280601f01601f191660200182016040528015611d24576020820181803683370190505b5090508181016020015b5f19016f181899199a1a9b1b9c1cb0b131b232b360811b600a86061a8153600a8504945084611d2e57509392505050565b611d67612879565b60068054600181018083555f83815291929083908110611d8957611d89612e2f565b5f918252602090912060049091020180546001600160a01b0319166001600160a01b0387161781556001808201869055909150611de7907f000000000000000000000000000000000000000000000000000000000000000090612e81565b67ffffffffffffffff811115611dff57611dff612af4565b604051908082528060200260200182016040528015611e28578160200160208202803683370190505b508051611e3f9160028401916020909101906128a7565b50611e4a8683612437565b6040805160808101825282546001600160a01b0316815260018301546020808301919091526002840180548451818402810184018652818152939486949086019390929190830182828015611edb57602002820191905f5260205f20905f905b825461010083900a900460ff161515815260206001928301818104948501949093039092029101808411611eaa5790505b50505050508152602001600382015481525050925050509392505050565b8080611f0d57506001600160a01b03821615155b15611fce575f611f1c84611534565b90506001600160a01b03831615801590611f485750826001600160a01b0316816001600160a01b031614155b8015611f5b5750611f5981846113b2565b155b15611f845760405163a9fbf51f60e01b81526001600160a01b0384166004820152602401610983565b8115611fcc5783856001600160a01b0316826001600160a01b03167f8c5be1e5ebec7d5bd14f71427d1e84f3dd0314c0f7b2291e5b200ac8c7c3b92560405160405180910390a45b505b50505f90815260046020526040902080546001600160a01b0319166001600160a01b0392909216919091179055565b6009545f907f00000000000000000000000000000000000000000000000000000000000000009082906120309083612e07565b67ffffffffffffffff81111561204857612048612af4565b604051908082528060200260200182016040528015612071578160200160208202803683370190505b5090505f805b83811015612183575f6006828154811061209357612093612e2f565b5f91825260209182902060408051608081018252600490930290910180546001600160a01b03168352600181015483850152600281018054835181870281018701855281815294959294938601939283018282801561212e57602002820191905f5260205f20905f905b825461010083900a900460ff1615158152602060019283018181049485019490930390920291018084116120fd5790505b50505050508152602001600382015481525050905080606001515f0361217a578184848151811061216157612161612e2f565b60209081029190910101528261217681612ef1565b9350505b50600101612077565b505f61218f8287612f8a565b90508281815181106121a3576121a3612e2f565b6020026020010151945050505050919050565b5f6121c18383612498565b90506109c5836121f1837f0000000000000000000000000000000000000000000000000000000000000000612e07565b612545565b612201838383612599565b6109c5576001600160a01b03831661222f57604051637e27328960e01b815260048101829052602401610983565b60405163177e802f60e01b81526001600160a01b038316600482015260248101829052604401610983565b60607f92fd13387c7fe7befbc38d303d6468778fb9731bc4583f17d92989c6fcfdeaaa8260405160240161229391511515815260200190565b60408051601f198184030181529190526020810180516001600160e01b03166001600160e01b03199093169290921790915292915050565b6040516001600160a01b038481166024830152838116604483015260648201839052610ae69186918216906323b872dd906084015b604051602081830303815290604052915060e01b6020820180516001600160e01b0383818316178352505050506125fa565b5f80612346670de0b6b3a764000085612e43565b905082818161235757612357612e5a565b04949350505050565b5f8072184f03e93ff9f4daa797ed6e38ed64bf6a1f0160401b831061239e5772184f03e93ff9f4daa797ed6e38ed64bf6a1f0160401b830492506040015b6d04ee2d6d415b85acef810000000083106123ca576d04ee2d6d415b85acef8100000000830492506020015b662386f26fc1000083106123e857662386f26fc10000830492506010015b6305f5e1008310612400576305f5e100830492506008015b612710831061241457612710830492506004015b60648310612426576064830492506002015b600a831061076d5760010192915050565b6001600160a01b03821661246057604051633250574960e11b81525f6004820152602401610983565b5f61246c83835f611624565b90506001600160a01b038116156109c5576040516339e3563760e11b81525f6004820152602401610983565b5f805b7f000000000000000000000000000000000000000000000000000000000000000081101561253e575f600682815481106124d7576124d7612e2f565b905f5260205f20906004020190508060020184815481106124fa576124fa612e2f565b905f5260205f2090602091828204019190069054906101000a900460ff16612535578261252681612ef1565b9350506125338186611a59565b505b5060010161249b565b5092915050565b6108347f0000000000000000000000000000000000000000000000000000000000000000836125947f000000000000000000000000000000000000000000000000000000000000000085612e43565b61265b565b5f6001600160a01b03831615801590610df65750826001600160a01b0316846001600160a01b031614806125d257506125d284846113b2565b80610df65750505f908152600460205260409020546001600160a01b03908116911614919050565b5f61260e6001600160a01b0384168361271a565b905080515f141580156126325750808060200190518101906126309190612ebf565b155b156109c557604051635274afe760e01b81526001600160a01b0384166004820152602401610983565b805f0361266757505050565b6001600160a01b038316612706575f826001600160a01b0316826040515f6040518083038185875af1925050503d805f81146126be576040519150601f19603f3d011682016040523d82523d5f602084013e6126c3565b606091505b5050905080610ae65760405162461bcd60e51b815260206004820152600f60248201526e195d1a081cd95b990819985a5b1959608a1b6044820152606401610983565b6109c56001600160a01b0384168383612727565b60606110fa83835f612758565b6040516001600160a01b038381166024830152604482018390526109c591859182169063a9059cbb90606401612300565b60608147101561277d5760405163cd78605960e01b8152306004820152602401610983565b5f5f856001600160a01b031684866040516127989190612f9d565b5f6040518083038185875af1925050503d805f81146127d2576040519150601f19603f3d011682016040523d82523d5f602084013e6127d7565b606091505b50915091506127e78683836127f1565b9695505050505050565b606082612806576128018261284d565b6110fa565b815115801561281d57506001600160a01b0384163b155b1561284657604051639996b31560e01b81526001600160a01b0385166004820152602401610983565b50806110fa565b80511561285d5780518082602001fd5b604051630a12f52160e11b815260040160405180910390fd5b50565b60405180608001604052805f6001600160a01b031681526020015f8152602001606081526020015f81525090565b828054828255905f5260205f2090601f01602090048101928215612937579160200282015f5b8382111561290957835183826101000a81548160ff02191690831515021790555092602001926001016020815f010492830192600103026128cd565b80156129355782816101000a81549060ff02191690556001016020815f01049283019260010302612909565b505b506110619291505b80821115611061575f815560010161293f565b6001600160e01b031981168114612876575f5ffd5b5f60208284031215612977575f5ffd5b81356110fa81612952565b5f81518084528060208401602086015e5f602082860101526020601f19601f83011685010191505092915050565b602081525f6110fa6020830184612982565b5f602082840312156129d2575f5ffd5b5035919050565b80356001600160a01b03811681146129ef575f5ffd5b919050565b5f5f60408385031215612a05575f5ffd5b612a0e836129d9565b946020939093013593505050565b80516001600160a01b0316825260208082015181840152604080830151608091850182905280519185018290525f920190829060a08601905b80831015612a7a57835115158252602082019150602084019350600183019250612a55565b506060850151606087015280935050505092915050565b5f602082016020835280845180835260408501915060408160051b8601019250602086015f5b82811015612ae857603f19878603018452612ad3858351612a1c565b94506020938401939190910190600101612ab7565b50929695505050505050565b634e487b7160e01b5f52604160045260245ffd5b604051601f8201601f1916810167ffffffffffffffff81118282101715612b3157612b31612af4565b604052919050565b5f5f60408385031215612b4a575f5ffd5b82359150602083013567ffffffffffffffff811115612b67575f5ffd5b8301601f81018513612b77575f5ffd5b803567ffffffffffffffff811115612b9157612b91612af4565b8060051b612ba160208201612b08565b91825260208184018101929081019088841115612bbc575f5ffd5b6020850194505b83851015612be257843580835260209586019590935090910190612bc3565b80955050505050509250929050565b634e487b7160e01b5f52602160045260245ffd5b6020810160048310612c2557634e487b7160e01b5f52602160045260245ffd5b91905290565b5f5f5f60608486031215612c3d575f5ffd5b612c46846129d9565b9250612c54602085016129d9565b929592945050506040919091013590565b5f60208284031215612c75575f5ffd5b6110fa826129d9565b8015158114612876575f5ffd5b5f5f60408385031215612c9c575f5ffd5b612ca5836129d9565b91506020830135612cb581612c7e565b809150509250929050565b5f5f5f5f60808587031215612cd3575f5ffd5b612cdc856129d9565b9350612cea602086016129d9565b925060408501359150606085013567ffffffffffffffff811115612d0c575f5ffd5b8501601f81018713612d1c575f5ffd5b803567ffffffffffffffff811115612d3657612d36612af4565b612d49601f8201601f1916602001612b08565b818152886020838501011115612d5d575f5ffd5b816020840160208301375f6020838301015280935050505092959194509250565b5f5f60408385031215612d8f575f5ffd5b612d98836129d9565b9150612da6602084016129d9565b90509250929050565b602081525f6110fa6020830184612a1c565b600181811c90821680612dd557607f821691505b602082108103610c0457634e487b7160e01b5f52602260045260245ffd5b634e487b7160e01b5f52601160045260245ffd5b8181038181111561076d5761076d612df3565b5f81612e2857612e28612df3565b505f190190565b634e487b7160e01b5f52603260045260245ffd5b808202811582820484141761076d5761076d612df3565b634e487b7160e01b5f52601260045260245ffd5b5f82612e7c57612e7c612e5a565b500490565b8082018082111561076d5761076d612df3565b5f81518060208401855e5f93019283525090919050565b5f610df6612eb98386612e94565b84612e94565b5f60208284031215612ecf575f5ffd5b81516110fa81612c7e565b5f60208284031215612eea575f5ffd5b5051919050565b5f60018201612f0257612f02612df3565b5060010190565b63ffffffff8516815261ffff8416602082015263ffffffff83166040820152608060608201525f6127e76080830184612982565b6001600160a01b03858116825284166020820152604081018390526080606082018190525f906127e790830184612982565b5f60208284031215612f7f575f5ffd5b81516110fa81612952565b5f82612f9857612f98612e5a565b500690565b5f6110fa8284612e9456fea2646970667358221220270d07605d2021c381a5770cd618477a0b124be04436fb7720fb4c2f480f8cf964736f6c634300081b0033","linkReferences":{}},"methodIdentifiers":{"approve(address,uint256)":"095ea7b3","balanceOf(address)":"70a08231","depositCycle(uint256)":"868fb5b3","depositYbtCollateral(address,address)":"e26eb405","getAllPositions()":"18f56a0a","getAmountCollateral(address)":"c2efe6ab","getAmountCollateralInBase()":"d5eeaedf","getApproved(uint256)":"081812fc","getCollateralYield(uint256)":"891f0874","getCurrentCycle()":"be26ed7f","getCycleDepositDuration()":"5437996c","getCycleDepositToken()":"ff03a3ad","getCycleDuration()":"bd5da9ac","getCyclesFinalized()":"9bd8ad71","getPoolState()":"217ac237","getPosition(uint256)":"eb02c301","getPositionsFilled()":"f72a3b02","getStartTime()":"c828371e","getTotalCycles()":"8c0a80c2","getamountCycle()":"6aa8f098","i_vrfV2PlusWrapper()":"9ed0868d","isApprovedForAll(address,address)":"e985e9c5","isCycleDepositWindowOpen(uint256)":"d115356f","name()":"06fdde03","ownerOf(uint256)":"6352211e","rawFulfillRandomWords(uint256,uint256[])":"1fe543e3","redeemCollateralIfDiscarded(uint256)":"ffcd599c","redeemCollateralYield(uint256)":"53365dd5","requestCycleWinner()":"265cd73b","safeTransferFrom(address,address,uint256)":"42842e0e","safeTransferFrom(address,address,uint256,bytes)":"b88d4fde","setApprovalForAll(address,bool)":"a22cb465","supportsInterface(bytes4)":"01ffc9a7","symbol()":"95d89b41","tokenURI(uint256)":"c87b56dd","transferFrom(address,address,uint256)":"23b872dd"},"id":80}