{"abi":[{"type":"function","name":"depositCollateral","inputs":[{"name":"spiralPool","type":"address","internalType":"address"},{"name":"SY","type":"address","internalType":"address"},{"name":"ybtIn","type":"address","internalType":"address"},{"name":"amountYbtIn","type":"uint256","internalType":"uint256"}],"outputs":[{"name":"","type":"tuple","internalType":"struct Position","components":[{"name":"syCollateralToken","type":"address","internalType":"address"},{"name":"amountCollateral","type":"uint256","internalType":"uint256"},{"name":"cyclesDeposited","type":"bool[]","internalType":"bool[]"},{"name":"winningCycle","type":"uint256","internalType":"uint256"}]}],"stateMutability":"nonpayable"},{"type":"error","name":"AddressEmptyCode","inputs":[{"name":"target","type":"address","internalType":"address"}]},{"type":"error","name":"AddressInsufficientBalance","inputs":[{"name":"account","type":"address","internalType":"address"}]},{"type":"error","name":"FailedInnerCall","inputs":[]},{"type":"error","name":"SafeERC20FailedOperation","inputs":[{"name":"token","type":"address","internalType":"address"}]}],"bytecode":{"object":"0x6080604052348015600f57600080fd5b506106048061001f6000396000f3fe608060405234801561001057600080fd5b506004361061002b5760003560e01c8063c234819714610030575b600080fd5b61004361003e366004610499565b610059565b60405161005091906104e4565b60405180910390f35b61008d604051806080016040528060006001600160a01b031681526020016000815260200160608152602001600081525090565b333061009a858386610217565b60405163095ea7b360e01b81526001600160a01b0387811660048301526024820186905286169063095ea7b3906044016020604051808303816000875af11580156100e9573d6000803e3d6000fd5b505050506040513d601f19601f8201168201806040525081019061010d9190610564565b506040516320e8c56560e01b81526001600160a01b03828116600483015286811660248301526044820186905260006064830181905291908816906320e8c565906084016020604051808303816000875af1158015610170573d6000803e3d6000fd5b505050506040513d601f19601f820116820180604052508101906101949190610586565b60405163095ea7b360e01b81526001600160a01b038a81166004830152602482018390529192509088169063095ea7b3906044016020604051808303816000875af11580156101e7573d6000803e3d6000fd5b505050506040513d601f19601f8201168201806040525081019061020b9190610564565b50505050949350505050565b6001600160a01b03831661026d578034146102685760405162461bcd60e51b815260206004820152600c60248201526b0cae8d040dad2e6dac2e8c6d60a31b60448201526064015b60405180910390fd5b505050565b8015610268576102686001600160a01b038416833084604080516001600160a01b0385811660248301528416604482015260648082018490528251808303909101815260849091019091526020810180516001600160e01b03166323b872dd60e01b1790526102dd9085906102e3565b50505050565b60006102f86001600160a01b03841683610346565b9050805160001415801561031d57508080602001905181019061031b9190610564565b155b1561026857604051635274afe760e01b81526001600160a01b038416600482015260240161025f565b60606103548383600061035b565b9392505050565b6060814710156103805760405163cd78605960e01b815230600482015260240161025f565b600080856001600160a01b0316848660405161039c919061059f565b60006040518083038185875af1925050503d80600081146103d9576040519150601f19603f3d011682016040523d82523d6000602084013e6103de565b606091505b50915091506103ee8683836103f8565b9695505050505050565b60608261040d5761040882610454565b610354565b815115801561042457506001600160a01b0384163b155b1561044d57604051639996b31560e01b81526001600160a01b038516600482015260240161025f565b5080610354565b8051156104645780518082602001fd5b604051630a12f52160e11b815260040160405180910390fd5b80356001600160a01b038116811461049457600080fd5b919050565b600080600080608085870312156104af57600080fd5b6104b88561047d565b93506104c66020860161047d565b92506104d46040860161047d565b9396929550929360600135925050565b602080825282516001600160a01b0316828201528281015160408084019190915283015160806060840152805160a084018190526000929190910190829060c08501905b8083101561054d57835115158252602082019150602084019350600183019250610528565b506060860151608086015280935050505092915050565b60006020828403121561057657600080fd5b8151801515811461035457600080fd5b60006020828403121561059857600080fd5b5051919050565b6000825160005b818110156105c057602081860181015185830152016105a6565b50600092019182525091905056fea264697066735822122039733866d96f543f1bb6e6a5568f918618250dc95063e11652073fa47ad3c21764736f6c634300081b0033","linkReferences":{}},"methodIdentifiers":{"depositCollateral(address,address,address,uint256)":"c2348197"},"id":81}