{"abi":[{"type":"function","name":"depositCollateral","inputs":[{"name":"spiralPool","type":"address","internalType":"address"},{"name":"SY","type":"address","internalType":"address"},{"name":"ybtIn","type":"address","internalType":"address"},{"name":"amountYbtIn","type":"uint256","internalType":"uint256"}],"outputs":[{"name":"","type":"tuple","internalType":"struct Position","components":[{"name":"syCollateralToken","type":"address","internalType":"address"},{"name":"amountCollateral","type":"uint256","internalType":"uint256"},{"name":"cyclesDeposited","type":"bool[]","internalType":"bool[]"},{"name":"winningCycle","type":"uint256","internalType":"uint256"}]}],"stateMutability":"nonpayable"},{"type":"error","name":"AddressEmptyCode","inputs":[{"name":"target","type":"address","internalType":"address"}]},{"type":"error","name":"AddressInsufficientBalance","inputs":[{"name":"account","type":"address","internalType":"address"}]},{"type":"error","name":"FailedInnerCall","inputs":[]},{"type":"error","name":"SafeERC20FailedOperation","inputs":[{"name":"token","type":"address","internalType":"address"}]}],"bytecode":{"object":"0x6080604052348015600e575f5ffd5b506105ca8061001c5f395ff3fe608060405234801561000f575f5ffd5b5060043610610029575f3560e01c8063c23481971461002d575b5f5ffd5b61004061003b366004610481565b610056565b60405161004d91906104c9565b60405180910390f35b61008760405180608001604052805f6001600160a01b031681526020015f8152602001606081526020015f81525090565b3330610094858386610207565b60405163095ea7b360e01b81526001600160a01b0387811660048301526024820186905286169063095ea7b3906044016020604051808303815f875af11580156100e0573d5f5f3e3d5ffd5b505050506040513d601f19601f820116820180604052508101906101049190610548565b506040516320e8c56560e01b81526001600160a01b0382811660048301528681166024830152604482018690525f6064830181905291908816906320e8c565906084016020604051808303815f875af1158015610163573d5f5f3e3d5ffd5b505050506040513d601f19601f820116820180604052508101906101879190610567565b60405163095ea7b360e01b81526001600160a01b038a81166004830152602482018390529192509088169063095ea7b3906044016020604051808303815f875af11580156101d7573d5f5f3e3d5ffd5b505050506040513d601f19601f820116820180604052508101906101fb9190610548565b50505050949350505050565b6001600160a01b03831661025d578034146102585760405162461bcd60e51b815260206004820152600c60248201526b0cae8d040dad2e6dac2e8c6d60a31b60448201526064015b60405180910390fd5b505050565b8015610258576102586001600160a01b038416833084604080516001600160a01b0385811660248301528416604482015260648082018490528251808303909101815260849091019091526020810180516001600160e01b03166323b872dd60e01b1790526102cd9085906102d3565b50505050565b5f6102e76001600160a01b03841683610334565b905080515f1415801561030b5750808060200190518101906103099190610548565b155b1561025857604051635274afe760e01b81526001600160a01b038416600482015260240161024f565b606061034183835f610348565b9392505050565b60608147101561036d5760405163cd78605960e01b815230600482015260240161024f565b5f5f856001600160a01b03168486604051610388919061057e565b5f6040518083038185875af1925050503d805f81146103c2576040519150601f19603f3d011682016040523d82523d5f602084013e6103c7565b606091505b50915091506103d78683836103e1565b9695505050505050565b6060826103f6576103f18261043d565b610341565b815115801561040d57506001600160a01b0384163b155b1561043657604051639996b31560e01b81526001600160a01b038516600482015260240161024f565b5080610341565b80511561044d5780518082602001fd5b604051630a12f52160e11b815260040160405180910390fd5b80356001600160a01b038116811461047c575f5ffd5b919050565b5f5f5f5f60808587031215610494575f5ffd5b61049d85610466565b93506104ab60208601610466565b92506104b960408601610466565b9396929550929360600135925050565b602080825282516001600160a01b0316828201528281015160408084019190915283015160806060840152805160a084018190525f929190910190829060c08501905b808310156105315783511515825260208201915060208401935060018301925061050c565b506060860151608086015280935050505092915050565b5f60208284031215610558575f5ffd5b81518015158114610341575f5ffd5b5f60208284031215610577575f5ffd5b5051919050565b5f82518060208501845e5f92019182525091905056fea26469706673582212201975d1accb55f0fdae0ad109055b422cb7d8001b59dd51c85be0e511ef015a3664736f6c634300081b0033","linkReferences":{}},"methodIdentifiers":{"depositCollateral(address,address,address,uint256)":"c2348197"},"id":102}