{"abi":[{"type":"constructor","inputs":[{"name":"_link","type":"address","internalType":"address"},{"name":"_linkNativeFeed","type":"address","internalType":"address"},{"name":"_coordinator","type":"address","internalType":"address"},{"name":"_subId","type":"uint256","internalType":"uint256"}],"stateMutability":"nonpayable"},{"type":"function","name":"SUBSCRIPTION_ID","inputs":[],"outputs":[{"name":"","type":"uint256","internalType":"uint256"}],"stateMutability":"view"},{"type":"function","name":"acceptOwnership","inputs":[],"outputs":[],"stateMutability":"nonpayable"},{"type":"function","name":"calculateRequestPrice","inputs":[{"name":"_callbackGasLimit","type":"uint32","internalType":"uint32"},{"name":"_numWords","type":"uint32","internalType":"uint32"}],"outputs":[{"name":"","type":"uint256","internalType":"uint256"}],"stateMutability":"view"},{"type":"function","name":"calculateRequestPriceNative","inputs":[{"name":"_callbackGasLimit","type":"uint32","internalType":"uint32"},{"name":"_numWords","type":"uint32","internalType":"uint32"}],"outputs":[{"name":"","type":"uint256","internalType":"uint256"}],"stateMutability":"view"},{"type":"function","name":"checkPaymentMode","inputs":[{"name":"extraArgs","type":"bytes","internalType":"bytes"},{"name":"isLinkMode","type":"bool","internalType":"bool"}],"outputs":[],"stateMutability":"pure"},{"type":"function","name":"disable","inputs":[],"outputs":[],"stateMutability":"nonpayable"},{"type":"function","name":"enable","inputs":[],"outputs":[],"stateMutability":"nonpayable"},{"type":"function","name":"estimateRequestPrice","inputs":[{"name":"_callbackGasLimit","type":"uint32","internalType":"uint32"},{"name":"_numWords","type":"uint32","internalType":"uint32"},{"name":"_requestGasPriceWei","type":"uint256","internalType":"uint256"}],"outputs":[{"name":"","type":"uint256","internalType":"uint256"}],"stateMutability":"view"},{"type":"function","name":"estimateRequestPriceNative","inputs":[{"name":"_callbackGasLimit","type":"uint32","internalType":"uint32"},{"name":"_numWords","type":"uint32","internalType":"uint32"},{"name":"_requestGasPriceWei","type":"uint256","internalType":"uint256"}],"outputs":[{"name":"","type":"uint256","internalType":"uint256"}],"stateMutability":"view"},{"type":"function","name":"getConfig","inputs":[],"outputs":[{"name":"fallbackWeiPerUnitLink","type":"int256","internalType":"int256"},{"name":"stalenessSeconds","type":"uint32","internalType":"uint32"},{"name":"fulfillmentFlatFeeNativePPM","type":"uint32","internalType":"uint32"},{"name":"fulfillmentFlatFeeLinkDiscountPPM","type":"uint32","internalType":"uint32"},{"name":"wrapperGasOverhead","type":"uint32","internalType":"uint32"},{"name":"coordinatorGasOverheadNative","type":"uint32","internalType":"uint32"},{"name":"coordinatorGasOverheadLink","type":"uint32","internalType":"uint32"},{"name":"coordinatorGasOverheadPerWord","type":"uint16","internalType":"uint16"},{"name":"wrapperNativePremiumPercentage","type":"uint8","internalType":"uint8"},{"name":"wrapperLinkPremiumPercentage","type":"uint8","internalType":"uint8"},{"name":"keyHash","type":"bytes32","internalType":"bytes32"},{"name":"maxNumWords","type":"uint8","internalType":"uint8"}],"stateMutability":"view"},{"type":"function","name":"lastRequestId","inputs":[],"outputs":[{"name":"","type":"uint256","internalType":"uint256"}],"stateMutability":"view"},{"type":"function","name":"link","inputs":[],"outputs":[{"name":"","type":"address","internalType":"address"}],"stateMutability":"view"},{"type":"function","name":"linkNativeFeed","inputs":[],"outputs":[{"name":"","type":"address","internalType":"address"}],"stateMutability":"view"},{"type":"function","name":"onTokenTransfer","inputs":[{"name":"_sender","type":"address","internalType":"address"},{"name":"_amount","type":"uint256","internalType":"uint256"},{"name":"_data","type":"bytes","internalType":"bytes"}],"outputs":[],"stateMutability":"nonpayable"},{"type":"function","name":"owner","inputs":[],"outputs":[{"name":"","type":"address","internalType":"address"}],"stateMutability":"view"},{"type":"function","name":"rawFulfillRandomWords","inputs":[{"name":"requestId","type":"uint256","internalType":"uint256"},{"name":"randomWords","type":"uint256[]","internalType":"uint256[]"}],"outputs":[],"stateMutability":"nonpayable"},{"type":"function","name":"requestRandomWordsInNative","inputs":[{"name":"_callbackGasLimit","type":"uint32","internalType":"uint32"},{"name":"_requestConfirmations","type":"uint16","internalType":"uint16"},{"name":"_numWords","type":"uint32","internalType":"uint32"},{"name":"extraArgs","type":"bytes","internalType":"bytes"}],"outputs":[{"name":"requestId","type":"uint256","internalType":"uint256"}],"stateMutability":"payable"},{"type":"function","name":"s_callbacks","inputs":[{"name":"","type":"uint256","internalType":"uint256"}],"outputs":[{"name":"callbackAddress","type":"address","internalType":"address"},{"name":"callbackGasLimit","type":"uint32","internalType":"uint32"},{"name":"requestGasPrice","type":"uint64","internalType":"uint64"}],"stateMutability":"view"},{"type":"function","name":"s_configured","inputs":[],"outputs":[{"name":"","type":"bool","internalType":"bool"}],"stateMutability":"view"},{"type":"function","name":"s_disabled","inputs":[],"outputs":[{"name":"","type":"bool","internalType":"bool"}],"stateMutability":"view"},{"type":"function","name":"s_fulfillmentTxSizeBytes","inputs":[],"outputs":[{"name":"","type":"uint32","internalType":"uint32"}],"stateMutability":"view"},{"type":"function","name":"s_vrfCoordinator","inputs":[],"outputs":[{"name":"","type":"address","internalType":"contract IVRFCoordinatorV2Plus"}],"stateMutability":"view"},{"type":"function","name":"setConfig","inputs":[{"name":"_wrapperGasOverhead","type":"uint32","internalType":"uint32"},{"name":"_coordinatorGasOverheadNative","type":"uint32","internalType":"uint32"},{"name":"_coordinatorGasOverheadLink","type":"uint32","internalType":"uint32"},{"name":"_coordinatorGasOverheadPerWord","type":"uint16","internalType":"uint16"},{"name":"_coordinatorNativePremiumPercentage","type":"uint8","internalType":"uint8"},{"name":"_coordinatorLinkPremiumPercentage","type":"uint8","internalType":"uint8"},{"name":"_keyHash","type":"bytes32","internalType":"bytes32"},{"name":"_maxNumWords","type":"uint8","internalType":"uint8"},{"name":"_stalenessSeconds","type":"uint32","internalType":"uint32"},{"name":"_fallbackWeiPerUnitLink","type":"int256","internalType":"int256"},{"name":"_fulfillmentFlatFeeNativePPM","type":"uint32","internalType":"uint32"},{"name":"_fulfillmentFlatFeeLinkDiscountPPM","type":"uint32","internalType":"uint32"}],"outputs":[],"stateMutability":"nonpayable"},{"type":"function","name":"setCoordinator","inputs":[{"name":"_vrfCoordinator","type":"address","internalType":"address"}],"outputs":[],"stateMutability":"nonpayable"},{"type":"function","name":"setFulfillmentTxSize","inputs":[{"name":"_size","type":"uint32","internalType":"uint32"}],"outputs":[],"stateMutability":"nonpayable"},{"type":"function","name":"transferOwnership","inputs":[{"name":"to","type":"address","internalType":"address"}],"outputs":[],"stateMutability":"nonpayable"},{"type":"function","name":"typeAndVersion","inputs":[],"outputs":[{"name":"","type":"string","internalType":"string"}],"stateMutability":"pure"},{"type":"function","name":"withdraw","inputs":[{"name":"_recipient","type":"address","internalType":"address"}],"outputs":[],"stateMutability":"nonpayable"},{"type":"function","name":"withdrawNative","inputs":[{"name":"_recipient","type":"address","internalType":"address"}],"outputs":[],"stateMutability":"nonpayable"},{"type":"event","name":"ConfigSet","inputs":[{"name":"wrapperGasOverhead","type":"uint32","indexed":false,"internalType":"uint32"},{"name":"coordinatorGasOverheadNative","type":"uint32","indexed":false,"internalType":"uint32"},{"name":"coordinatorGasOverheadLink","type":"uint32","indexed":false,"internalType":"uint32"},{"name":"coordinatorGasOverheadPerWord","type":"uint16","indexed":false,"internalType":"uint16"},{"name":"coordinatorNativePremiumPercentage","type":"uint8","indexed":false,"internalType":"uint8"},{"name":"coordinatorLinkPremiumPercentage","type":"uint8","indexed":false,"internalType":"uint8"},{"name":"keyHash","type":"bytes32","indexed":false,"internalType":"bytes32"},{"name":"maxNumWords","type":"uint8","indexed":false,"internalType":"uint8"},{"name":"stalenessSeconds","type":"uint32","indexed":false,"internalType":"uint32"},{"name":"fallbackWeiPerUnitLink","type":"int256","indexed":false,"internalType":"int256"},{"name":"fulfillmentFlatFeeNativePPM","type":"uint32","indexed":false,"internalType":"uint32"},{"name":"fulfillmentFlatFeeLinkDiscountPPM","type":"uint32","indexed":false,"internalType":"uint32"}],"anonymous":false},{"type":"event","name":"CoordinatorSet","inputs":[{"name":"vrfCoordinator","type":"address","indexed":false,"internalType":"address"}],"anonymous":false},{"type":"event","name":"Disabled","inputs":[],"anonymous":false},{"type":"event","name":"Enabled","inputs":[],"anonymous":false},{"type":"event","name":"FallbackWeiPerUnitLinkUsed","inputs":[{"name":"requestId","type":"uint256","indexed":false,"internalType":"uint256"},{"name":"fallbackWeiPerUnitLink","type":"int256","indexed":false,"internalType":"int256"}],"anonymous":false},{"type":"event","name":"FulfillmentTxSizeSet","inputs":[{"name":"size","type":"uint32","indexed":false,"internalType":"uint32"}],"anonymous":false},{"type":"event","name":"NativeWithdrawn","inputs":[{"name":"to","type":"address","indexed":true,"internalType":"address"},{"name":"amount","type":"uint256","indexed":false,"internalType":"uint256"}],"anonymous":false},{"type":"event","name":"OwnershipTransferRequested","inputs":[{"name":"from","type":"address","indexed":true,"internalType":"address"},{"name":"to","type":"address","indexed":true,"internalType":"address"}],"anonymous":false},{"type":"event","name":"OwnershipTransferred","inputs":[{"name":"from","type":"address","indexed":true,"internalType":"address"},{"name":"to","type":"address","indexed":true,"internalType":"address"}],"anonymous":false},{"type":"event","name":"Withdrawn","inputs":[{"name":"to","type":"address","indexed":true,"internalType":"address"},{"name":"amount","type":"uint256","indexed":false,"internalType":"uint256"}],"anonymous":false},{"type":"event","name":"WrapperFulfillmentFailed","inputs":[{"name":"requestId","type":"uint256","indexed":true,"internalType":"uint256"},{"name":"consumer","type":"address","indexed":true,"internalType":"address"}],"anonymous":false},{"type":"error","name":"FailedToTransferLink","inputs":[]},{"type":"error","name":"IncorrectExtraArgsLength","inputs":[{"name":"expectedMinimumLength","type":"uint16","internalType":"uint16"},{"name":"actualLength","type":"uint16","internalType":"uint16"}]},{"type":"error","name":"InvalidPremiumPercentage","inputs":[{"name":"premiumPercentage","type":"uint8","internalType":"uint8"},{"name":"max","type":"uint8","internalType":"uint8"}]},{"type":"error","name":"LINKPaymentInRequestRandomWordsInNative","inputs":[]},{"type":"error","name":"LinkAlreadySet","inputs":[]},{"type":"error","name":"LinkDiscountTooHigh","inputs":[{"name":"flatFeeLinkDiscountPPM","type":"uint32","internalType":"uint32"},{"name":"flatFeeNativePPM","type":"uint32","internalType":"uint32"}]},{"type":"error","name":"NativePaymentInOnTokenTransfer","inputs":[]},{"type":"error","name":"OnlyCoordinatorCanFulfill","inputs":[{"name":"have","type":"address","internalType":"address"},{"name":"want","type":"address","internalType":"address"}]},{"type":"error","name":"OnlyOwnerOrCoordinator","inputs":[{"name":"have","type":"address","internalType":"address"},{"name":"owner","type":"address","internalType":"address"},{"name":"coordinator","type":"address","internalType":"address"}]},{"type":"error","name":"SubscriptionIdMissing","inputs":[]},{"type":"error","name":"ZeroAddress","inputs":[]}],"bytecode":{"object":"0x60e06040526006805463ffffffff60401b1916690304000000000000000017905534801561002b575f5ffd5b50604051612b3c380380612b3c83398101604081905261004a91610285565b8133805f816100a05760405162461bcd60e51b815260206004820152601860248201527f43616e6e6f7420736574206f776e657220746f207a65726f000000000000000060448201526064015b60405180910390fd5b5f80546001600160a01b0319166001600160a01b03848116919091179091558116156100cf576100cf816101c2565b5050506001600160a01b0381166100f95760405163d92e233d60e01b815260040160405180910390fd5b600280546001600160a01b0319166001600160a01b0392831617905584811660a052831660c0525f8190036101415760405163a81c0bef60e01b815260040160405180910390fd5b60025460405163dc311dd360e01b8152600481018390526001600160a01b039091169063dc311dd3906024015f60405180830381865afa158015610187573d5f5f3e3d5ffd5b505050506040513d5f823e601f3d908101601f191682016040526101ae91908101906102f7565b505050608092909252506104139350505050565b336001600160a01b0382160361021a5760405162461bcd60e51b815260206004820152601760248201527f43616e6e6f74207472616e7366657220746f2073656c660000000000000000006044820152606401610097565b600180546001600160a01b0319166001600160a01b038381169182179092555f8054604051929316917fed8889f560326eb138920d842192f0eb3dd22b4f139c87a2c57538e05bae12789190a350565b80516001600160a01b0381168114610280575f5ffd5b919050565b5f5f5f5f60808587031215610298575f5ffd5b6102a18561026a565b93506102af6020860161026a565b92506102bd6040860161026a565b6060959095015193969295505050565b80516001600160601b0381168114610280575f5ffd5b634e487b7160e01b5f52604160045260245ffd5b5f5f5f5f5f60a0868803121561030b575f5ffd5b610314866102cd565b9450610322602087016102cd565b60408701519094506001600160401b038116811461033e575f5ffd5b925061034c6060870161026a565b60808701519092506001600160401b03811115610367575f5ffd5b8601601f81018813610377575f5ffd5b80516001600160401b03811115610390576103906102e3565b604051600582901b90603f8201601f191681016001600160401b03811182821017156103be576103be6102e3565b60405291825260208184018101929081018b8411156103db575f5ffd5b6020850194505b83851015610401576103f38561026a565b8152602094850194016103e2565b50809450505050509295509295909350565b60805160a05160c0516126d56104675f395f818161035701526117f701525f81816102d301528181610cf101528181610d8b015261139501525f81816102000152818161115201526114fe01526126d55ff3fe6080604052600436106101b9575f3560e01c806357a8070a116100f2578063a4c0ed3611610092578063cdd8d88511610062578063cdd8d88514610603578063e1cab7451461063b578063f2fde38b1461065a578063fc2a88c314610679575f5ffd5b8063a4c0ed3614610519578063a608a1e114610538578063bf17e55914610558578063c3f909d414610577575f5ffd5b80638ea98117116100cd5780638ea98117146104b45780639cfc058e146104d35780639eccacf6146104e6578063a3907d7114610505575f5ffd5b806357a8070a1461045457806379ba5097146104845780638da5cb5b14610498575f5ffd5b80631fe543e31161015d5780632f2770db116101385780632f2770db1461037b5780632f622e6b1461038f57806348baa1c5146103ae57806351cff8d914610435575f5ffd5b80631fe543e31461030b57806327e5c50a1461032a5780632808e6c814610349575f5ffd5b806313c34b7f1161019857806313c34b7f14610243578063181f5a771461026257806318b6f4c8146102a65780631c4695f4146102c5575f5ffd5b806226501b146101bd578063030932bb146101ef578063045343aa14610222575b5f5ffd5b3480156101c8575f5ffd5b506101dc6101d7366004611df8565b61068e565b6040519081526020015b60405180910390f35b3480156101fa575f5ffd5b506101dc7f000000000000000000000000000000000000000000000000000000000000000081565b34801561022d575f5ffd5b5061024161023c366004611e53565b610713565b005b34801561024e575f5ffd5b506101dc61025d366004611f1a565b610983565b34801561026d575f5ffd5b50604080518082018252601681527505652465632506c75735772617070657220312e302e360541b602082015290516101e69190611f79565b3480156102b1575f5ffd5b506102416102c0366004612035565b6109f2565b3480156102d0575f5ffd5b507f00000000000000000000000000000000000000000000000000000000000000005b6040516001600160a01b0390911681526020016101e6565b348015610316575f5ffd5b50610241610325366004612083565b610ad7565b348015610335575f5ffd5b506101dc610344366004611f1a565b610b22565b348015610354575f5ffd5b507f00000000000000000000000000000000000000000000000000000000000000006102f3565b348015610386575f5ffd5b50610241610b9d565b34801561039a575f5ffd5b506102416103a9366004612111565b610be2565b3480156103b9575f5ffd5b506104026103c836600461212a565b60076020525f90815260409020546001600160a01b03811690600160a01b810463ffffffff1690600160c01b90046001600160401b031683565b604080516001600160a01b03909416845263ffffffff90921660208401526001600160401b0316908201526060016101e6565b348015610440575f5ffd5b5061024161044f366004612111565b610cd2565b34801561045f575f5ffd5b5060025461047490600160a01b900460ff1681565b60405190151581526020016101e6565b34801561048f575f5ffd5b50610241610e5b565b3480156104a3575f5ffd5b505f546001600160a01b03166102f3565b3480156104bf575f5ffd5b506102416104ce366004612111565b610f04565b6101dc6104e1366004612185565b610ff5565b3480156104f1575f5ffd5b506002546102f3906001600160a01b031681565b348015610510575f5ffd5b506102416112f8565b348015610524575f5ffd5b506102416105333660046121f5565b611337565b348015610543575f5ffd5b5060025461047490600160a81b900460ff1681565b348015610563575f5ffd5b5061024161057236600461224a565b611702565b348015610582575f5ffd5b506005546006546003546002546040516101e6949363ffffffff80821694600160b01b808404831695600160d01b85048416956401000000008604851695600160601b8104861695600160801b8204169461ffff600160a01b8304169460ff600160f01b8404811695600160f81b9094048116949293919091041690612263565b34801561060e575f5ffd5b5060065461062690600160401b900463ffffffff1681565b60405163ffffffff90911681526020016101e6565b348015610646575f5ffd5b506101dc610655366004611df8565b611763565b348015610665575f5ffd5b50610241610674366004612111565b6117c9565b348015610684575f5ffd5b506101dc60045481565b6002545f90600160a01b900460ff166106c25760405162461bcd60e51b81526004016106b9906122e5565b60405180910390fd5b600254600160a81b900460ff16156106ec5760405162461bcd60e51b81526004016106b99061231c565b5f6106f56117dd565b50905061070a8563ffffffff168585846118fe565b95945050505050565b61071b6119fc565b8163ffffffff168163ffffffff161115610758576040516313c06e5960e11b815263ffffffff8083166004830152831660248201526044016106b9565b609b60ff8916111561078957604051631d66288d60e11b815260ff89166004820152609b60248201526044016106b9565b609b60ff881611156107ba57604051631d66288d60e11b815260ff88166004820152609b60248201526044016106b9565b8b600660046101000a81548163ffffffff021916908363ffffffff1602179055508a6006600c6101000a81548163ffffffff021916908363ffffffff16021790555089600660106101000a81548163ffffffff021916908363ffffffff16021790555088600660146101000a81548161ffff021916908361ffff160217905550876006601e6101000a81548160ff021916908360ff160217905550866006601f6101000a81548160ff021916908360ff1602179055508560038190555084600260166101000a81548160ff021916908360ff1602179055506001600260146101000a81548160ff0219169083151502179055508360065f6101000a81548163ffffffff021916908363ffffffff1602179055508260058190555081600660166101000a81548163ffffffff021916908363ffffffff160217905550806006601a6101000a81548163ffffffff021916908363ffffffff1602179055507f8aee1a8c131eaf1a5bd30594737b6926a7c5cb29281a97639f6ac93947c8995e8c8c8c8c8c8c8c8c8c8c8c6006601a9054906101000a900463ffffffff1660405161096d9c9b9a99989796959493929190612349565b60405180910390a1505050505050505050505050565b6002545f90600160a01b900460ff166109ae5760405162461bcd60e51b81526004016106b9906122e5565b600254600160a81b900460ff16156109d85760405162461bcd60e51b81526004016106b99061231c565b6109e98363ffffffff16833a611a50565b90505b92915050565b81515f03610a1c5780610a18576040516335c0ba3760e11b815260040160405180910390fd5b5050565b815160241115610a5457815160405163289006e760e11b81526106b99160249160040161ffff92831681529116602082015260400190565b5f82602381518110610a6857610a686123d0565b6020910101516001600160f81b031916600160f81b149050808015610a8a5750815b15610aa857604051630c09154d60e31b815260040160405180910390fd5b80158015610ab4575081155b15610ad2576040516335c0ba3760e11b815260040160405180910390fd5b505050565b6002546001600160a01b03163314610b175760025460405163073e64fd60e21b81523360048201526001600160a01b0390911660248201526044016106b9565b610ad2838383611b18565b6002545f90600160a01b900460ff16610b4d5760405162461bcd60e51b81526004016106b9906122e5565b600254600160a81b900460ff1615610b775760405162461bcd60e51b81526004016106b99061231c565b5f610b806117dd565b509050610b958463ffffffff16843a846118fe565b949350505050565b610ba56119fc565b6002805460ff60a81b1916600160a81b1790556040517f75884cdadc4a89e8b545db800057f06ec7f5338a08183c7ba515f2bfdd9fe1e1905f90a1565b610bea6119fc565b60405147905f906001600160a01b0384169083908381818185875af1925050503d805f8114610c34576040519150601f19603f3d011682016040523d82523d5f602084013e610c39565b606091505b5050905080610c8a5760405162461bcd60e51b815260206004820152601960248201527f6661696c656420746f207769746864726177206e61746976650000000000000060448201526064016106b9565b826001600160a01b03167fc303ca808382409472acbbf899c316cf439f409f6584aae22df86dfa3c9ed50483604051610cc591815260200190565b60405180910390a2505050565b610cda6119fc565b6040516370a0823160e01b81523060048201525f907f00000000000000000000000000000000000000000000000000000000000000006001600160a01b0316906370a0823190602401602060405180830381865afa158015610d3e573d5f5f3e3d5ffd5b505050506040513d601f19601f82011682018060405250810190610d6291906123e4565b60405163a9059cbb60e01b81526001600160a01b038481166004830152602482018390529192507f00000000000000000000000000000000000000000000000000000000000000009091169063a9059cbb906044016020604051808303815f875af1158015610dd3573d5f5f3e3d5ffd5b505050506040513d601f19601f82011682018060405250810190610df791906123fb565b610e1457604051631f01ff1360e21b815260040160405180910390fd5b816001600160a01b03167f7084f5476618d8e60b11ef0d7d3f06914655adb8793e28ff7f018d4c76d505d582604051610e4f91815260200190565b60405180910390a25050565b6001546001600160a01b03163314610eae5760405162461bcd60e51b815260206004820152601660248201527526bab9ba10313290383937b837b9b2b21037bbb732b960511b60448201526064016106b9565b5f8054336001600160a01b0319808316821784556001805490911690556040516001600160a01b0390921692909183917f8be0079c531659141344cd1fd0a4f28419497f9722a3daafe3b4186f6b6457e091a350565b5f546001600160a01b03163314801590610f2957506002546001600160a01b03163314155b15610f795733610f405f546001600160a01b031690565b60025460405163061db9c160e01b81526001600160a01b03938416600482015291831660248301529190911660448201526064016106b9565b6001600160a01b038116610fa05760405163d92e233d60e01b815260040160405180910390fd5b600280546001600160a01b0319166001600160a01b0383169081179091556040519081527fd1a6a14209a385a964d036e404cb5cfb71f4000cdb03c9366292430787261be6906020015b60405180910390a150565b6002545f90600160a01b900460ff166110205760405162461bcd60e51b81526004016106b9906122e5565b600254600160a81b900460ff161561104a5760405162461bcd60e51b81526004016106b99061231c565b61108883838080601f0160208091040260200160405190810160405280939291908181526020018383808284375f92018290525092506109f2915050565b5f61109287611c69565b90505f6110a68863ffffffff16873a611a50565b9050803410156110e65760405162461bcd60e51b815260206004820152600b60248201526a66656520746f6f206c6f7760a81b60448201526064016106b9565b600254600160b01b900460ff1663ffffffff8716111561113c5760405162461bcd60e51b81526020600482015260116024820152700dceadaaedee4c8e640e8dede40d0d2ced607b1b60448201526064016106b9565b5f6040518060c0016040528060035481526020017f000000000000000000000000000000000000000000000000000000000000000081526020018961ffff168152602001600660049054906101000a900463ffffffff16858c61119f9190612431565b6111a99190612431565b63ffffffff1681526020018863ffffffff16815260200187878080601f0160208091040260200160405190810160405280939291908181526020018383808284375f920191909152505050915250600254604051634d8e1c2f60e11b81529192506001600160a01b031690639b1c385e9061122890849060040161244d565b6020604051808303815f875af1158015611244573d5f5f3e3d5ffd5b505050506040513d601f19601f8201168201806040525081019061126891906123e4565b6040805160608101825233815263ffffffff808d1660208084019182526001600160401b033a81168587019081525f8881526007909352959091209351845492519551909116600160c01b026001600160c01b0395909316600160a01b026001600160c01b03199092166001600160a01b0391909116171792909216919091179055935050505095945050505050565b6113006119fc565b6002805460ff60a81b191690556040517fc0f961051f97b04c496472d11cb6170d844e4b2c9dfd3b602a4fa0139712d484905f90a1565b600254600160a01b900460ff166113605760405162461bcd60e51b81526004016106b9906122e5565b600254600160a81b900460ff161561138a5760405162461bcd60e51b81526004016106b99061231c565b336001600160a01b037f000000000000000000000000000000000000000000000000000000000000000016146114025760405162461bcd60e51b815260206004820152601760248201527f6f6e6c792063616c6c61626c652066726f6d204c494e4b00000000000000000060448201526064016106b9565b5f808080611412858701876124a9565b93509350935093506114258160016109f2565b5f61142f85611c69565b90505f5f61143b6117dd565b915091505f6114528863ffffffff16873a866118fe565b9050808b10156114925760405162461bcd60e51b815260206004820152600b60248201526a66656520746f6f206c6f7760a81b60448201526064016106b9565b600254600160b01b900460ff1663ffffffff871611156114e85760405162461bcd60e51b81526020600482015260116024820152700dceadaaedee4c8e640e8dede40d0d2ced607b1b60448201526064016106b9565b5f6040518060c0016040528060035481526020017f000000000000000000000000000000000000000000000000000000000000000081526020018961ffff168152602001600660049054906101000a900463ffffffff16878c61154b9190612431565b6115559190612431565b63ffffffff90811682528916602082015260409081018890526002549051634d8e1c2f60e11b81529192505f916001600160a01b0390911690639b1c385e906115a290859060040161244d565b6020604051808303815f875af11580156115be573d5f5f3e3d5ffd5b505050506040513d601f19601f820116820180604052508101906115e291906123e4565b905060405180606001604052808f6001600160a01b031681526020018b63ffffffff1681526020013a6001600160401b031681525060075f8381526020019081526020015f205f820151815f015f6101000a8154816001600160a01b0302191690836001600160a01b031602179055506020820151815f0160146101000a81548163ffffffff021916908363ffffffff1602179055506040820151815f0160186101000a8154816001600160401b0302191690836001600160401b031602179055509050508060048190555083156116f2576005546040805183815260208101929092527f6ca648a381f22ead7e37773d934e64885dcf861fbfbb26c40354cbf0c4662d1a910160405180910390a15b5050505050505050505050505050565b61170a6119fc565b600680546bffffffff00000000000000001916600160401b63ffffffff8416908102919091179091556040519081527f697b48b8b76cebb09a54ec4ff810e8a181c96f65395d51c744db09c115d1d5d090602001610fea565b6002545f90600160a01b900460ff1661178e5760405162461bcd60e51b81526004016106b9906122e5565b600254600160a81b900460ff16156117b85760405162461bcd60e51b81526004016106b99061231c565b610b958463ffffffff168484611a50565b6117d16119fc565b6117da81611c80565b50565b5f5f5f60065f9054906101000a900463ffffffff1690505f7f00000000000000000000000000000000000000000000000000000000000000006001600160a01b031663feaf968c6040518163ffffffff1660e01b815260040160a060405180830381865afa158015611851573d5f5f3e3d5ffd5b505050506040513d601f19601f82011682018060405250810190611875919061252c565b50919650909250505063ffffffff8216158015906118a15750611898814261257a565b8263ffffffff16105b925082156118af5760055493505b5f8412156118f85760405162461bcd60e51b8152602060048201526016602482015275496e76616c6964204c494e4b2077656920707269636560501b60448201526064016106b9565b50509091565b6006545f90819061191d90640100000000900463ffffffff168561258d565b90505f8061192b875f611d28565b61193b9063ffffffff16896125a4565b611945908761258d565b61194f91906125a4565b6006549091505f906119779063ffffffff600160d01b8204811691600160b01b9004166125b7565b61198c9063ffffffff1664e8d4a5100061258d565b6006546064906119a690600160f81b900460ff16826125d3565b6119b39060ff168561258d565b6119bd9190612600565b6119c791906125a4565b9050846119d482856125a4565b6119e690670de0b6b3a764000061258d565b6119f09190612600565b98975050505050505050565b5f546001600160a01b03163314611a4e5760405162461bcd60e51b815260206004820152601660248201527527b7363c9031b0b63630b1363290313c9037bbb732b960511b60448201526064016106b9565b565b6006545f908190611a6f90640100000000900463ffffffff168461258d565b90505f80611a7e866001611d28565b611a8e9063ffffffff16886125a4565b611a98908661258d565b611aa291906125a4565b6006549091505f90611ac690600160b01b900463ffffffff1664e8d4a5100061258d565b600654606490611ae090600160f01b900460ff16826125d3565b611aed9060ff168561258d565b611af79190612600565b611b0191906125a4565b9050611b0d81846125a4565b979650505050505050565b5f838152600760208181526040808420815160608101835281546001600160a01b038082168352600160a01b820463ffffffff1683870152600160c01b9091046001600160401b03169382019390935288865293909252929055805190918116611bb85760405162461bcd60e51b81526020600482015260116024820152701c995c5d595cdd081b9bdd08199bdd5b99607a1b60448201526064016106b9565b5f5f631fe543e360e01b878787604051602401611bd793929190612613565b604051602081830303815290604052906001600160e01b0319166020820180516001600160e01b03838183161783525050505090505f611c22856020015163ffffffff168584611d9a565b905080611c5f576040516001600160a01b0385169089907fc551b83c151f2d1c7eeb938ac59008e0409f1c1dc1e2f112449d4d79b4589022905f90a35b5050505050505050565b5f611c75603f83612652565b6109ec906001612431565b336001600160a01b03821603611cd85760405162461bcd60e51b815260206004820152601760248201527f43616e6e6f74207472616e7366657220746f2073656c6600000000000000000060448201526064016106b9565b600180546001600160a01b0319166001600160a01b038381169182179092555f8054604051929316917fed8889f560326eb138920d842192f0eb3dd22b4f139c87a2c57538e05bae12789190a350565b5f8115611d6857600654611d4790600160a01b900461ffff1684612679565b600654611d619190600160601b900463ffffffff16612431565b90506109ec565b600654611d8090600160a01b900461ffff1684612679565b600654611d619190600160801b900463ffffffff16612431565b5f5a611388811015611daa575f5ffd5b611388810390508460408204820311611dc1575f5ffd5b50823b611dcc575f5ffd5b5f5f8351602085015f8789f1949350505050565b803563ffffffff81168114611df3575f5ffd5b919050565b5f5f5f60608486031215611e0a575f5ffd5b611e1384611de0565b9250611e2160208501611de0565b929592945050506040919091013590565b803561ffff81168114611df3575f5ffd5b803560ff81168114611df3575f5ffd5b5f5f5f5f5f5f5f5f5f5f5f5f6101808d8f031215611e6f575f5ffd5b611e788d611de0565b9b50611e8660208e01611de0565b9a50611e9460408e01611de0565b9950611ea260608e01611e32565b9850611eb060808e01611e43565b9750611ebe60a08e01611e43565b965060c08d01359550611ed360e08e01611e43565b9450611ee26101008e01611de0565b93506101208d01359250611ef96101408e01611de0565b9150611f086101608e01611de0565b90509295989b509295989b509295989b565b5f5f60408385031215611f2b575f5ffd5b611f3483611de0565b9150611f4260208401611de0565b90509250929050565b5f81518084528060208401602086015e5f602082860101526020601f19601f83011685010191505092915050565b602081525f6109e96020830184611f4b565b634e487b7160e01b5f52604160045260245ffd5b5f82601f830112611fae575f5ffd5b81356001600160401b03811115611fc757611fc7611f8b565b604051601f8201601f19908116603f011681016001600160401b0381118282101715611ff557611ff5611f8b565b60405281815283820160200185101561200c575f5ffd5b816020850160208301375f918101602001919091529392505050565b80151581146117da575f5ffd5b5f5f60408385031215612046575f5ffd5b82356001600160401b0381111561205b575f5ffd5b61206785828601611f9f565b925050602083013561207881612028565b809150509250929050565b5f5f5f60408486031215612095575f5ffd5b8335925060208401356001600160401b038111156120b1575f5ffd5b8401601f810186136120c1575f5ffd5b80356001600160401b038111156120d6575f5ffd5b8660208260051b84010111156120ea575f5ffd5b939660209190910195509293505050565b80356001600160a01b0381168114611df3575f5ffd5b5f60208284031215612121575f5ffd5b6109e9826120fb565b5f6020828403121561213a575f5ffd5b5035919050565b5f5f83601f840112612151575f5ffd5b5081356001600160401b03811115612167575f5ffd5b60208301915083602082850101111561217e575f5ffd5b9250929050565b5f5f5f5f5f60808688031215612199575f5ffd5b6121a286611de0565b94506121b060208701611e32565b93506121be60408701611de0565b925060608601356001600160401b038111156121d8575f5ffd5b6121e488828901612141565b969995985093965092949392505050565b5f5f5f5f60608587031215612208575f5ffd5b612211856120fb565b93506020850135925060408501356001600160401b03811115612232575f5ffd5b61223e87828801612141565b95989497509550505050565b5f6020828403121561225a575f5ffd5b6109e982611de0565b8c815263ffffffff8c811660208301528b811660408301528a81166060830152898116608083015288811660a0830152871660c0820152610180810161ffff871660e083015260ff861661010083015260ff8516610120830152836101408301526122d461016083018460ff169052565b9d9c50505050505050505050505050565b60208082526019908201527f77726170706572206973206e6f7420636f6e6669677572656400000000000000604082015260600190565b6020808252601390820152721ddc985c1c195c881a5cc8191a5cd8589b1959606a1b604082015260600190565b63ffffffff8d811682528c811660208301528b16604082015261ffff8a16606082015260ff8981166080830152881660a082015261018081018760c083015261239760e083018860ff169052565b63ffffffff8616610100830152846101208301526123be61014083018563ffffffff169052565b63ffffffff83166101608301526122d4565b634e487b7160e01b5f52603260045260245ffd5b5f602082840312156123f4575f5ffd5b5051919050565b5f6020828403121561240b575f5ffd5b815161241681612028565b9392505050565b634e487b7160e01b5f52601160045260245ffd5b63ffffffff81811683821601908111156109ec576109ec61241d565b60208152815160208201526020820151604082015261ffff604083015116606082015263ffffffff606083015116608082015263ffffffff60808301511660a08201525f60a083015160c080840152610b9560e0840182611f4b565b5f5f5f5f608085870312156124bc575f5ffd5b6124c585611de0565b93506124d360208601611e32565b92506124e160408601611de0565b915060608501356001600160401b038111156124fb575f5ffd5b61250787828801611f9f565b91505092959194509250565b805169ffffffffffffffffffff81168114611df3575f5ffd5b5f5f5f5f5f60a08688031215612540575f5ffd5b61254986612513565b6020870151604088015160608901519297509095509350915061256e60808701612513565b90509295509295909350565b818103818111156109ec576109ec61241d565b80820281158282048414176109ec576109ec61241d565b808201808211156109ec576109ec61241d565b63ffffffff82811682821603908111156109ec576109ec61241d565b60ff81811683821601908111156109ec576109ec61241d565b634e487b7160e01b5f52601260045260245ffd5b5f8261260e5761260e6125ec565b500490565b83815260406020820181905281018290525f6001600160fb1b03831115612638575f5ffd5b8260051b8085606085013791909101606001949350505050565b5f63ffffffff831680612667576126676125ec565b8063ffffffff84160491505092915050565b63ffffffff81811683821602908116908181146126985761269861241d565b509291505056fea26469706673582212207d004650554a0a88e73941663d519034a80eafc58ee279e2e4e350ceef4f9cc264736f6c634300081b0033","linkReferences":{}},"methodIdentifiers":{"SUBSCRIPTION_ID()":"030932bb","acceptOwnership()":"79ba5097","calculateRequestPrice(uint32,uint32)":"27e5c50a","calculateRequestPriceNative(uint32,uint32)":"13c34b7f","checkPaymentMode(bytes,bool)":"18b6f4c8","disable()":"2f2770db","enable()":"a3907d71","estimateRequestPrice(uint32,uint32,uint256)":"0026501b","estimateRequestPriceNative(uint32,uint32,uint256)":"e1cab745","getConfig()":"c3f909d4","lastRequestId()":"fc2a88c3","link()":"1c4695f4","linkNativeFeed()":"2808e6c8","onTokenTransfer(address,uint256,bytes)":"a4c0ed36","owner()":"8da5cb5b","rawFulfillRandomWords(uint256,uint256[])":"1fe543e3","requestRandomWordsInNative(uint32,uint16,uint32,bytes)":"9cfc058e","s_callbacks(uint256)":"48baa1c5","s_configured()":"57a8070a","s_disabled()":"a608a1e1","s_fulfillmentTxSizeBytes()":"cdd8d885","s_vrfCoordinator()":"9eccacf6","setConfig(uint32,uint32,uint32,uint16,uint8,uint8,bytes32,uint8,uint32,int256,uint32,uint32)":"045343aa","setCoordinator(address)":"8ea98117","setFulfillmentTxSize(uint32)":"bf17e559","transferOwnership(address)":"f2fde38b","typeAndVersion()":"181f5a77","withdraw(address)":"51cff8d9","withdrawNative(address)":"2f622e6b"},"id":12}