{"abi":[{"type":"constructor","inputs":[{"name":"_answer","type":"int256","internalType":"int256"}],"stateMutability":"nonpayable"},{"type":"function","name":"answer","inputs":[],"outputs":[{"name":"","type":"int256","internalType":"int256"}],"stateMutability":"view"},{"type":"function","name":"decimals","inputs":[],"outputs":[{"name":"","type":"uint8","internalType":"uint8"}],"stateMutability":"view"},{"type":"function","name":"description","inputs":[],"outputs":[{"name":"","type":"string","internalType":"string"}],"stateMutability":"view"},{"type":"function","name":"getRoundData","inputs":[{"name":"_roundId","type":"uint80","internalType":"uint80"}],"outputs":[{"name":"roundId","type":"uint80","internalType":"uint80"},{"name":"ans","type":"int256","internalType":"int256"},{"name":"startedAt","type":"uint256","internalType":"uint256"},{"name":"updatedAt","type":"uint256","internalType":"uint256"},{"name":"answeredInRound","type":"uint80","internalType":"uint80"}],"stateMutability":"view"},{"type":"function","name":"latestRoundData","inputs":[],"outputs":[{"name":"roundId","type":"uint80","internalType":"uint80"},{"name":"ans","type":"int256","internalType":"int256"},{"name":"startedAt","type":"uint256","internalType":"uint256"},{"name":"updatedAt","type":"uint256","internalType":"uint256"},{"name":"answeredInRound","type":"uint80","internalType":"uint80"}],"stateMutability":"view"},{"type":"function","name":"version","inputs":[],"outputs":[{"name":"","type":"uint256","internalType":"uint256"}],"stateMutability":"view"}],"bytecode":{"object":"0x6080604052348015600e575f5ffd5b50604051610217380380610217833981016040819052602b916031565b5f556047565b5f602082840312156040575f5ffd5b5051919050565b6101c3806100545f395ff3fe608060405234801561000f575f5ffd5b5060043610610060575f3560e01c8063313ce5671461006457806354fd4d50146100785780637284e4161461008957806385bb7d69146100c05780639a6fc8f5146100c8578063feaf968c1461011b575b5f5ffd5b604051601281526020015b60405180910390f35b60015b60405190815260200161006f565b604080518082018252601581527426b7b1b5a2aa242624a725a0b3b3b932b3b0ba37b960591b6020820152905161006f9190610128565b61007b5f5481565b6100e46100d636600461015d565b505f54600191429081908490565b6040805169ffffffffffffffffffff968716815260208101959095528401929092526060830152909116608082015260a00161006f565b5f546001904280836100e4565b602081525f82518060208401528060208501604085015e5f604082850101526040601f19601f83011684010191505092915050565b5f6020828403121561016d575f5ffd5b813569ffffffffffffffffffff81168114610186575f5ffd5b939250505056fea2646970667358221220a5f02bec06fd2de155960dfbe0d454ad3f049494b1a6ad5db6881bf91beaff5464736f6c634300081b0033","linkReferences":{}},"methodIdentifiers":{"answer()":"85bb7d69","decimals()":"313ce567","description()":"7284e416","getRoundData(uint80)":"9a6fc8f5","latestRoundData()":"feaf968c","version()":"54fd4d50"},"id":8}