{"abi":[{"type":"constructor","inputs":[{"name":"_asset","type":"address","internalType":"address"},{"name":"name","type":"string","internalType":"string"},{"name":"symbol","type":"string","internalType":"string"}],"stateMutability":"nonpayable"},{"type":"function","name":"addInterest","inputs":[],"outputs":[],"stateMutability":"nonpayable"},{"type":"function","name":"allowance","inputs":[{"name":"owner","type":"address","internalType":"address"},{"name":"spender","type":"address","internalType":"address"}],"outputs":[{"name":"","type":"uint256","internalType":"uint256"}],"stateMutability":"view"},{"type":"function","name":"approve","inputs":[{"name":"spender","type":"address","internalType":"address"},{"name":"value","type":"uint256","internalType":"uint256"}],"outputs":[{"name":"","type":"bool","internalType":"bool"}],"stateMutability":"nonpayable"},{"type":"function","name":"asset","inputs":[],"outputs":[{"name":"","type":"address","internalType":"address"}],"stateMutability":"view"},{"type":"function","name":"balanceOf","inputs":[{"name":"account","type":"address","internalType":"address"}],"outputs":[{"name":"","type":"uint256","internalType":"uint256"}],"stateMutability":"view"},{"type":"function","name":"convertToAssets","inputs":[{"name":"shares","type":"uint256","internalType":"uint256"}],"outputs":[{"name":"","type":"uint256","internalType":"uint256"}],"stateMutability":"view"},{"type":"function","name":"convertToShares","inputs":[{"name":"assets","type":"uint256","internalType":"uint256"}],"outputs":[{"name":"","type":"uint256","internalType":"uint256"}],"stateMutability":"view"},{"type":"function","name":"decimals","inputs":[],"outputs":[{"name":"","type":"uint8","internalType":"uint8"}],"stateMutability":"view"},{"type":"function","name":"deposit","inputs":[{"name":"assets","type":"uint256","internalType":"uint256"},{"name":"receiver","type":"address","internalType":"address"}],"outputs":[{"name":"shares","type":"uint256","internalType":"uint256"}],"stateMutability":"nonpayable"},{"type":"function","name":"name","inputs":[],"outputs":[{"name":"","type":"string","internalType":"string"}],"stateMutability":"view"},{"type":"function","name":"previewDeposit","inputs":[{"name":"assets","type":"uint256","internalType":"uint256"}],"outputs":[{"name":"","type":"uint256","internalType":"uint256"}],"stateMutability":"view"},{"type":"function","name":"previewRedeem","inputs":[{"name":"shares","type":"uint256","internalType":"uint256"}],"outputs":[{"name":"","type":"uint256","internalType":"uint256"}],"stateMutability":"view"},{"type":"function","name":"redeem","inputs":[{"name":"shares","type":"uint256","internalType":"uint256"},{"name":"","type":"address","internalType":"address"},{"name":"owner","type":"address","internalType":"address"}],"outputs":[{"name":"assets","type":"uint256","internalType":"uint256"}],"stateMutability":"nonpayable"},{"type":"function","name":"symbol","inputs":[],"outputs":[{"name":"","type":"string","internalType":"string"}],"stateMutability":"view"},{"type":"function","name":"totalAssets","inputs":[],"outputs":[{"name":"","type":"uint256","internalType":"uint256"}],"stateMutability":"view"},{"type":"function","name":"totalSupply","inputs":[],"outputs":[{"name":"","type":"uint256","internalType":"uint256"}],"stateMutability":"view"},{"type":"function","name":"transfer","inputs":[{"name":"to","type":"address","internalType":"address"},{"name":"value","type":"uint256","internalType":"uint256"}],"outputs":[{"name":"","type":"bool","internalType":"bool"}],"stateMutability":"nonpayable"},{"type":"function","name":"transferFrom","inputs":[{"name":"from","type":"address","internalType":"address"},{"name":"to","type":"address","internalType":"address"},{"name":"value","type":"uint256","internalType":"uint256"}],"outputs":[{"name":"","type":"bool","internalType":"bool"}],"stateMutability":"nonpayable"},{"type":"event","name":"Approval","inputs":[{"name":"owner","type":"address","indexed":true,"internalType":"address"},{"name":"spender","type":"address","indexed":true,"internalType":"address"},{"name":"value","type":"uint256","indexed":false,"internalType":"uint256"}],"anonymous":false},{"type":"event","name":"Transfer","inputs":[{"name":"from","type":"address","indexed":true,"internalType":"address"},{"name":"to","type":"address","indexed":true,"internalType":"address"},{"name":"value","type":"uint256","indexed":false,"internalType":"uint256"}],"anonymous":false},{"type":"error","name":"ERC20InsufficientAllowance","inputs":[{"name":"spender","type":"address","internalType":"address"},{"name":"allowance","type":"uint256","internalType":"uint256"},{"name":"needed","type":"uint256","internalType":"uint256"}]},{"type":"error","name":"ERC20InsufficientBalance","inputs":[{"name":"sender","type":"address","internalType":"address"},{"name":"balance","type":"uint256","internalType":"uint256"},{"name":"needed","type":"uint256","internalType":"uint256"}]},{"type":"error","name":"ERC20InvalidApprover","inputs":[{"name":"approver","type":"address","internalType":"address"}]},{"type":"error","name":"ERC20InvalidReceiver","inputs":[{"name":"receiver","type":"address","internalType":"address"}]},{"type":"error","name":"ERC20InvalidSender","inputs":[{"name":"sender","type":"address","internalType":"address"}]},{"type":"error","name":"ERC20InvalidSpender","inputs":[{"name":"spender","type":"address","internalType":"address"}]}],"bytecode":{"object":"0x60a060405234801561000f575f5ffd5b50604051610d80380380610d8083398101604081905261002e916100ff565b8181600361003c8382610205565b5060046100498282610205565b5050506001600160a01b03909216608052506102bf9050565b634e487b7160e01b5f52604160045260245ffd5b5f82601f830112610085575f5ffd5b81516001600160401b0381111561009e5761009e610062565b604051601f8201601f19908116603f011681016001600160401b03811182821017156100cc576100cc610062565b6040528181528382016020018510156100e3575f5ffd5b8160208501602083015e5f918101602001919091529392505050565b5f5f5f60608486031215610111575f5ffd5b83516001600160a01b0381168114610127575f5ffd5b60208501519093506001600160401b03811115610142575f5ffd5b61014e86828701610076565b604086015190935090506001600160401b0381111561016b575f5ffd5b61017786828701610076565b9150509250925092565b600181811c9082168061019557607f821691505b6020821081036101b357634e487b7160e01b5f52602260045260245ffd5b50919050565b601f82111561020057805f5260205f20601f840160051c810160208510156101de5750805b601f840160051c820191505b818110156101fd575f81556001016101ea565b50505b505050565b81516001600160401b0381111561021e5761021e610062565b6102328161022c8454610181565b846101b9565b6020601f821160018114610264575f831561024d5750848201515b5f19600385901b1c1916600184901b1784556101fd565b5f84815260208120601f198516915b828110156102935787850151825560209485019460019092019101610273565b50848210156102b057868401515f19600387901b60f8161c191681555b50505050600190811b01905550565b608051610aa96102d75f395f6101b50152610aa95ff3fe608060405234801561000f575f5ffd5b5060043610610111575f3560e01c80634cdad5061161009e578063a9059cbb1161006e578063a9059cbb14610245578063ba08765214610258578063c6e6f592146101ef578063dd62ed3e1461026b578063ef8b30f7146101ef575f5ffd5b80634cdad506146101ef5780636e553f651461020257806370a082311461021557806395d89b411461023d575f5ffd5b80630d09365c116100e45780630d09365c1461017c57806318160ddd1461018657806323b872dd1461018e578063313ce567146101a157806338d52e0f146101b0575f5ffd5b806301e1d1141461011557806306fdde031461013157806307a2d13a14610146578063095ea7b314610159575b5f5ffd5b61011e60055481565b6040519081526020015b60405180910390f35b6101396102a3565b604051610128919061084f565b61011e610154366004610884565b610333565b61016c6101673660046108b1565b61037d565b6040519015158152602001610128565b610184610394565b005b60025461011e565b61016c61019c3660046108d9565b6103d5565b60405160128152602001610128565b6101d77f000000000000000000000000000000000000000000000000000000000000000081565b6040516001600160a01b039091168152602001610128565b61011e6101fd366004610884565b505f90565b61011e610210366004610913565b6103fa565b61011e61022336600461093d565b6001600160a01b03165f9081526020819052604090205490565b610139610450565b61016c6102533660046108b1565b61045f565b61011e610266366004610956565b61046c565b61011e61027936600461098f565b6001600160a01b039182165f90815260016020908152604080832093909416825291909152205490565b6060600380546102b2906109b7565b80601f01602080910402602001604051908101604052809291908181526020018280546102de906109b7565b80156103295780601f1061030057610100808354040283529160200191610329565b820191905f5260205f20905b81548152906001019060200180831161030c57829003601f168201915b5050505050905090565b5f5f61033e60025490565b11156103695761036361035c61035360025490565b600554906104b1565b83906104df565b92915050565b50670de0b6b3a7640000919050565b919050565b5f3361038a8185856104fc565b5060019392505050565b5f61039e60025490565b11156103d3576103bd65048c273950006103b760025490565b906104df565b60055f8282546103cd9190610a03565b90915550505b565b5f336103e285828561050e565b6103ed85858561058e565b60019150505b9392505050565b5f5f61040560025490565b111561042c5760055460025461041b9085610a16565b6104259190610a41565b905061042f565b50815b8260055f8282546104409190610a03565b90915550610363905082826105eb565b6060600480546102b2906109b7565b5f3361038a81858561058e565b5f61047660025490565b846005546104849190610a16565b61048e9190610a41565b90508060055f8282546104a19190610a60565b909155506103f390508285610623565b5f806104c5670de0b6b3a764000085610a16565b90508281816104d6576104d6610a2d565b04949350505050565b5f806104eb8385610a16565b9050670de0b6b3a7640000816104d6565b6105098383836001610657565b505050565b6001600160a01b038381165f908152600160209081526040808320938616835292905220545f198114610588578181101561057a57604051637dc7a0d960e11b81526001600160a01b038416600482015260248101829052604481018390526064015b60405180910390fd5b61058884848484035f610657565b50505050565b6001600160a01b0383166105b757604051634b637e8f60e11b81525f6004820152602401610571565b6001600160a01b0382166105e05760405163ec442f0560e01b81525f6004820152602401610571565b610509838383610729565b6001600160a01b0382166106145760405163ec442f0560e01b81525f6004820152602401610571565b61061f5f8383610729565b5050565b6001600160a01b03821661064c57604051634b637e8f60e11b81525f6004820152602401610571565b61061f825f83610729565b6001600160a01b0384166106805760405163e602df0560e01b81525f6004820152602401610571565b6001600160a01b0383166106a957604051634a1406b160e11b81525f6004820152602401610571565b6001600160a01b038085165f908152600160209081526040808320938716835292905220829055801561058857826001600160a01b0316846001600160a01b03167f8c5be1e5ebec7d5bd14f71427d1e84f3dd0314c0f7b2291e5b200ac8c7c3b9258460405161071b91815260200190565b60405180910390a350505050565b6001600160a01b038316610753578060025f8282546107489190610a03565b909155506107c39050565b6001600160a01b0383165f90815260208190526040902054818110156107a55760405163391434e360e21b81526001600160a01b03851660048201526024810182905260448101839052606401610571565b6001600160a01b0384165f9081526020819052604090209082900390555b6001600160a01b0382166107df576002805482900390556107fd565b6001600160a01b0382165f9081526020819052604090208054820190555b816001600160a01b0316836001600160a01b03167fddf252ad1be2c89b69c2b068fc378daa952ba7f163c4a11628f55a4df523b3ef8360405161084291815260200190565b60405180910390a3505050565b602081525f82518060208401528060208501604085015e5f604082850101526040601f19601f83011684010191505092915050565b5f60208284031215610894575f5ffd5b5035919050565b80356001600160a01b0381168114610378575f5ffd5b5f5f604083850312156108c2575f5ffd5b6108cb8361089b565b946020939093013593505050565b5f5f5f606084860312156108eb575f5ffd5b6108f48461089b565b92506109026020850161089b565b929592945050506040919091013590565b5f5f60408385031215610924575f5ffd5b823591506109346020840161089b565b90509250929050565b5f6020828403121561094d575f5ffd5b6103f38261089b565b5f5f5f60608486031215610968575f5ffd5b833592506109786020850161089b565b91506109866040850161089b565b90509250925092565b5f5f604083850312156109a0575f5ffd5b6109a98361089b565b91506109346020840161089b565b600181811c908216806109cb57607f821691505b6020821081036109e957634e487b7160e01b5f52602260045260245ffd5b50919050565b634e487b7160e01b5f52601160045260245ffd5b80820180821115610363576103636109ef565b8082028115828204841417610363576103636109ef565b634e487b7160e01b5f52601260045260245ffd5b5f82610a5b57634e487b7160e01b5f52601260045260245ffd5b500490565b81810381811115610363576103636109ef56fea264697066735822122096f1fce77b5174b21791c9d55955020347ddc897056fa9e97e31f6e0285e5f8f64736f6c634300081b0033","linkReferences":{}},"methodIdentifiers":{"addInterest()":"0d09365c","allowance(address,address)":"dd62ed3e","approve(address,uint256)":"095ea7b3","asset()":"38d52e0f","balanceOf(address)":"70a08231","convertToAssets(uint256)":"07a2d13a","convertToShares(uint256)":"c6e6f592","decimals()":"313ce567","deposit(uint256,address)":"6e553f65","name()":"06fdde03","previewDeposit(uint256)":"ef8b30f7","previewRedeem(uint256)":"4cdad506","redeem(uint256,address,address)":"ba087652","symbol()":"95d89b41","totalAssets()":"01e1d114","totalSupply()":"18160ddd","transfer(address,uint256)":"a9059cbb","transferFrom(address,address,uint256)":"23b872dd"},"id":100}